:020000040800F2
:10000000D006002465030008512200089121000851
:100010004922000871040008792800080000000047
:100020000000000000000000000000007926000829
:100030007904000800000000592200088126000809
:100040007F0300087F0300087F0300087F03000888
:100050007F0300087F0300087F0300087F03000878
:100060007F0300087F0300087F0300087F03000868
:100070007F0300087F0300087F0300087F03000858
:100080007F0300087F0300087F0300087F03000848
:100090007F0300087F0300087F0300087F03000838
:1000A0007F0300087F0300087F0300087F03000828
:1000B0007F0300087F0300087F0300087F03000818
:1000C0007F0300087F0300087F0300087F03000808
:1000D0007F0300087F0300087F0300087F030008F8
:1000E0007F0300087F030008000000007F03000872
:1000F0007F0300087F0300087F0300087F030008D8
:100100007F0300087F0300087F0300087F030008C7
:100110007F0300087F0300087F0300087F030008B7
:100120007F0300087F0300087F0300087F030008A7
:100130007F0300087F0300087F0300087F03000897
:1001400000000000000000000000000000000000AF
:100150007F0300087F0300087F0300087F03000877
:100160007F0300087F0300087F0300087F03000867
:100170007F0300087F0300087F0300087F03000857
:100180007F0300087F0300087F0300087F03000847
:100190007F0300087F0300087F0300087F03000837
:1001A0007F0300087F0300087F0300087F03000827
:1001B0007F0300087F0300087F0300087F03000817
:1001C0007F0300087F0300087F0300087F03000807
:1001D0007F0300087F0300087F0300087F030008F7
:1001E0007F0300087F0300087F0300087F030008E7
:1001F0007F0300087F0300087F0300087F030008D7
:100200007F0300087F0300087F0300087F030008C6
:100210007F0300087F0300087F0300087F030008B6
:100220007F0300087F0300087F0300080000000030
:100230007F0300087F030008000000007F03000820
:100240007F0300087F0300087F0300087F03000886
:100250007F0300087F0300087F0300087F03000876
:100260007F0300087F0300087F0300087F03000866
:100270007F0300087F0300087F03000800000000E0
:100280007F0300087F0300087F03000800000000D0
:10029000000000007F03000800F002F800F052F8B0
:1002A00014A696E8000CB244B344DA4501D100F03C
:1002B00049F8BAE80F000FA696E83000A5EB040550
:1002C00004EB0607AAEB0704A7F101074FEA15158F
:1002D0004FEA3414A4F10104AC4201D300F032F827
:1002E00013F0010F18BFFB1A43F0010300F001F8EF
:1002F000DBE71847A82A0000C82A0000103A24BFEC
:1003000078C878C1FAD8520724BF30C830C144BF7A
:1003100004680C6070470000704700000023002450
:1003200000250026103A28BF78C1FBD8520728BF05
:1003300030C148BF0B6070471FB502F01AFD1FBDEA
:1003400010B510BD00F058F81146FFF7F5FF02F0A8
:10035000A3FC00F076F803B4FFF7F2FF03BC00F053
:100360007DF800000948804709480047FEE7FEE79E
:10037000FEE7FEE7FEE7FEE7FEE7FEE7FEE7FEE755
:1003800004480549054A064B7047000099270008B4
:1003900099020008D0000024D0060024D0020024D6
:1003A000D00200244FF0000200B513469446964652
:1003B000203922BFA0E80C50A0E80C50B1F1200178
:1003C000BFF4F7AF090728BFA0E80C5048BF0CC026
:1003D0005DF804EB890028BF40F8042B08BF704784
:1003E00048BF20F8022B11F0804F18BF00F8012BF6
:1003F0007047704770477047754600F02BF8AE465F
:1004000005006946534620F00700854618B020B520
:10041000FFF7B6FFBDE820404FF000064FF00007A1
:100420004FF000084FF0000BAC46ACE8C009ACE858
:10043000C009ACE8C009ACE8C00921F007018D464D
:10044000704710B50446AFF300802046BDE8104069
:10045000FFF781BF004870471000002401491820B1
:10046000ABBEFEE72600020070470000000000005F
:10047000FEE70000000000007047000000000000E0
:10048000EFF3108072B600BFFEE70000000000002E
:100490002DE9F04F83B00E68002E00F0C78000F108
:1004A000264742F2004507F1FF77C5F602050A220A
:1004B000A8424FEAB72500F1200308BF09220093A4
:1004C000092D38BF4FEAB722002400274FF0000A59
:1004D00001920AE00AF1010A0E6836FA0AF207F1FF
:1004E000020704F1040400F0A180012202FA0AFBD1
:1004F00016EA0B08EED0D1F80490032209F0030E9F
:10050000AEF10106012E02FA07F610D8D0F808C0A5
:10051000CD682CEA0602BD402A438260C9F300156B
:10052000426822EA0B0205FA0AF52A434260BEF14C
:10053000030F1FD0C2688D68B243BD40BEF1020FE9
:1005400042EA0502C26015D16FF00302009D02EA83
:100550005A0B04F01C030F2255F80BC002FA03FEDD
:10056000D1F810902CEA0E0C09FA03F343EA0C03BD
:1005700045F80B3002684B68B24303F00306BE40F7
:1005800013F4403F42EA06020260A3D044F2F4436F
:1005900040F2084CC5F60203C5F6000C0F251A6898
:1005A00042F002021A601A6802F0020202922AF075
:1005B0000302029B04F00C0352F80C609D40AE4312
:1005C000019D05FA03F3334342F80C304FF0B04C71
:1005D000DCF800204B6842EA0806DD0258BF22EA38
:1005E00008069D02CCF8006040F2040CC5F6000C31
:1005F000DCF8002042EA080658BF22EA08069D03FC
:10060000CCF80060DCF8802042EA080658BF22EAF5
:100610000806DB03CCF88060DCF87C2042EA0806A0
:1006200058BF22EA0806CCF87C6053E703B0BDE867
:10063000F08F00000000000041F20000C5F600400D
:100640000068000C7047000040F2C400C2F2004095
:10065000006870470000000040F2080040F2C4014A
:10066000C2F20040C2F2004100680A68104408600B
:10067000704700000000000080B5032000F0ECF897
:1006800001F0CEF944F2184142F68C53C5F602014E
:10069000C0F600030A68C2F303229A5C096801F0FD
:1006A0000F0102F01F02595CD04040F20402C2F276
:1006B000004201F01F0120FA01F1116040F2000137
:1006C000C2F200410860002000F00AF800281CBFB8
:1006D000012080BD00F080F8002080BD00000000F7
:1006E00040F20801C2F20041096819B310B504468E
:1006F00040F20000C2F200404FF47A72B2FBF1F116
:100700000068B0FBF1F001F02BFD0F2C01464FF01B
:1007100001000ED8002918BF10BD4FF0FF30002295
:10072000214600F069F840F20C010020C2F20041BD
:100730000C6010BD0120704710B54EF6A05E4378E6
:10074000CEF2000E90F800C04EF8083CDEF8003003
:1007500023F00103CEF8003043684EF8043C037BDD
:10076000C27A817A447B120642EA0372837B42EAB0
:10077000C141C27B41EA8441447A41EA4341007A63
:1007800041EA024141EA042141EA400040EA0C000A
:10079000CEF8000010BD00004EF62450CEF200004E
:1007A000BFF35F8F016821F4803101600021016790
:1007B00070470000000000004EF6245140F0010098
:1007C000CEF200010867086840F480300860BFF38B
:1007D0004F8FBFF36F8F704781B044F2F440C5F67E
:1007E0000200016841F002010160006800F00200AF
:1007F0000090009801B0704770B54EF60C5C4FF059
:10080000FF36CEF2000C00F1604505F56445DCF8DA
:100810000030C3F3022E8EF00703042B28BF0423FD
:10082000BEF1030406FA03F321EA030100F00F030B
:1008300038BF0024043B0028634406FA04F048BF94
:1008400003F10C05A14022EA0000084300012870D2
:1008500070BD0000000000004EF60C514FF6FF0383
:10086000CEF200010A681A4060F30A2242F080606A
:1008700040F0FD7008607047B0B544F60C05C5F651
:10088000020529684907296805D401F00701081AFB
:1008900018BF0120B0BD21F0070108432860FFF711
:1008A000D3FE044655F8080C800407D4FFF7CCFEAD
:1008B000001BB0F57A7FF5D90120B0BD0020B0BD96
:1008C0002DE9F041154688460446FFF7BDFE216C30
:1008D000012902D10220BDE8F081064601202064F2
:1008E000606C01284FF002003ED10021A1646064D9
:1008F0002068806880061AD400222046414601F014
:10090000AFFCD8F8240060BB20688068800725D43D
:100910006F1C03E02068806880071FD4002FF9D087
:10092000FFF792FE95B1801BA842F3D90EE06F1C31
:1009300004E000BF206880688006DDD5002FF9D074
:10094000FFF782FE15B1801BA842F3D90420606432
:10095000A06C40F00100A064012005E020680221A5
:10096000C16001206064002000212164BDE8F081A5
:10097000F0B581B00446FFF767FE002C43D0054672
:10098000606C28B9204600F0B3F841F28830E0648A
:100990002068E66CA1686FF0FF03026822F4F85249
:1009A00003EB012111430160806880062ED40020F2
:1009B000012131B3D4E900124FF62F75D4E9033782
:1009C0000E68C0F2FF052E403343E66943EA026237
:1009D000236A32431A430A604FF6FE034A68CFF691
:1009E000E0731A4063691A43A36942EA07421A4353
:1009F0004A600A6842F001020A600021A1640121F4
:100A0000616401B0F0BD012001B0F0BD771C03E0CE
:100A1000206880688006CAD5002FF9D0FFF714FE41
:100A200016B1401BB042F3D904206064A06C0021D1
:100A300040F00100A06401200029BBD1E1E70000E3
:100A40002DE9F04381B0914688460446FFF7FCFD4E
:100A5000216C012903D1022001B0BDE8F0830746D3
:100A600001202064606C012824D10020A064822031
:100A700060642068E56C8068800621D42068016885
:100A8000D9F8042021F00801082A41EA0201016096
:100A900008D1D9F8001001631021C160016841F448
:100AA000801101604FF040622046414601F0D8FBC2
:100AB000002000E002200021216401B0BDE8F083A5
:100AC0006E1C03E0206880688006D7D5002EF9D020
:100AD000FFF7BAFD15B1C01BA842F3D9042060642A
:100AE000A06C40F00100A0640120E4E700000000D9
:100AF0002DE9F047B8B0044602A8C0210025CDE991
:100B00003655CDE934553395FFF74CFC45F20001DD
:100B10002068C5F20021884202D038B0BDE8F087D5
:100B20004FF00070029002A80395159500F064F94B
:100B300008B1FFF7A5FC44F2E04040F20044C5F6DE
:100B40000200C5F6020433AD4FF0040950F80C1C46
:100B50004FF0020841F4804140F80C1C50F80C1C86
:100B60004FF0000A01F4804101910199016841F0C0
:100B7000100101600168032601F010010191019943
:100B8000016841F0020101600168092701F00201DA
:100B900001910199016841F008010160006829464E
:100BA00000F008000190019804F54060CDF8CC9069
:100BB000CDF8D080CDF8D4A036963797FFF768FCF3
:100BC00020462946CDE93398CDE935A63797FFF77A
:100BD0005FFC33A94FF46050CDE9366781E8010529
:100BE00004F500602946FFF753FC33A940203696F0
:100BF00081E801050A20379020462946FFF748FC86
:100C000038B0BDE8F08700002DE9F04381B015460B
:100C100088460446FFF718FDD4F80090D9F818105C
:100C2000226C012A03D1022001B0BDE8F083064600
:100C300001202064606C01283FD1B8F1000F4FF013
:100C40000000A0643BD022206064D9F8100001228B
:100C50000130A063D9F8100001306063C4F830801F
:100C6000D9F8140062F39B60C9F81400C9F8181091
:100C7000A06B50B36F1C0BE099F82000216B08703B
:100C8000206BA16B01302063481EA063A06BE0B114
:100C90002068806810F0060FEED1002FF8D0FFF723
:100CA000D3FC15B1801BA842F2D904206064A06C6B
:100CB00040F00100A064012020E0022020E0A06CB0
:100CC00040F00800A06401201AE0206880688007D6
:100CD00010D46F1C04E000BF20688068800709D42E
:100CE000002FF9D0FFF7B0FC002DDED0801BA8420A
:100CF000F2D9DAE720680221C16000200121616495
:100D00000021216401B0BDE8F08300000000000074
:100D10002DE9F04115460F460446FFF795FCD4F83F
:100D20000080216C012902D10220BDE8F081064635
:100D300001202064606C012838D14FF00000A064CD
:100D4000B7B312206064D8F810000130E062D8F820
:100D500010000130A0626762D8F8140020F04060F3
:100D6000C8F81400E06A48B36F1C0BE0606A0078B2
:100D700088F82000606AE16A01306062481EE06223
:100D8000E06AD8B1206880684007EFD4002FF9D01E
:100D9000FFF75AFC15B1801BA842F3D90420606408
:100DA000A06C40F00100A06401201FE002201FE0C1
:100DB000A06C40F00800A064012019E02068806861
:100DC00080070FD46F1C03E020688068800709D477
:100DD000002FF9D0FFF738FC002DDFD0801BA84290
:100DE000F2D9DBE720680221C160002001216164A3
:100DF00000212164BDE8F0812DE9F04381B0044673
:100E0000C07844F22C480007C5F6020828D5A06E29
:100E10004FEA305003283AD80026DFE800F0020AF3
:100E20001218D8F8000040F40030C8F80000C6B925
:100E30000EE004F10800022101F0FEFA064686B930
:100E400006E004F12800022101F086FB064646B9BF
:100E5000D8F82400A16E20F440100843C8F82400FC
:100E600000266078C00701D135462EE0A06D042829
:100E70001FD83546DFE800F003160F1E1E00D8F815
:100E80000000354640F40030C8F8000012E00126AA
:100E9000002EE6D1DCE704F12800002101F05CFB24
:100EA000054607E004F10800002101F0C5FA0546F7
:100EB00000E001252F464DB9D8F82400A16D20F09F
:100EC000070000250843C8F82400374660788007EB
:100ED0002AD5E06D4FEAB010042819D8DFE800F0F9
:100EE00003110A191900D8F8000040F40030C8F8BE
:100EF00000000EE004F12800002101F02DFB054662
:100F000007E004F10800002101F096FA054600E030
:100F100001252E464DB9D8F82400E16D20F4E0708B
:100F200000250843C8F824003E46607840072CD5C9
:100F3000D4F8A8004FEA7050042819D8DFE800F070
:100F400003110A191900D8F8000040F40030C8F85D
:100F500000000EE004F12800002101F0FDFA054632
:100F600007E004F10800002101F066FA054600E000
:100F70000125A94655B9D8F82C00D4F8A81020F4BA
:100F8000600000250843C8F82C00B14660780007CF
:100F90002CD5D4F8AC004FEA3060042819D8DFE82B
:100FA00000F003110A191900D8F8000040F40030CD
:100FB000C8F800000EE004F12800002101F0CCFA8E
:100FC000054607E004F10800002101F035FA054666
:100FD00000E001252F4655B9D8F82C00D4F8AC1004
:100FE00020F0E06000250843C8F82C004F46E07868
:100FF000800722D5E06C4FEA3010032811D8DFE8D3
:1010000000F011020911D8F8000040F40030C8F8CF
:10101000000007E004F10800022101F00DFA054686
:1010200000E001252E464DB9D8F82000E16C20F0F3
:10103000300000250843C8F820003E466078C0060E
:101040002AD5206E4FEA3030042819D8DFE800F0A6
:1010500003110A191900D8F8000040F40030C8F84C
:1010600000000EE004F12800002101F075FA0546A9
:1010700007E004F10800002101F0DEF9054600E078
:1010800001252F464DB9D8F82400216E20F4E04008
:1010900000250843C8F8240037466078800615D537
:1010A000606E4FEA3040052800F2D580DFE800F09E
:1010B00003D7C50303032E464DB9D8F82400616E4B
:1010C00020F4E02000250843C8F824003E4660785C
:1010D000400617D5D4F8B0004FEA3070052800F26A
:1010E000BC80DFE800F003C3B10303032F4655B90A
:1010F000D8F82C00D4F8B01020F0E04000250843C8
:10110000C8F82C0037466078000621D5206FA0B1C2
:10111000B0F1005F09D0B0F1805F0DD1D8F80000C8
:1011200040F40030C8F8000007E004F10800012195
:1011300001F082F9054600E001252E464DB9D8F8A8
:101140002400216F20F0405000250843C8F82400F7
:101150003E46E078C00720D0A06C032811D8DFE815
:1011600000F011020911D8F8000040F40030C8F86E
:10117000000007E004F10800022101F05DF90546D6
:1011800000E00125A9464DB9D8F82000A16C20F057
:10119000030000250843C8F82000B146A0784006A7
:1011A00001D44E468AE0D8F8D40340F48070C8F8E1
:1011B000D403FFF749FA0646D8F8D403C00505D48E
:1011C000FFF742FA801B6528F6D30325002D2E4633
:1011D00074D1D8F84410D4F8B400414011F4407FE1
:1011E00011D0D8F84410D8F8442042F48032C8F81E
:1011F0004420D8F8442021F4407122F48032C8F809
:101200004420C8F84410B0F5807F13D1FFF71CFAD2
:10121000054641F2893700BFD8F8440010F0020FAC
:10122000C0F3400629D1FFF70FFA401BB842F3D3B1
:10123000032523E00025012620E004F128000121F8
:1012400001F08AF9054636E704F12800012101F092
:1012500083F905464AE701252DE7012546E704F114
:101260000800012101F0E8F8054624E704F1080030
:10127000012101F0E1F8054638E70025002E2E4651
:101280001CD04FF6CF73D4F8B40058F81C2CC0F221
:10129000FF0300F4407122F47C5203EA1013B1F50D
:1012A000407F08BF1A436FF31F30002548F81C2CFD
:1012B000D8F844100843C8F8440072E72078C00703
:1012C00018D0E06F4FEAF000052800F24982DFE80D
:1012D00010F0060053021D020600060006002F460D
:1012E0004DB9D8F82800E16F20F0380000250843F8
:1012F000C8F8280037462078800716D5A06F052843
:1013000000F23082DFE810F006003F02090206001A
:10131000060006002E464DB9D8F82800A16F20F02F
:10132000070000250843C8F828003E4620784007FB
:1013300018D5D4F89400052800F21682DFE810F0E2
:1013400006002A02F401060006000600A94655B967
:10135000D8F82C00D4F8941020F00700002508439A
:10136000C8F82C00B146207880061AD5D4F8900031
:101370004FEA3070052800F2F981DFE810F006002E
:101380001202DC010600060006002F4655B9D8F807
:101390002800D4F8901020F0E04000250843C8F859
:1013A00028004F46207840061AD5D4F89C004FEA12
:1013B000B020052800F2DC81DFE810F00600FA0119
:1013C000C4010600060006002E4655B9D8F82C00C8
:1013D000D4F89C1020F4E05000250843C8F82C00F5
:1013E0003E46207800061AD5D4F8A0004FEA7030A7
:1013F000052800F2BF81DFE810F00600E201AC0131
:101400000600060006002F4655B9D8F82C00D4F87F
:10141000A01020F4604000250843C8F82C0037468F
:101420002078000715D5D4F88400B0F5805F07D187
:1014300004F12800022101F08FF8002818BF0127CD
:10144000D8F82800D4F8841020F440500843C8F895
:1014500028002078C00615D5D4F89800B0F5807F14
:1014600007D104F12800022101F076F8002818BF06
:101470000127D8F82C00D4F8981020F440700843C5
:10148000C8F82C00A078000723D5D4F8A400B0F544
:10149000003F12D0B0F5803F07D068B904F10800D2
:1014A000002100F0C9FF054607E004F128000221F1
:1014B00001F052F8054600E001252E4655B9D8F84E
:1014C0002C00D4F8A41020F4403000250843C8F8BC
:1014D0002C003E46A078400725D5D4F88800B0F50A
:1014E000401F14D0B0F5001F09D0B0F5801F0DD1FA
:1014F000D8F8000040F40030C8F8000007E004F11C
:101500002800012101F028F8054600E001252F46BA
:1015100055B9D8F82800D4F8881020F440100025D8
:101520000843C8F828003746A078C0071ED0206DB1
:10153000B0F5803F07D068B9D8F8000040F400301B
:10154000C8F8000007E004F10800022100F074FF71
:10155000054600E001252E464DB9D8F82000216D42
:1015600020F4803000250843C8F820003E46E0788B
:10157000800607D504F12800022100F0EDFF0028C5
:1015800018BF0126D4E900108A0374D5D4F880204E
:101590006FF0010303EB3223022B0AD34FEA32230D
:1015A0003BB1012B5DD1D8F8003043F40033C8F8CB
:1015B0000030002D58D0CA0260D4CA0068D48A0214
:1015C00071D44A007AD4CA0F40F08880090200F131
:1015D0009080C00707D004F10800002100F02CFF24
:1015E000002818BF05462079800707D504F10800B8
:1015F000012100F021FF002818BF0546207940078F
:1016000007D504F10800022100F016FF002818BFDA
:1016100005462079000707D504F12800002100F0D5
:101620009BFF002818BF05462079C00607D504F1A6
:101630002800012100F090FF002818BF05462079FE
:10164000800607D504F12800022100F085FF00285C
:1016500018BF0125002D18BF0125284601B0BDE89F
:10166000F0830125002DA6D1D8F8283023F440734B
:101670001A43C8F828203546CA029ED5D8F8242037
:10168000636F22F000421A43C8F82420CA0096D59E
:1016900058F81C2CD4F8B83022F480421A4348F889
:1016A0001C2C8A028DD5D8F82420E36E22F080729B
:1016B0001A43C8F824204A007FF585AF58F81C2C3F
:1016C00022F4004248F81C2CD4F8BC2058F81C3CEA
:1016D0001A4348F81C2CCA0F3FF478AFD8F82020E2
:1016E000636D22F040521A43C8F8202009027FF5AA
:1016F00070AFD8F82810D4F88C2021F440011143A1
:10170000C8F82810C0077FF466AF6CE704F1280022
:10171000012100F021FF0546E1E504F12800012147
:1017200000F01AFF0546F5E504F12800012100F05C
:1017300013FF05460AE604F12800022100F00CFF21
:10174000054622E604F12800022100F005FF0546C7
:101750003AE604F12800022100F0FEFE054652E6BA
:101760000125BCE50125D5E50125EFE501250CE6C0
:10177000012529E6012546E604F10800012100F0D3
:101780005BFE0546ABE504F10800012100F054FEC4
:101790000546BFE504F10800012100F04DFE0546B5
:1017A000D4E504F10800002100F046FE0546ECE512
:1017B00004F10800002100F03FFE054604E604F1B4
:1017C0000800002100F038FE05461CE6000000007D
:1017D0002DE9F04381B0002800F0F88042F20008C3
:1017E0000446C5F200288946D8F8000000F00F0032
:1017F00088420ED2D8F8000020F00F0040EA09001D
:10180000C8F80000D8F8000000F00F00484540F08C
:10181000DD80206844F218474107C5F602070AD563
:1018200021693A6802F07002914204D93A6822F0C4
:1018300070021143396001070AD561697A6802F0C4
:101840007002914204D97A6822F0700211437960E3
:10185000C1060AD5A1697A6802F4E062914204D90E
:101860007A6822F4E0621143796081060AD5E16961
:10187000BA6802F07002914204D9BA6822F070028C
:101880001143B96081070AD5E1683A6802F00F0296
:10189000914204D93A6822F00F0211433960C0071F
:1018A00040F08080206881070AD5E1683A6802F03C
:1018B0000F02914204D23A6822F00F0211433960BC
:1018C000D8F8001001F00F0149450DD9D8F80010E3
:1018D00021F00F0141EA0901C8F80010D8F8001002
:1018E00001F00F01494571D141070AD521693A68D4
:1018F00002F07002914204D23A6822F07002114361
:10190000396001070AD561697A6802F07002914274
:1019100004D27A6822F0700211437960C1060AD5B8
:10192000A1697A6802F4E062914204D27A6822F4F2
:10193000E0621143796080060AD5E069B96801F078
:101940007001884204D2B96821F070010843B86080
:1019500000F066F8396842F68C52C0F60002C1F316
:101960000321515C3B6803F00F0301F01F01D25CBF
:1019700020FA01F102F01F0040F20402C2F200421C
:1019800021FA00F0106040F20C0040F20002C2F2B6
:101990000040C2F200420068116001B0BDE8F043AF
:1019A000FEF79EBE386820F47061D4E9010211434D
:1019B0003960012857F8181C0CD0032804D00228DD
:1019C00028D1890302D507E0890105D4012001B09F
:1019D000BDE8F083C905F9D557F8081C21F00701C7
:1019E000084347F8080CFEF72FFE064641F28835FB
:1019F00057F8080C616800F03800B0EBC10F3FF4F5
:101A000051AFFEF721FE801BA842F1D9032001B09F
:101A1000BDE8F0834907D9D5DEE7000000000000EB
:101A200044F20041C5F602010869C0F3C200032870
:101A300014D002280DD080BB0868800649F200004F
:101A4000C0F2D03058BF70470968C1F3C101C84027
:101A5000704747F64000C0F27D1070478A6A886A76
:101A6000C0F3051CC86ABCF1000F4B6B1AD000F024
:101A70000100404200EAD3006FF35F3000EE100A2D
:101A800002F003000228B8EE400A0DD078B90868C9
:101A900080060FD49FED231A19E040F60010C0F223
:101AA0003D007047002070479FED1D1A0FE09FED2D
:101AB0001B1A0CE0086849F20002C0F2D032C0F3F1
:101AC000C10022FA00F001EE100AB8EE411A086BCC
:101AD0009FED153A6FF35F2002EE100A086BC0F31A
:101AE0004620B8EE422A013000EE032A00EE10CA6A
:101AF000B7EE003AB8EE400A81EE000A32EE031A61
:101B000020EE010A01EE100AB8EE411A80EE010A39
:101B1000BCEEC00A10EE100A704700BF0024744AE1
:101B200020BCBE4B0024744C0000003900000000B3
:101B30002DE9F04381B0002800F0C781804600788D
:101B400044F20049C007C5F6020954D0D9F8100084
:101B500000F03801D9F82800102905D018290CD137
:101B600000F00300022808D1D9F8000080033ED518
:101B7000D8F80400D8BB01252CE0D8F80440D9F8E7
:101B800000002CB1B4F5A02F0BD0B4F5803F0ED0DF
:101B900020F48030C9F80000D9F8000020F480203B
:101BA00007E040F48020C9F80000D9F8000040F4B4
:101BB0008030C9F80000FEF747FD05469CB100BF24
:101BC000D9F80000800312D4FEF73EFD401B6428C4
:101BD000F6D90325002070B9BCE100BFFEF734FD43
:101BE000401B6428F5D8D9F800008003F6D4012002
:101BF000002800F0AF8198F80000800740F1808055
:101C0000D9F8100010F03801D9F828001CD0182994
:101C100008BF5FEA807017D0D8F80C00D9F8001020
:101C2000002845D021F019010843C9F80000FEF74B
:101C30000BFD0646D9F80000400728D4FEF704FD46
:101C4000801B0228F6D91EE0D9F80000400704D511
:101C5000D8F80C00002800F0DC81D9F80000D8F892
:101C60000C1020F019000843C9F80000FEF7ECFC46
:101C7000064600BFD9F80000400708D4FEF7E4FC90
:101C8000801B0228F6D903250024CCBB62E1FEF7B5
:101C9000D3FC41F20301884221D8D8F81000D9F8CA
:101CA0000410402821F47C3122D141F4003021E09D
:101CB00021F00100C9F80000FEF7C6FC0646012726
:101CC000D9F8000010F0040087EA900415D0FEF760
:101CD000BBFC801B0228F3D903258CB93AE1D9F863
:101CE0000400D8F8101020F0FE4040EA016001E046
:101CF00041EA00300124C9F80400002C00F02A81D8
:101D000098F80000C00670D5D9F8100000F038012E
:101D1000D9F82800082905D018291CD100F00300A3
:101D2000012818D1D9F80000C00503D5D8F81C0047
:101D3000802855D1FEF780FC41F20301884222D869
:101D4000D8F82000D9F80410202821F0F8413ED11D
:101D500041F080403DE0D8F81C000028D9F8000090
:101D60001ED040F08000C9F80000FEF76DFC06466A
:101D7000D9F80000C005DDD4FEF766FC801B022800
:101D8000F6D903252DE0D9F80C00D8F8201020F062
:101D90007C50012440EA0160C9F80C002CBBD9E05A
:101DA00020F08000C9F80000FEF74EFC064601272F
:101DB000D9F8000010F4807087EA10240CD0FEF7E8
:101DC00043FC801B0328F3D3032574B9C2E041EA26
:101DD0008060C9F804000124002C00F0BB8004E0FE
:101DE00001250024002C00F0B58098F800000007C1
:101DF0006DD498F80000800600F1818098F800000A
:101E0000400700F19480D8F82440002C5BD0D9F82A
:101E1000100000F03800182840F0D980012CD9F8C3
:101E20002810D9F8300050D001F00302D8F828303B
:101E30009A424AD1C1F30511D8F82C20914244D1DD
:101E40000146D8F830206FF35F21013A91423CD12E
:101E5000C0F34622D8F8341001398A4235D1C0F394
:101E60000642D8F8381001398A422ED1C0F30660F4
:101E7000D8F83C100139884227D1D9F83400D8F875
:101E80004810C0F3CC0081421DD0D9F82C0020F0BE
:101E90000100C9F82C00FEF7D7FB0546FEF7D4FB7E
:101EA000A842FBD0D9F834004FF6F871D8F8482092
:101EB000884340EAC200C9F83400D9F82C0040F049
:101EC0000100C9F82C00002544E0012542E0D8F8C3
:101ED00014000028D9F8740040D040F00100C9F87F
:101EE0007400FEF7B1FB0546D9F8740080073FF592
:101EF00080AFFEF7A9FB401B0228F5D929E0D8F8EE
:101F000018000028D9F800004DD040F48050C9F8DE
:101F10000000FEF799FB0546D9F8000080043FF564
:101F20006DAFFEF791FB401B0228F5D911E0D9F8FF
:101F3000000440F48070C9F80004FEF785FB0546F4
:101F4000D9F80004C0051CD4FEF77EFB401B6428B2
:101F5000F6D90325284601B0BDE8F08320F0010042
:101F6000C9F87400FEF770FB06460325D9F8740023
:101F700080077FF53EAFFEF767FB801B0228F5D98F
:101F8000E8E7D8F80840D9F870001CB1052C42D019
:101F9000012C46D020F00100C9F87000D9F870007B
:101FA00020F004003FE020F48050C9F80000FEF764
:101FB0004BFB0646032500BFD9F8000080047FF5DF
:101FC0001DAFFEF741FB801B0228F5D9C2E7D9F807
:101FD000000020F08070C9F80000FEF735FB022CED
:101FE00006464FF0030509D1D9F8000080013CD521
:101FF000FEF72AFB801B0228F6D9ABE7D9F80000D0
:1020000080017FF560AFFEF71FFB801B0228F5D92A
:10201000A0E7012538E640F00400C9F87000D9F8BF
:10202000700040F00100C9F87000FEF70DFB002CB5
:10203000064641F288344FF0030511D0D9F87000FC
:1020400080073FF5E0AEFEF7FFFA801BA042F5D90E
:1020500080E700BFFEF7F8FA801BA0423FF67AAF98
:10206000D9F870008007F5D4CDE608F12807D9F833
:10207000280040F2F33188438ECF0843591E40EACE
:1020800002104FF47E426FF35F21C9F8280002EB83
:1020900047204FF4FE0280B2D8F83C300844D8F80C
:1020A000381002EB01414FF0FE4201F4FE0102EB59
:1020B0000362084402F0FE410844C9F83000D9F830
:1020C0002C004FF6F87120F00100C9F82C00D9F867
:1020D0003400D8F84820884340EAC200C9F83400E8
:1020E000D9F82C00D8F8401020F00C000843C9F8AB
:1020F0002C00D9F82C00D8F8441020F00200084336
:10210000C9F82C00D9F82C0040F48030C9F82C0014
:10211000D9F82C0040F40030C9F82C00D9F82C0074
:1021200040F48020C9F82C00D9F82C0040F00100C0
:10213000C9F82C00D9F8000040F08070C9F8000000
:10214000FEF782FA04460325D9F8000080013FF526
:10215000BAAEFEF779FA001B0228F5D9FAE60000BC
:10216000411E0020B0EB116F01D0012070474EF2EC
:102170001002F023CEF2000251604EF62351CEF24F
:1021800000010B7007219060116070470000000093
:10219000FEE700000000000081B044F2E040C5F618
:1021A0000200016841F010010160016801F01001B6
:1021B00000910099016841F080010160016801F01F
:1021C000800100910099016841F0020101600168FD
:1021D00001F0020100910099016841F008010160DD
:1021E000016801F0080100910099016841F00101C6
:1021F0000160006800F001000090009801B0704795
:1022000080B540F2740045F20001C2F20040C5F210
:102210000021016002214160042181601021C16020
:10222000162101614FF4807141610021C0E906115E
:102230000162FEF79DFB002808BF80BDBDE880401D
:10224000FEF71EB900000000FEE7000000000000DD
:10225000FEE70000000000007047000000000000E2
:102260002DE9F04FD1F824C0B2F1406F18BFBCF196
:10227000000F03D003688F6A013F1F61D1F818E097
:10228000BEF1000F0B6A34D0002B60D0D0F8009064
:102290008868D1E90487CC69C9F81C00D1E90BB57D
:1022A000002C486B4FEA87476AD0D1F800A0CE686F
:1022B00046EA0A06B2F1406F45EA060545EA0B0513
:1022C00040EA050040EA070040EA080040EA020050
:1022D00040EA0C0040EA0E0040EA030040EA040035
:1022E000C9F8140000F0A5804868C9F81800BDE8D6
:1022F000F08F002B56D0D0F800808868D1E904E434
:10230000CD69C8F81C00D1E90B96002D486B4FEA47
:10231000844461D0CF68B2F1406F46EA070646EACE
:10232000090640EA060040EA040040EA0E0040EADE
:10233000020040EA0C0040EA030040EA0500C8F849
:10234000140076D04868C8F81800BDE8F08F4D69D1
:10235000CB69AD04D1E90B96002B4F6B4AD0D1F875
:102360000080CC6844EA08040068344344EA090465
:102370003C432C43144344EA0C0747EA0E0721E090
:102380000968294341EA0B010843384340EA080041
:10239000104340EA0C0040EA0E001843C9F814004C
:1023A000BDE8F08FCB6993B3D1E90B654F692E433C
:1023B0004C6B00682643CD6846EA87472F43174396
:1023C00047EA0C07B2F1406F47EA0302426130D09E
:1023D00049688161BDE8F08F49EA0601084320435E
:1023E00040EA0E00104340EA0C001843C8F81400FD
:1023F000BDE8F08F09680068314341EA09013943BB
:102400002943114341EA0C0141EA0E0110E0BCF1FD
:10241000000F08BFBDE8F08FD1E90B764B69374359
:10242000496B0068394341EA8341114341EA0C0199
:102430004161BDE8F08F0000F0B581B044F22C4757
:10244000C5F6020757F8042C02F00302032A02D152
:10245000012001B0F0BD054657F82C0C0C4620F0C9
:10246000806047F82C0CFEF7EFF8064657F82C0C66
:10247000000105D5FEF7E8F8801B0228F6D964E0D4
:1024800057F8040CEE6895E80E0020F47C30012C1F
:1024900040EA0130A2F101016FF35F214FF47E4267
:1024A00002EB432247F8040C92B24FF0FE4302EBDA
:1024B00001004FF4FE012A6901EB064101F4FE011F
:1024C00003EB0262084402F0FE410844F8603868F9
:1024D000696920F0C00040EA010038603868A969E5
:1024E00020F0200040EA0100386038684FF6F871AB
:1024F00020F0100038603869EA6920EA01004FF4E2
:10250000001140EAC2003861386808BF4FF48011FA
:1025100040F01000002C386008BF4FF400213868EC
:102520000843386057F82C0C40F0806047F82C0CBA
:10253000FEF78AF8044600BF57F82C0C000107D4B8
:10254000FEF782F8001B0328F6D3032001B0F0BD8C
:10255000002001B0F0BD0000F0B581B044F22C477E
:10256000C5F6020757F8042C02F00302032A02D131
:10257000012001B0F0BD054657F82C0C0C4620F0A8
:10258000805047F82C0CFEF75FF8064657F82C0CE5
:10259000800005D5FEF758F8801B0228F6D964E0C4
:1025A00057F8040CEE6895E80E0020F07C70012CC2
:1025B00040EA0150A2F101016FF35F214FF47E4226
:1025C00002EB432247F8040C92B24FF0FE4302EBB9
:1025D00001004FF4FE012A6901EB064101F4FE01FE
:1025E00003EB0262084402F0FE4108447861386857
:1025F000696920F4406040EA010038603868A969E0
:1026000020F4007040EA0100386038684FF6F87135
:1026100020F480703860B869EA6920EA01004FF060
:10262000807140EAC200B861386808BF4FF4000109
:1026300040F48070002C386008BF4FF48001386887
:102640000843386057F82C0C40F0805047F82C0CA9
:10265000FDF7FAFF044600BF57F82C0C800007D4A2
:10266000FDF7F2FF001B0328F6D3032001B0F0BDF5
:10267000002001B0F0BD0000704700000000000025
:10268000FDF7EABF0000000070B59CB044F61804E6
:1026900040F22C4509A84C21C5F60204C5F60005F8
:1026A000FDF780FE02200026CDE90766CDE905662C
:1026B000CDE90366CDE90166FEF7DEF800962868ED
:1026C00020F001002860286800F0010000902068D8
:1026D00040F440402060206800F4404000900098A2
:1026E00020688004FCD54FF6DC40CFF6FF702158FF
:1026F00041F002012150205800F0020000900098A3
:1027000000200090206840F440402060206800F4E1
:1027100040400090286840F001002860286800F0E0
:1027200001000090009800BF20688004FCD50120C3
:1027300009904FF480300A9002200521CDE9120063
:102740001491C021CDE91510CDE9170009A808247E
:1027500019940025CDE91A55FFF7EAF918B1EFF3FE
:10276000108072B6FEE73F20019003204FF4806195
:10277000CDE9020540200494CDE90500CDE907101C
:1027800001A80421FFF724F818B1EFF3108072B606
:10279000FEE71CB070BD000080B54EF6885C42F2CA
:1027A000000ECEF2000CC5F2002EDCF8001041F451
:1027B0007001CCF80010DEF8001001F00F010629BE
:1027C00006D8DEF80010072262F30301CEF80010ED
:1027D00044F200414EF67F53C5F60201CEF6F623D1
:1027E0000A6842F001020A6000220A610868184083
:1027F0000860DEF80000000706D5DEF800000723B9
:1028000063F30300CEF8000040F200208A61CA6141
:10281000C0F202200A6288620020C0F2FF10C86283
:1028200040F28020C0F2011008634A638863CA63E3
:1028300008644A64086820F48020086041F20000BF
:102840000A66C5F600400068B2EB507F05D148F239
:1028500008100121C5F20010016044F2000043F2AB
:10286000D201C5F2002001604FF000604CF8800CEE
:1028700080BD000000000000FEE700000000000036
:10288000B0B54EF61454CEF2000400F041F900F059
:10289000DFF9BFF34F8FBFF36F8F206843F6E07C03
:1028A00020F4003020600020C4F83C02BFF34F8FBA
:1028B000BFF36F8F2067BFF34F8F206820F4803005
:1028C0002060BFF34F8FE16ECA08C1F34E30C1F3F1
:1028D000C90101F1010E9207430100BF03EA0C0197
:1028E00075461144013DC4F8601201F14041F9D12F
:1028F0000028A0F10100A3F12003EFD14EF2100057
:102900000021CEF200004FF01042BFF34F8FBFF313
:102910006F8F0160042040F27001C9F20000C2F222
:10292000004100680860106880F308880868BDE806
:10293000B0400047000000002DE9F0419EB040F299
:10294000C8084FF44072C2F2004800218DF804100C
:1029500098F8000000284FF0407008BF4FF48072D4
:1029600008BF4FF08070CDE9162119904FF4005048
:1029700013900120CDE91A013520109040F2740027
:1029800011911891C2F2004012916422CDE9141104
:10299000CDE91C1110A9FDF793FF38B940F274007E
:1029A00001A9C2F200406422FEF72EF99DF804004E
:1029B0008DF83F00810754D498F8000040F2740469
:1029C000C2F2004410A900284FF4407008BF4FF431
:1029D00080706422002516900620109020461795DE
:1029E0004FF40057CDE91375CDE9115515954FF406
:1029F0004076CDE91855CDE91A551C951D95FDF782
:102A00005FFF9DF83F0098F80010642240F002003C
:102A10008DF83F008DF804004FF04070002910A998
:102A200008BF4FF4807608BF4FF08070CDE916657F
:102A300019900120CDE91A051090204613971195A1
:102A400018951295CDE91455CDE91C55FDF738FFC1
:102A500038B940F2740001A9C2F200406422FEF7C6
:102A600057F940F2740401ADC2F200444FF4807093
:102A700007903820019064222046294600270897B5
:102A80004FF400560697CDE90467CDE90277CDE90A
:102A90000977CDE90B77CDE90D77FDF711FF01201F
:102AA00088F800004FF440710791C02201924FF066
:102AB00040721691CDE90A2030208DF83F000620A3
:102AC00010A9CDE9100764222046CDE91276CDE9A0
:102AD0001477CDE91777CDE91977CDE91B771D97E5
:102AE000FDF7EEFE642220462946FDF7E9FE10B10F
:102AF0001EB0BDE8F08140F274000DF13F01C2F25A
:102B000000406422FEF704F91EB0BDE8F081000029
:102B100010B58EB04FF440700690FF200090002456
:102B20004FF40050CDE9030440F274006946C2F24C
:102B3000004064220794CDE901440594CDE908449E
:102B4000CDE90A44CDE90C44FDF7BAFE40F2C800D5
:102B5000C2F20040047000F007F8FFF7EDFE0EB07F
:102B600010BD0000000000002DE9F04F9DB040F2C4
:102B7000C8094FF44071C2F2004940F274040026C3
:102B80004FF4005A99F800004FF0010B0527C2F2EC
:102B9000004400280EAD08BF4FF480710DF173089A
:102BA0006620069100900796CDE903A6CDE901665F
:102BB0000596CDE90866CDE90A66CDE90C6603E025
:102BC0009DF87300C00729D099F800004FF04071BC
:102BD0008DF87360642200284FF4407008BF4FF4F2
:102BE000807008BF4FF08071CDE91406CDE9166101
:102BF00020462946CDE9106ACDE91266CDE918B61E
:102C0000CDE91A66CDE90E76FDF75AFE0028D7D138
:102C1000642220464146FDF7F7FFD1E740F27400F9
:102C20006946C2F200406422FDF74AFE10B11DB0B1
:102C3000BDE8F08F9920009040F274006946C2F21E
:102C400000406422FDF73CFE1DB0BDE8F08F00009F
:102C500080B590B04FF440700890EB2002904FF494
:102C6000406009904FF40050059000200A90CDE993
:102C70000D000F904FF04071CDE9000040F274005C
:102C80000B9108210791C2F2004002A96A46FDF7A4
:102C9000D7FE10B080BD000084B04EF6145400255D
:102CA0000395CEF20004CDE901550095FDF774FDC2
:102CB0000120ADF800004FF0404001901820C0F214
:102CC000003002904FF4803003906846FDF734FDE9
:102CD0000420FDF771FD2068800311D4BFF34F8FEE
:102CE000BFF36F8FC4F83C52BFF34F8FBFF36F8FAA
:102CF000206840F400302060BFF34F8FBFF36F8F28
:102D00002068C0032AD400202067BFF34F8FE16EF4
:102D100043F6E07CCA08C1F34E30C1F3C90101F1AA
:102D2000010E9207430100BF03EA0C0155187146DA
:102D30000139C4F84C5205F14045F9D10028A0F101
:102D40000100A3F12003EFD1BFF34F8F206840F4BF
:102D500080302060BFF34F8FBFF36F8FFDF78CFC87
:102D6000FFF792FCFFF718FAFFF74AFAFFF788FD22
:102D7000FEE7F1EE100A4FF6FF71C0F2C03120EA13
:102D8000010040F04070E1EE100A704700000000C2
:102D9000010203040102030406070809C02D00080C
:102DA0000000002410000000FC020008D02D0008E4
:102DB00010000024C00600001C03000800000000F2
:102DC0000090D0030090D00301000000100000002C
:040000050800029954
:00000001FF
