:020000040800F2
:10000000D006002439030008991E0008D91D0008F5
:10001000911E00084104000861260008000000004D
:10002000000000000000000000000000692400083B
:100030004904000800000000D11E0008A1240008A7
:100040005303000853030008530300085303000838
:100050005303000853030008530300085303000828
:100060005303000853030008530300085303000818
:100070005303000853030008530300085303000808
:1000800053030008530300085303000853030008F8
:1000900053030008530300085303000853030008E8
:1000A00053030008530300085303000853030008D8
:1000B00053030008530300085303000853030008C8
:1000C00053030008530300085303000853030008B8
:1000D00053030008530300085303000853030008A8
:1000E00053030008530300080000000053030008F6
:1000F0005303000853030008530300085303000888
:100100005303000853030008530300085303000877
:100110005303000853030008530300085303000867
:100120005303000853030008530300085303000857
:100130005303000853030008530300085303000847
:1001400000000000000000000000000000000000AF
:100150005303000853030008530300085303000827
:100160005303000853030008530300085303000817
:100170005303000853030008530300085303000807
:1001800053030008530300085303000853030008F7
:1001900053030008530300085303000853030008E7
:1001A00053030008530300085303000853030008D7
:1001B00053030008530300085303000853030008C7
:1001C00053030008530300085303000853030008B7
:1001D00053030008530300085303000853030008A7
:1001E0005303000853030008530300085303000897
:1001F0005303000853030008530300085303000887
:100200005303000853030008530300085303000876
:100210005303000853030008530300085303000866
:1002200053030008530300085303000800000000B4
:1002300053030008530300080000000053030008A4
:100240005303000853030008530300085303000836
:100250005303000853030008530300085303000826
:100260005303000853030008530300085303000816
:100270005303000853030008530300080000000064
:100280005303000853030008530300080000000054
:10029000000000005303000800F002F800F03CF8F2
:1002A0000AA090E8000C82448344AAF10107DA45D1
:1002B00001D100F031F8AFF2090EBAE80F0013F0E7
:1002C000010F18BFFB1A43F001031847E427000091
:1002D00004280000103A24BF78C878C1FAD8520721
:1002E00024BF30C830C144BF04680C6070470000B0
:1002F0000023002400250026103A28BF78C1FBD82F
:10030000520728BF30C148BF0B6070471FB502F0CD
:10031000BAFB1FBD10B510BD00F058F81146FFF72D
:10032000F5FF02F0A1FB00F076F803B4FFF7F2FF4F
:1003300003BC00F07DF800000948804709480047E9
:10034000FEE7FEE7FEE7FEE7FEE7FEE7FEE7FEE785
:10035000FEE7FEE704480549054A064B70470000E2
:100360008125000899020008D0000024D00600244E
:10037000D0020024D00200244FF0000200B5134642
:1003800094469646203922BFA0E80C50A0E80C50B5
:10039000B1F12001BFF4F7AF090728BFA0E80C5066
:1003A00048BF0CC05DF804EB890028BF40F8042B5F
:1003B00008BF704748BF20F8022B11F0804F18BFCC
:1003C00000F8012B7047704770477047754600F082
:1003D0002BF8AE4605006946534620F007008546D7
:1003E00018B020B5FFF7B6FFBDE820404FF000067B
:1003F0004FF000074FF000084FF0000BAC46ACE8A0
:10040000C009ACE8C009ACE8C009ACE8C00921F0FB
:1004100007018D46704710B50446AFF300802046B3
:10042000BDE81040FFF781BF00487047100000246E
:1004300001491820ABBEFEE726000200704700000D
:10044000FEE7000000000000704700000000000010
:10045000EFF3108072B600BFFEE70000000000005E
:100460002DE9F04F83B00E68002E00F0C98000F136
:1004700026420A2302F1FF7240F2040C4FEAB22234
:10048000019242F20042C5F6000CC5F602024FF09E
:10049000010B90424FF0000508BF092300274FF0E1
:1004A000010800930AE000BF0E68043736FA08F22C
:1004B00008F1010805F1020500F0A280A8F1010A87
:1004C0000BFA0AF216EA0209EED04E68122E17D87D
:1004D0000BFA06F414F0061F12D00323D0F808E03C
:1004E000AB40CC682EEA0303AC4023438360C6F3E1
:1004F0000014436823EA020204FA0AF31A43426032
:100500000323C268AB4046F010046FEA030E9A431F
:100510008B68122C03FA05F342EA0302C26012D17F
:100520006FF0030207F01C0402EA5A020F2602448D
:10053000A640136AD1F810B0B3430BFA04F44FF09D
:10054000010B2343136202684B6803F0030402EAC1
:100550000E02AC40DB0042EA04020260A4D544F281
:10056000F443C5F602031A6842F002021A601A68E0
:1005700007F00C0302F002020292029A2AF0030230
:1005800040F2084A019C009EC5F6000A092C38BFBB
:1005900026460F2452F80AE09C402EEA040406FA8C
:1005A00003F3234342F80A30DCF87C204B6842EA2C
:1005B0000906DC0358BF22EA09069C034FF0B04E3F
:1005C000CCF87C60DCF8802042EA090658BF22EAB9
:1005D0000906DC02CCF88060DEF8002042EA090659
:1005E00058BF22EA09069B02CEF80060DCF8002022
:1005F00042EA090658BF22EA0906CCF8006053E730
:1006000003B0BDE8F08F000041F20000C5F60040E5
:100610000068000C7047000040F2C400C2F20040C5
:10062000006870470000000040F2080040F2C4017A
:10063000C2F20040C2F2004100680A68104408603B
:10064000704700000000000080B5032000F07CF837
:1006500001F042F844F2184142F6A023C5F6020127
:10066000C0F600030A68096801F00F01C2F3032213
:10067000595C9A5C01F01F0102F01F02D04040F269
:100680000402C2F2004220FA01F1116040F20001BE
:10069000C2F200410860002000F00AF800281CBFE8
:1006A000012080BD00F030F8002080BD0000000077
:1006B000B0B540F20801C2F20041096801B3044636
:1006C00040F20000C2F200404FF47A72B2FBF1F146
:1006D0000068B0FBF1F001F07BFB0F2C4FF001053F
:1006E0000CD858B94FF0FF3000222146002500F009
:1006F0001BF840F20C00C2F2004004602846B0BD76
:100700000120B0BD0000000081B044F2F440C5F605
:100710000200016841F002010160006800F002007F
:100720000090009801B0704770B514460D4606461B
:1007300002F06EF92946224601F0B2FB014630462E
:1007400002F06EF970BD000080B502F07DF980BD49
:10075000B0B544F60C05C5F60205296849072968B5
:1007600005D401F00701081A18BF0120B0BD21F01F
:10077000070108432860FFF74FFF044655F8080CAF
:10078000800407D4FFF748FF001BB0F57A7FF5D946
:100790000120B0BD0020B0BD2DE9F04182B09046EF
:1007A0000F460446FFF738FF216C012901D10225CD
:1007B0002CE00646012020640225606C012823D12C
:1007C0000020A06420210022204633466564CDF835
:1007D000008001F069FC08B1012515E000222046E7
:1007E000394601F079FB786A18B101206064002570
:1007F0000AE00221012220463346CDF8008002277C
:10080000012501F051FC28B100202064284602B0E7
:10081000BDE8F0812068C7606564E8E7000000007B
:100820002DE9F04182B00446FFF7F6FE1CB3054601
:10083000606C38B9204600F08FF841F288312046CC
:1008400000F066F92068E36CA1686FF0FF060268AB
:100850004FF0000822F4706206EB012111430160A1
:1008600020210022009320462B4601F01DFC30B1D0
:1008700002B0BDE8F081012002B0BDE8F081D4E90A
:1008800000124FF62F77D4E903350E68C0F2FF0748
:1008900037403B43E76943EA0262236A3A431A431B
:1008A0000A604FF6FE034A68CFF6E0731A406369A8
:1008B0001A43A36942EA05421A434A600A6842F0B1
:1008C00001020A60C4F848800121616402B0BDE8F9
:1008D000F08100000000000070B582B016460D46A1
:1008E0000446FFF799FE216C012902D1022002B0D3
:1008F00070BD034601202064606C01280DD10020EA
:10090000A06482206064E06C2021002200902046D8
:1009100001F0CAFB18B101201AE0022018E020689B
:100920000168726821F00801082A41EA02010160A9
:1009300007D1316801631021C160016841F4801161
:1009400001604FF040622046294601F0C5FA0020C0
:100950000021216402B070BD2DE9F04786B0002669
:100960000596CDE9036645F200010068C5F2002155
:1009700002968842019602D006B0BDE8F08744F2A4
:10098000E04040F20044C5F60200C5F6020401ADA5
:100990004FF0040950F80C1C4FF0020841F480415C
:1009A00040F80C1C50F80C1C4FF0030A01F4804175
:1009B00000910099016841F0100101600168092768
:1009C00001F0100100910099016841F002010160FD
:1009D000016801F0020100910099016841F00801ED
:1009E00001600068294600F008000090009804F5B6
:1009F0004060CDF80490CDE90286CDF810A00597AF
:100A0000FFF72EFD20462946CDE90198CDE9036A7E
:100A10000597FFF725FD4FF460502946CDE9010801
:100A200004F50060CDE9036A0597FFF719FD402042
:100A30002946CDE90108CDE9036A0A200590204640
:100A4000FFF70EFD06B0BDE8F087000000000000D3
:100A50002DE9F04182B090460F460446FFF7DCFDD9
:100A60002568A969226C012A01D102274CE00646BB
:100A700001202064606C01283DD14FF00000A0648B
:100A8000DFB322206064286901220130A063286955
:100A9000013060632763686962F39B606861A961E4
:100AA000A06BB8B1012700BF0621012220463346C2
:100AB000CDF8008001F0F8FAD0B995F82000216B4C
:100AC0000870206BA16B01302063481EA063A06BEF
:100AD0000028E9D10221012220463346CDF80080CA
:100AE0000225012701F0E0FA10B920680027C5604F
:100AF0000120606406E0022704E0A06C012740F0BA
:100B00000800A06400202064384602B0BDE8F081EF
:100B1000C1647047000000002DE9F04182B09046AA
:100B20000F460446FFF778FD2568216C012901D1A5
:100B3000022749E0064601202064606C01283AD172
:100B40004FF00000A064C7B3122060642869013030
:100B5000E06228690130A0626762686920F0406045
:100B60006861E06AB0B101270421012220463346C2
:100B7000CDF8008001F098FAD0B9606A007885F865
:100B80002000606AE16A01306062481EE062E06A4B
:100B90000028E9D10221012220463346CDF8008009
:100BA0000225012701F080FA10B920680027C560EE
:100BB0000120606406E0022704E0A06C012740F0F9
:100BC0000800A06400202064384602B0BDE8F0812F
:100BD0002DE9F04381B00446C07844F22C48000768
:100BE000C5F6020823D5606E4FEA305003280DD8B1
:100BF0000026DFE800F0020E3313D8F800000026CC
:100C000040F40030C8F8000096B908E001267EB92B
:100C100005E0201D022101F07BFA064646B9D8F80E
:100C20002400616E20F440100843C8F82400002618
:100C30006078C00701D1354631E0606D042816D8D0
:100C40003546DFE800F003161B212100D8F800002C
:100C5000354640F40030C8F8000015E004F12400E7
:100C6000022101F0E5FA0646002EE1D1D7E7012581
:100C70000AE0201D002101F04BFA04E004F12400F9
:100C8000002101F0D5FA05462F464DB9D8F82400C9
:100C9000616D20F0070000250843C8F8240037469E
:100CA0006078800728D5A06D4FEAB01004280BD8D3
:100CB000DFE800F0030C11171700D8F8000040F42B
:100CC0000030C8F800000CE001250AE0201D0021DA
:100CD00001F01EFA04E004F12400002101F0A8FA5A
:100CE00005462E464DB9D8F82400A16D20F4E070D9
:100CF00000250843C8F824003E46607840072AD5FE
:100D0000D4F8A4004FEA705004280BD8DFE800F0B4
:100D1000030C11171700D8F8000040F40030C8F891
:100D200000000CE001250AE0201D002101F0F0F98F
:100D300004E004F12400002101F07AFA0546A946F6
:100D400055B9D8F82C00D4F8A41020F46000002580
:100D50000843C8F82C00B146607800072AD5D4F8BB
:100D6000A8004FEA306004280BD8DFE800F0030C3D
:100D700011171700D8F8000040F40030C8F8000040
:100D80000CE001250AE0201D002101F0C1F904E07A
:100D900004F12400002101F04BFA05462F4655B915
:100DA000D8F82C00D4F8A81020F0E0600025084303
:100DB000C8F82C004F46E078800721D5A06C4FEA98
:100DC000301003280AD8DFE800F010020B10D8F822
:100DD000000040F40030C8F8000006E0012504E0FF
:100DE000201D022101F094F905462E464DB9D8F890
:100DF0002000A16C20F0300000250843C8F8200036
:100E00003E466078C00628D5E06D4FEA30300428B1
:100E10000BD8DFE800F0030C11171700D8F800001A
:100E200040F40030C8F800000CE001250AE0201D65
:100E3000002101F06DF904E004F12400002101F02B
:100E4000F7F905462F464DB9D8F82400E16D20F496
:100E5000E04000250843C8F8240037466078800643
:100E600021D5206E4FEA3040052809D8DFE800F090
:100E700010030A101010201D012101F049F906E0AD
:100E8000012505E004F12400012101F0D1F9054616
:100E90002E464DB9D8F82400216E20F4E02000251C
:100EA0000843C8F824003E466078400623D5D4F8AD
:100EB000AC004FEA3070052809D8DFE800F01003D5
:100EC0000A101010201D012101F022F906E0012571
:100ED00005E004F12400012101F0AAF905462F469E
:100EE00055B9D8F82C00D4F8AC1020F0E04000251B
:100EF0000843C8F82C0037466078000620D5E06E1D
:100F000098B1B0F1005F09D0B0F1805F0CD1D8F892
:100F1000000040F40030C8F8000006E0201D012168
:100F200001F0F6F8054600E001252E464DB9D8F847
:100F30002400E16E20F0405000250843C8F824004A
:100F40003E46E078C0071FD0606C03280AD8DFE86F
:100F500000F010020B10D8F8000040F40030C8F880
:100F6000000006E0012504E0201D022101F0D0F878
:100F70000546A9464DB9D8F82000616C20F0030061
:100F800000250843C8F82000B146A078400601D4E7
:100F90004E466CE0D8F8D40340F48070C8F8D4030F
:100FA000FFF73AFB064600BFD8F8D403C00505D4C6
:100FB000FFF732FB801B6528F6D30325002D2E4654
:100FC00055D1D8F84410D4F8B000414011F4407F16
:100FD00011D0D8F84410D8F8442042F48032C8F830
:100FE0004420D8F8442021F4407122F48032C8F81B
:100FF0004420C8F84410B0F5807F11D1FFF70CFBF6
:10100000054641F2893700BFD8F8440010F00206C7
:1010100009D1FFF701FB401BB842F5D3032503E0DC
:101020000025012603E00025002E18BF0126002E12
:101030002E461CD04FF6CF73D4F8B00058F81C2CB5
:10104000C0F2FF0300F4407122F47C5203EA101353
:10105000B1F5407F08BF1A436FF31F30002548F8F1
:101060001C2CD8F844100843C8F8440090E72078B6
:10107000C00721D0A06F4FEAF000052809D8DFE8AB
:1010800000F010030A101010201D012101F040F89B
:1010900006E0012505E004F12400012101F0C8F873
:1010A00005462F464DB9D8F82800A16F20F038002A
:1010B00000250843C8F828003746207880071FD548
:1010C000606F052809D8DFE800F010030A1010103F
:1010D000201D012101F01CF806E0012505E004F1C6
:1010E0002400012101F0A4F805462E464DB9D8F898
:1010F0002800616F20F0070000250843C8F8280089
:101100003E462078400721D5D4F89000052809D81C
:10111000DFE800F010030A101010201D012100F07C
:10112000F7FF06E0012505E004F12400012101F0AC
:101130007FF80546A94655B9D8F82C00D4F8901088
:1011400020F0070000250843C8F82C00B14620789D
:10115000800623D5D4F88C004FEA3070052809D8D2
:10116000DFE800F010030A101010201D002100F02D
:10117000CFFF06E0012505E004F12400022101F083
:1011800057F805462F4655B9D8F82800D4F88C10E2
:1011900020F0E04000250843C8F828004F4620789A
:1011A000400623D5D4F898004FEAB020052809D886
:1011B000DFE800F010030A101010201D002100F0DD
:1011C000A7FF06E0012505E004F12400022101F05B
:1011D0002FF805462E4655B9D8F82C00D4F89810AB
:1011E00020F4E05000250843C8F82C003E46207843
:1011F000000623D5D4F89C004FEA7030052809D8A2
:10120000DFE800F010030A101010201D002100F08C
:101210007FFF06E0012505E004F12400022101F032
:1012200007F805462F4655B9D8F82C00D4F89C107D
:1012300020F4604000250843C8F82C003746207889
:10124000000715D5D4F88000B0F5805F07D104F110
:101250002400022100F0ECFF002818BF0127D8F875
:101260002800D4F8801020F440500843C8F8280023
:101270002078C00615D5D4F89400B0F5807F07D14A
:1012800004F12400022100F0D3FF002818BF012739
:10129000D8F82C00D4F8941020F440700843C8F813
:1012A0002C00A078000722D5D4F8A000B0F5003FAC
:1012B00011D0B0F5803F06D060B9201D002100F0AC
:1012C00027FF054607E004F12400022100F0B0FFEB
:1012D000054600E001252E4655B9D8F82C00D4F873
:1012E000A01020F4403000250843C8F82C003E46EA
:1012F000A078400725D5D4F88400B0F5401F14D05D
:10130000B0F5001F09D0B0F5801F0DD1D8F800004E
:1013100040F40030C8F8000007E004F12400012187
:1013200000F086FF054600E001252F4655B9D8F8A4
:101330002800D4F8841020F4401000250843C8F891
:1013400028003746A078C0071DD0E06CB0F5803F7C
:1013500007D060B9D8F8000040F40030C8F80000A9
:1013600006E0201D022100F0D3FE054600E0012525
:101370002E464DB9D8F82000E16C20F480300025CD
:101380000843C8F820003E46E078800607D504F1FF
:101390002400022100F04CFF002818BF012620681D
:1013A000810311D4C10225D4C1002DD4810236D4C9
:1013B00041003ED4B0F1FF3F4BDD002E18BF0126A7
:1013C000304601B0BDE8F083E16F6FF0010202EB3F
:1013D0003122022A0AD34FEA31223AB1012A41D1FD
:1013E000D8F8002042F40032C8F80020EDB30126FE
:1013F000C102D9D5D8F82410226F21F00041114341
:10140000C8F82410C100D1D558F81C1CD4F8B42059
:1014100021F48041114348F81C1C8102C8D5D8F83A
:101420002410A26E21F080711143C8F824104100ED
:10143000C0D558F81C1C21F4004148F81C1CD4F8F5
:10144000B81058F81C2C114348F81C1CB0F1FF3F91
:10145000B3DCD8F82000216D20F040500843C8F8D4
:101460002000AAE70125002DC1D1D8F8282022F4B8
:1014700040721143C8F82810C10295D5BAE70000A0
:101480002DE9F04381B0002800F0F48042F200081A
:101490000446C5F200288946D8F8000000F00F0085
:1014A00088420ED2D8F8000020F00F0040EA090070
:1014B000C8F80000D8F8000000F00F00484540F0E0
:1014C000D980206844F218474107C5F602070AD5BB
:1014D00021693A6802F07002914204D93A6822F018
:1014E00070021143396001070AD561697A6802F018
:1014F0007002914204D97A6822F070021143796037
:10150000C1060AD5A1697A6802F4E062914204D961
:101510007A6822F4E0621143796081060AD5E169B4
:10152000BA6802F07002914204D9BA6822F07002DF
:101530001143B96081070AD5E1683A6802F00F02E9
:10154000914204D93A6822F00F0211433960C00772
:101550007ED1206881070AD5E1683A6802F00F025F
:10156000914204D23A6822F00F0211433960D8F850
:10157000001001F00F0149450DD9D8F8001021F0F5
:101580000F0141EA0901C8F80010D8F8001001F075
:101590000F0149456ED141070AD521693A6802F029
:1015A0007002914204D23A6822F07002114339600D
:1015B00001070AD561697A6802F07002914204D28B
:1015C0007A6822F0700211437960C1060AD5A169D8
:1015D0007A6802F4E062914204D27A6822F4E0620E
:1015E0001143796080060AD5E069B96801F070019D
:1015F000884204D2B96821F070010843B86000F055
:101600006BF8396842F6A022C0F600023B68C1F3CD
:10161000032103F00F03515CD25C01F01F01C840AD
:1016200002F01F0140F2040220FA01F1C2F200426E
:10163000116040F2000140F20C02C2F20041C2F21D
:10164000004208601068FFF733F801B0BDE8F0838E
:10165000386820F47061D4E90102012841EA0201EE
:1016600039600BD003282BD002282ED157F8181C34
:10167000890307D4012001B0BDE8F08357F8181C96
:10168000C905F7D557F8081C21F00701084347F8AA
:10169000080CFEF7C1FF064641F2883557F8080CE2
:1016A000616800F03800B0EBC10F3FF452AFFEF7B5
:1016B000B3FF801BA842F1D9032001B0BDE8F0833D
:1016C00057F8181C8901D5D5DCE757F8181C4907CD
:1016D000D0D5D7E70000000044F20041C5F6020172
:1016E0000869C0F3C20003280FD002282AD070BBBB
:1016F0000868800649F20000C0F2D03058BF704739
:101700000968C1F3C101C84070478A6A886AC0F39A
:10171000051CC86ABCF1000F4B6B1DD0C3F3CC0392
:1017200000F00100584302F00302022A00EE100A02
:10173000B8EE400A12D0A2B90868800614D49FED12
:10174000261A1EE047F64000C0F27D10704740F6B2
:101750000010C0F23D007047002070479FED1D1A39
:101760000FE09FED1B1A0CE0086849F20002C0F27E
:10177000D032C0F3C10022FA00F001EE100AB8EE38
:10178000411A086B9FED153A6FF35F2002EE100AC5
:10179000086BC0F34620B8EE422A013000EE032A5F
:1017A00000EE10CAB7EE003AB8EE400A81EE000A29
:1017B00032EE031A20EE010A01EE100AB8EE411AC9
:1017C00080EE010ABCEEC00A10EE100A704700BF9E
:1017D0000024744A20BCBE4B0024744C0000003925
:1017E0002DE9F04381B0F8B18046007844F2004919
:1017F000C007C5F602095AD0D9F8100000F0380128
:10180000D9F82800102905D018290FD100F00300BD
:1018100002280BD1D9F80000800344D5D8F8040081
:10182000002840D101252FE001251BE2D8F8044013
:101830002CB1B4F5A02F0DD0B4F5803F10D0D9F85D
:10184000000020F48030C9F80000D9F8000020F42E
:10185000802009E0D9F8000040F48020C9F8000099
:10186000D9F8000040F48030C9F80000FEF7D4FE3B
:101870000546A4B1D9F80000800314D4FEF7CCFECD
:10188000401B6428F6D903250020002800F0EA81D7
:101890000DE000BFFEF7C0FE401B6428F3D8D9F866
:1018A00000008003F6D40120002800F0DB8198F8C6
:1018B000000080076BD5D9F8100010F03801D9F876
:1018C00028001CD0182908BF5FEA807017D0D8F80C
:1018D0000C00D9F8001098B321F019010843C9F899
:1018E0000000FEF799FE0646D9F8000040070DD427
:1018F000FEF792FE801B0228F6D9032543E0D9F8B3
:101900000000400702D5D8F80C00D8B3FEF77CFEE3
:1019100041F2030188420AD8D8F81000D9F804101F
:10192000402821F47C3124D141F4003023E0D9F85F
:101930000400D8F8101020F0FE4040EA01601AE0E0
:1019400021F00100C9F80000FEF766FE06460127F7
:10195000D9F8000010F0040087EA90040ED0FEF7DA
:101960005BFE801B0328F3D30325002C00F07A8153
:101970000DE041EA0030C9F804000124002C00F019
:10198000718104E001250024002C00F06B8198F89F
:101990000000C00675D5D9F8100000F03801D9F85C
:1019A0002800082905D018291CD100F003000128BF
:1019B00018D1D9F80000C00503D5D8F81C0080283C
:1019C0005AD1FEF721FE41F20301884223D8D8F80C
:1019D0002000D9F80410202821F0F84143D141F02B
:1019E000804042E0D8F81C000028D9F8000021D03F
:1019F00040F08000C9F80000FEF70EFE064600BF6A
:101A0000D9F80000C005DCD4FEF706FE801B0228D2
:101A1000F6D9032531E0D9F80C00D8F8201020F0D1
:101A20007C50012440EA0160C9F80C00002C00F051
:101A3000198126E020F08000C9F80000FEF7ECFDD7
:101A400006460127D9F8000010F4807087EA1024B8
:101A50000ED0FEF7E1FD801B0328F3D30325002CF5
:101A600000F000810DE041EA8060C9F80400012423
:101A7000002C00F0F78004E001250024002C00F089
:101A8000F18098F8000000071CD498F80000800648
:101A900031D498F80000400745D4D8F82440002CF1
:101AA00000F0DF80D9F8100000F03800182840F06E
:101AB0008880012CD9F82810D9F8300040F0A28095
:101AC0000125CFE0D8F814000028D9F874003ED0E2
:101AD00040F00100C9F87400FEF79EFD054600BF06
:101AE000D9F874008007D0D4FEF796FD401B022879
:101AF000F6D90325B6E0D8F818000028D9F8000078
:101B00004BD040F48050C9F80000FEF785FD054633
:101B1000D9F800008004BCD4FEF77EFD401B0228EB
:101B2000F6D903259EE0D9F8000440F48070C9F886
:101B30000004FEF771FD0546D9F80004C0051AD46B
:101B4000FEF76AFD401B6428F6D903258AE020F0E1
:101B50000100C9F87400FEF75FFD0646032500BFCB
:101B6000D9F8740080077FF590AFFEF755FD801B14
:101B70000228F5D976E0D8F808401CB1052C75D0BC
:101B8000012C79D0D9F8700020F00100C9F870005C
:101B9000D9F8700020F0040072E020F48050C9F8F9
:101BA0000000FEF739FD0646032500BFD9F8000006
:101BB00080047FF56EAFFEF72FFD801B0228F5D95C
:101BC00050E0D9F8000020F08070C9F80000FEF75E
:101BD00023FD022C06464FF0030509D1D9F8000079
:101BE00080016FD5FEF718FD801B0228F6D939E079
:101BF000D9F80000800134D5FEF70EFD801B0228C5
:101C0000F6D92FE001F00302D8F828309A4240F0CC
:101C1000D380C1F30511D8F82C20914240F0CE803A
:101C20000146D8F830206FF35F21013A914240F02D
:101C3000C780C0F34622D8F8341001398A4240F0F8
:101C4000C180C0F30642D8F8381001398A4240F00A
:101C5000BB80C0F30660D8F83C100139884240F0E0
:101C6000B5800025284601B0BDE8F083D9F87000A2
:101C700040F00400C9F87000D9F8700040F001008D
:101C8000C9F87000FEF7C8FC002C064641F2883403
:101C90004FF0030511D000BFD9F8700080073FF561
:101CA000FCAEFEF7B9FC801BA042F5D9DAE700BF15
:101CB000FEF7B2FC801BA042D4D8D9F87000800790
:101CC000F6D4EAE608F12807D9F8280040F2F33103
:101CD00088438ECF0843591E40EA02104FF47E42DB
:101CE0006FF35F21C9F8280002EB47204FF4FE0292
:101CF00080B2D8F83C300844D8F8381002EB0141E3
:101D00004FF0FE4201F4FE0102EB0362084402F0D0
:101D1000FE410844C9F83000D9F82C004FF6F8719C
:101D200020F00100C9F82C00D9F83400D8F8482078
:101D3000884340EAC200C9F83400D9F82C00D8F82A
:101D4000401020F00C000843C9F82C00D9F82C00F2
:101D5000D8F8441020F002000843C9F82C00D9F844
:101D60002C0040F48030C9F82C00D9F82C0040F445
:101D70000030C9F82C00D9F82C0040F48020C9F8B4
:101D80002C00D9F82C0040F00100C9F82C00D9F83B
:101D9000000040F08070C9F80000FEF73DFC0446EA
:101DA0000325D9F8000080013FF55BAFFEF734FC56
:101DB000001B0228F5D955E7012553E7012551E716
:101DC00001254FE701254DE701254BE7012549E7AF
:101DD00080B500F04DFB80BDFEE700000000000074
:101DE00081B044F2E040C5F60200016841F0100104
:101DF0000160016801F0100100910099016841F053
:101E000080010160016801F0800100910099016882
:101E100041F002010160016801F0020100910099A6
:101E2000016841F008010160016801F008010091BA
:101E30000099016841F001010160006800F00100B3
:101E40000090009801B0704780B540F2740045F2F0
:101E50000001C2F20040C5F2002101600221416090
:101E6000042181601021C160162101614FF480714D
:101E700041610021C0E906110162FEF7D1FC002892
:101E800008BF80BDFEF7E4FA80BD0000000000003E
:101E9000FEE7000000000000FEE700000000000078
:101EA00000F007004FF0FF3C80F00703042B28BF31
:101EB0000423033838BF00200CFA03F399430CFACB
:101EC00000F301FA00F022EA030108437047000022
:101ED00070470000000000002DE9F047D1F824C051
:101EE000B2F1406F18BFBCF1000F03D003688F6AD6
:101EF000013F1F61D1F818E0BEF1000F0B6A2CD032
:101F0000002B53D000688C68D1E90486CD69C46188
:101F1000D1E90B7A002D4C6B4FEA864969D04CEA27
:101F20000206B2F1406F46EA0E0643EA0603CE68A7
:101F300043EA050343EA07030F6843EA0A0343EA57
:101F4000040343EA090343EA080343EA060343EAB6
:101F5000070242616FD1BDE8F087002B55D00068C1
:101F60008C68D1E90486CD69C461D1E90B7A002D72
:101F70004C6B4FEA864962D04CEA0206B2F1406FE0
:101F800046EA0E0643EA060343EA050343EA07036B
:101F9000CF6843EA0A0343EA040343EA090343EA36
:101FA000080343EA07024261D5D044E04B69CF6998
:101FB0004FEA8348D1E90B54002F4E6B4FD04CEAC7
:101FC0000203006843EA0E03B2F1406F43EA0703DD
:101FD0000F6843EA0503CD6843EA040343EA0603B6
:101FE00043EA080343EA050343EA07024261B2D029
:101FF00021E042EA0C0242EA0E021A433A4342EA64
:102000000A02224342EA090231E0CB69B3B34CEA47
:102010000205CC6A2B430D6B23434E694C6B2B435B
:1020200023430068CF6843EA8643B2F1406F43EA36
:10203000070242618FD049688161BDE8F0874CEAB0
:10204000020141EA0E011943394341EA0A012143E1
:1020500041EA090141EA08014161BDE8F08742EA2D
:102060000C02006842EA0E022A4322433243096806
:1020700042EA080211434161BDE8F087BCF1000F5C
:1020800008BFBDE8F087D1E90B7642EA0C024B6944
:102090003A43496B32430068114341EA834141614D
:1020A000BDE8F087000000002DE9F04381B0044650
:1020B00000688068084018BF0120904203D10020CA
:1020C00001B0BDE8F083DDF820800D461646994644
:1020D00008F1010707E000BF20688068284018BFAA
:1020E0000120B042EBD0002FF6D0FEF795FAB8F100
:1020F000000F03D0A0EB09004045EDD90420606437
:10210000A06C40F00100A064012001B0BDE8F083A4
:10211000F0B581B044F22C47C5F6020757F8042CFD
:1021200002F00302032A02D1012001B0F0BD0546EE
:1021300057F82C0C0C4620F0806047F82C0CFEF76A
:102140006BFA064657F82C0C000105D5FEF764FA29
:10215000801B0228F6D964E057F8040CEE6895E875
:102160000E0020F47C30012C40EA0130A2F1010184
:102170006FF35F214FF47E4202EB432247F8040CD9
:1021800092B24FF0FE4302EB01004FF4FE012A69C8
:1021900001EB064101F4FE0103EB0262084402F088
:1021A000FE410844F8603868696920F0C00040EAE0
:1021B000010038603868A96920F0200040EA010079
:1021C000386038684FF6F87120F0100038603869D0
:1021D000EA6920EA01004FF4001140EAC2003861C8
:1021E000386808BF4FF4801140F01000002C3860B0
:1021F00008BF4FF4002138680843386057F82C0CAA
:1022000040F0806047F82C0CFEF706FA044600BF49
:1022100057F82C0C000107D4FEF7FEF9001B032829
:10222000F6D3032001B0F0BD002001B0F0BD0000E6
:10223000F0B581B044F22C47C5F6020757F8042CDC
:1022400002F00302032A02D1012001B0F0BD0546CD
:1022500057F82C0C0C4620F0805047F82C0CFEF759
:10226000DBF9064657F82C0C800005D5FEF7D4F9AB
:10227000801B0228F6D964E057F8040CEE6895E854
:102280000E0020F07C70012C40EA0150A2F1010107
:102290006FF35F214FF47E4202EB432247F8040CB8
:1022A00092B24FF0FE4302EB01004FF4FE012A69A7
:1022B00001EB064101F4FE0103EB0262084402F067
:1022C000FE41084478613868696920F4406040EA5A
:1022D000010038603868A96920F4007040EA010004
:1022E000386038684FF6F87120F480703860B8694B
:1022F000EA6920EA01004FF0807140EAC200B8614B
:10230000386808BF4FF4000140F48070002C38603A
:1023100008BF4FF4800138680843386057F82C0C28
:1023200040F0805047F82C0CFEF776F9044600BFC9
:1023300057F82C0C800007D4FEF76EF9001B032819
:10234000F6D3032001B0F0BD002001B0F0BD0000C5
:1023500070B54EF614500021CEF2000043F6E07C3A
:102360000167BFF34F8F016821F480310160BFF333
:102370004F8FC16EC1F3C903C1F34E3203F1010E99
:102380009B0700BF0CEA42111C46754644EA010651
:10239000013D04F14044C0F86062F7D1002AA2F187
:1023A0000102EFD1BFF34F8FBFF36F8F70BD0000FD
:1023B0004EF61450BFF34F8FCEF20000BFF36F8F75
:1023C000016821F4003101600021C0F83C12BFF324
:1023D0004F8FBFF36F8F704770B54EF614500021CA
:1023E000CEF2000043F6E07C0167BFF34F8FC16E71
:1023F000C1F3C903C1F34E3203F1010E9B0700BFC5
:102400000CEA42111C46754644EA0106013D04F1FE
:102410004044C0F84C62F7D1002AA2F10102EFD18A
:10242000BFF34F8F016841F480310160BFF34F8FDC
:10243000BFF36F8F70BD00004EF614500021CEF236
:102440000000BFF34F8FBFF36F8FC0F83C12BFF394
:102450004F8FBFF36F8F016841F400310160BFF30C
:102460004F8FBFF36F8F7047704700000000000070
:10247000B0B501380024B4EB106F01D00120B0BD1D
:102480004EF210050F21CEF2000568604FF0FF30CC
:1024900000F0C6FAAC60072028602046B0BD0000FE
:1024A00080B5FEF7C1F880BDB0B5CCB044F61804D5
:1024B00039A84C21C5F60204FDF75EFF02A8BC2135
:1024C0000025CDE93755CDE93555CDE93355CDE971
:1024D0003155FDF751FF0220FEF73AF901952068CA
:1024E00040F440402060206800F44040019040F2F9
:1024F0002C40C5F60000016841F001010160006850
:1025000000F001000190019820688004FCD50120B2
:1025100039904FF480303A9002200521CDE94200F5
:102520004491C021CDE94510CDE9470039A80824E0
:1025300049940025CDE94A55FFF752F9E8B93F2003
:10254000319003204FF48061CDE93205349440206E
:10255000CDE93500CDE9371031A80421FEF790FF11
:1025600058B94FF0007002900020149002A8FEF7B6
:102570002FFB002804BF4CB0B0BDFDF769FF000081
:1025800080B54EF6885C42F2000ECEF2000CC5F229
:10259000002EDCF8001041F47001CCF80010DEF8D9
:1025A000001001F00F01062906D8DEF800100722FE
:1025B00062F30301CEF8001044F200414EF67F535F
:1025C000C5F60201CEF6F6230A6842F001020A605F
:1025D00000220A61086818400860DEF80000000761
:1025E00006D5DEF80000072363F30300CEF80000F1
:1025F00040F200208A61CA61C0F202200A62886249
:102600000020C0F2FF10C86240F28020C0F201102A
:1026100008634A638863CA6308644A64086820F4EC
:102620008020086041F200000A66C5F6004000689C
:10263000B2EB507F05D148F208100121C5F200101D
:10264000016044F2000043F2D201C5F200200160B3
:102650004FF000604CF8800C80BD000000000000CE
:10266000FEE700000000000080B500F0A1F800F0D7
:10267000ABF9FFF79DFEFFF76BFE4EF21000002155
:10268000CEF200004FF010420160042040F27001D1
:10269000C9F20000C2F2004100680860106880F3CF
:1026A00008880868804780BDB0B590B0022000F06F
:1026B00087F881078DF83F000BD4012000F00CF95A
:1026C0009DF83F0040F0020102208DF83F1000F01D
:1026D00033F940F2740401ADC2F200444FF480704B
:1026E000079038200190002008904FF40051CDE968
:1026F0000410CDE9020006906422CDE90900CDE97D
:102700000B00CDE90D0020462946FEF745F840F2C2
:10271000C8000121C2F2004001704FF440700790E0
:10272000C02001904FF04070CDE90A0130208DF8B3
:102730003F00012000F0D0F8642220462946FEF731
:102740002BF808B110B0B0BD40F274000DF13F019C
:10275000C2F200406422FEF7DFF910B0B0BD000005
:1027600010B58EB04FF440700690FF20009000240A
:1027700007944FF400506946CDE9030440F2740019
:102780006422C2F20040CDE901440594CDE9084439
:10279000CDE90A44CDE90C44FDF7FEFF40F2C80044
:1027A000C2F2004004700EB010BD00000000000036
:1027B00080B5FFF7D5FF00F04BF8FFF775FF80BD40
:1027C00080B590B040F2C8014FF44073C2F20041AE
:1027D00000228DF83F20097800294FF0407108BF92
:1027E0004FF4807308BF4FF0807103280A914FF4B3
:1027F0000051CDE9073204914FF001010292099294
:102800000392CDE90522CDE90B120D920E9205D06F
:10281000022805D001284FF0050002E0152000E055
:102820003520019040F27400C2F2004001A96422F8
:10283000FDF7B2FF40B940F274000DF13F01C2F262
:1028400000406422FEF704F99DF83F0010B080BDFF
:1028500080B58EB040F2C8004FF44071C2F2004023
:10286000007800284FF0660008BF4FF48071009098
:10287000002006914FF400510790CDE90310CDE9F7
:1028800001000590CDE90800CDE90A00CDE90C0072
:1028900000F01AF840F274006946C2F20040642267
:1028A000FDF77AFF08B10EB080BD9920009040F28C
:1028B00074006946C2F200406422FDF76DFF0EB05D
:1028C00080BD00000000000080B500BF0120FFF7C0
:1028D00077FFC007FAD180BD80B58EB040F2C80145
:1028E0004FF44072C2F20041097800294FF006010E
:1028F00008BF4FF4807200284FF0000006924FF09E
:10290000640208BF0421079000914FF40051CDE903
:102910000310CDE9010005906946CDE90800CDE935
:102920000A00CDE90C0040F27400C2F20040FDF74D
:1029300033FF0EB080BD000080B590B040F2C802F9
:102940008DF83F10C2F200424FF440711278002A15
:102950004FF0407208BF4FF4807108BF4FF0807293
:1029600007914FF400510491012103280A924FF07E
:1029700000020892029209920392CDE90522CDE964
:102980000B120D920E9206D0022818BF01284FF0AC
:102990000100019000E0019140F2740001A9C2F22F
:1029A00000406422FDF7F8FE08B110B080BD40F28F
:1029B00074000DF13F01C2F200406422FEF7ACF852
:1029C00010B080BD0000000080B590B04FF44070A2
:1029D0000890EB2002904FF4406009904FF40050B3
:1029E000059000200A904FF040710B91082107914B
:1029F000CDE90D000F9002A9CDE9000040F274006E
:102A00006A46C2F20040FDF767FF10B080BD0000CB
:102A10004EF60C50CEF200000068C0F30220704762
:102A20004EF6145300F00F02CEF20003B0F1FF3F58
:102A30001A4400F16043C8BF03F5644208011070F6
:102A400070470000000000004EF60C514FF6FF03E7
:102A5000CEF200010A681A4060F30A2242F0806058
:102A600040F0FD7008607047FFF7E6FCFFF7B4FC2C
:102A7000FDF7EAFDFFF718FDFFF7B2F9FFF7E4F9FC
:102A8000FFF7F2FDFEE7F1EE100A4FF6FF71C0F21C
:102A9000C03120EA010040F04070E1EE100A7047BA
:102AA00000000000010203040102030406070809F4
:102AB000D02A00080000002410000000D402000802
:102AC000E02A000810000024C0060000F002000800
:102AD0000090D0030090D00301000000100000001F
:040000050800029954
:00000001FF
