:0200000490006A
:10000000A0B20020A5030090E90D0090F10D009032
:10001000F90D0090010E0090090E00900000000004
:1000200000000000000000000000000021A8019076
:10003000110E009000000000E1AA019049AB019070
:10004000BF030090BF030090BF030090BF03009068
:10005000BF030090BF030090BF030090BF03009058
:10006000BF030090BF030090BF030090BF03009048
:10007000BF030090BF030090BF030090BF03009038
:10008000BF030090BF030090BF030090BF03009028
:10009000BF030090BF030090BF030090BF03009018
:1000A000BF030090BF030090BF030090BF03009008
:1000B000BF030090BF030090BF030090BF030090F8
:1000C000BF030090BF030090BF030090BF030090E8
:1000D000BF030090BF030090190E0090BF03009073
:1000E000BF030090BF03009000000000BF0300901A
:1000F000BF030090BF030090BF030090BF030090B8
:10010000BF030090BF030090BF030090BF030090A7
:10011000BF030090BF030090BF030090BF03009097
:10012000BF030090BF030090BF030090BF03009087
:10013000BF030090BF030090BF030090BF03009077
:1001400000000000000000000000000000000000AF
:10015000BF030090BF030090BF030090BF03009057
:10016000BF030090BF030090BF030090BF03009047
:10017000BF030090BF030090BF030090BF03009037
:10018000BF030090BF030090BF030090BF03009027
:10019000BF030090BF030090BF030090BF03009017
:1001A000290E0090BF030090390E0090BF0300900D
:1001B000BF030090BF030090BF030090BF030090F7
:1001C000BF030090BF030090BF030090BF030090E7
:1001D000BF030090BF030090BF030090BF030090D7
:1001E000BF030090BF030090BF030090BF030090C7
:1001F000BF030090BF030090BF030090BF030090B7
:10020000BF030090BF030090BF030090BF030090A6
:10021000BF030090BF030090490E0090BF03009001
:10022000BF030090BF030090BF03009000000000D8
:10023000BF030090BF03009000000000BF030090C8
:10024000BF030090BF030090BF030090BF03009066
:10025000BF030090BF030090BF030090BF03009056
:10026000BF030090BF030090BF030090BF03009046
:10027000BF030090BF030090BF0300900000000088
:10028000BF030090BF030090BF0300900000000078
:1002900000000000BF03009000F002F800F073F8C7
:1002A0000AA090E8000C82448344AAF10107DA45D1
:1002B00001D100F068F8AFF2090EBAE80F0013F0B0
:1002C000010F18BFFB1A43F00103184750740600D2
:1002D000807406000A444FF0000C10F8013B13F044
:1002E000070408BF10F8014B1D1108BF10F8015B8F
:1002F000641E05D010F8016B641E01F8016BF9D182
:1003000013F0080F1EBF10F8014BAD1C0C1B09D1D8
:100310006D1E58BF01F801CBFAD505E014F8016B4A
:1003200001F8016B6D1EF9D59142D6D370470000DC
:10033000103A24BF78C878C1FAD8520724BF30C811
:1003400030C144BF04680C607047000000230024E3
:1003500000250026103A28BF78C1FBD8520728BFD5
:1003600030C148BF0B6070471FB531F0A8FB9DE856
:1003700003001BF005FC1BF0D3FA1FBD10B50020D5
:100380001BF034FC10BD1BF072FC1146FFF7ECFFB4
:1003900000F02AF81BF0AAFC03B4FFF7EFFF03BC40
:1003A0001BF0C8FB0948804709480047FEE7FEE705
:1003B000FEE7FEE7FEE7FEE7FEE7FEE7FEE7FEE715
:1003C00004480549054A064B70470000411E01904C
:1003D00099020090A0820020A0B20020A0920020EC
:1003E000A09200200000000082B04EF660704FF630
:1003F000A851CEF20000CFF6FF714FF010424FF639
:10040000B45342500021BFF34F8FBFF36F8F40F8BA
:10041000101CCFF6FF73BFF34F8FBFF36F8FC2581F
:10042000012742F40032C2504FF62462CFF6FF7229
:10043000BFF34F8FBFF36F8F81504FF62061CFF620
:10044000FF71BFF34F8F4158CB08C1F3C905C1F30A
:100450004E32A5F1020B07EBD107691E4FEA837EEE
:1004600007F003064FEA817A43F6E0774FEA8B7391
:100470000193EB1E009303E0002AA2F1010229D0B0
:1004800007EA42142B467EB1012E4EEA04030360B4
:100490000B4609D0022E4AEA040303605B4603D0F0
:1004A000019B23430360009B032DE5D344EA83743F
:1004B000013304F1404C84F0004804F1804900BF4E
:1004C000043B0460C0F800C0C0F80080C0F8009091
:1004D000F6D1D1E74FF6B452CFF6FF72BFF34F8F8C
:1004E000815841F480318150BFF34F8FBFF36F8F3C
:1004F00007F03AFB00F024F800F0EAF800F064FAA4
:1005000000F0BAF900F0FCF900F0AEFB12F0A4FC28
:1005100040F210100122C2F20000811C44F270006F
:10052000C2F2000010F054FB1AF0BAFF1AF058FBA8
:1005300018F076FC00F048F918F0CEFCFEE700BF9A
:10054000F0B5CBB044F6180438A84C21C5F6020427
:100550001BF0BBF901A8BC210025CDE93655CDE93A
:100560003455CDE93255CDE930551BF0AEF90220B6
:1005700006F0A2FF0095206840F44040206020680B
:1005800000F44040009040F22C40C5F600000168A5
:1005900041F001010160006800F001000090009846
:1005A0002068800409D4206880045CBF20685FEA6A
:1005B000804002D420688004F2D54FF61040022516
:1005C000CFF6FF7005260827215865F30101215059
:1005D000012038904FF480303990CDE94155439651
:1005E000C020CDE9440538A80024CDE946554897F8
:1005F000CDE9494401F080FA31A93F203090032031
:1006000091C140204FF48061CDE93400CDE936102E
:1006100030A8042101F0D8FC02200A96C2F2002082
:100620000190A020CDE90B050D9535200E904FF4DB
:100630000060CDE90F0401A8119413941E9402F0F8
:100640006BF84BB0F0BD00BF704700BF00BF00BFEC
:1006500044F27001C2F20001884218BF704740F2B4
:100660001010C2F20000417829B98278012A02D024
:100670000021417017E0012905D1C278FF2A02D07C
:10068000002141700FE0022905D10279FF2A02D032
:100690000021417007E0162902D80131417002E0C3
:1006A00001210180002108440122811C44F27000D4
:1006B000C2F2000010F08CBA44F600010068C4F2E7
:1006C0000101884218BF704707F0EEBA0000000031
:1006D0002DE9F04786B044F2E0404FF00008C5F63F
:1006E000020040F60005CDE904880168C5F6020560
:1006F00041F0100101600168012201F01001009138
:100700000099016841F08001016001684FF0010A21
:1007100001F0800100910099016841F0040101603D
:10072000016801F0040100910099016841F00101A4
:100730000160016801F0010100910099016841F038
:1007400002010160016801F0020100910099016855
:1007500041F0080101600068082100F008000090E5
:100760000098284603F03CFFA5F500648021002294
:1007700020464FF0800903F033FF30210022284645
:1007800003F02EFF01AE0220CDE9010828463146D4
:10079000CDF80C8003F030FD38203146CDE9010A58
:1007A0002846CDF80C800327049703F025FD20464A
:1007B0003146CDE9019ACDE903A703F01DFD06B04E
:1007C000BDE8F0870000000010B540F6210043F6B8
:1007D000C452C9F20000C9F20302002118F06CFCF7
:1007E00040F22C1443F6E852C2F20004C9F20302AC
:1007F0000021206040F63100C9F2000018F05CFCD6
:10080000606040F6690043F60C62C9F20000C9F26C
:100810000302002118F050FCA06010BD00BF00BF13
:1008200012F01EFB012018F0EBFFF9E700BF00BF3C
:1008300040F2101440F2121540F29466C2F2000425
:10084000C2F20005C2F20006002702E0012018F003
:10085000D7FF20780128F9D1B5F81500277030604E
:10086000F4E700BF00BF00BF1AF0D2FA012018F071
:10087000C7FFF9E70000000080B543F6C06044F60A
:100880000041C2F20000C5F6020101600021818032
:10089000C0E905110121416200F0DAFC002808BF1F
:1008A00080BDBDE88040FFF7CFBE00BF00BF00BFE6
:1008B00081B044F2E0410068C5F6020101F5E4624E
:1008C000904201D001B07047086840F400200860F1
:1008D000086800F400200090009801B0704700BF45
:1008E00044F2E0410068C5F6020101F5E46290427D
:1008F00018BF7047086820F40020086070470000A7
:1009000080B543F6E86041F20001C2F20000C5F292
:1009100000210222016000214160C0E90221C0E9FA
:100920000611C0E91112C0E91311C0E91511C16522
:1009300007F022FD08B1FFF787FE43F6E8600121CA
:10094000C2F2000008F028FB002808BF80BDBDE807
:100950008040FFF779BE00BF80B582B041F2000150
:100960000068C5F2002188421CBF02B080BD44F27D
:10097000D4400022C5F60200016841F01001016078
:100980000068012100F01000019001985A2000F049
:10099000F3FA5A2002B0BDE8804000F01DBB00BF52
:1009A00041F200010068C5F20021884218BF70477B
:1009B00044F2D4415A20C5F602010A6822F010021E
:1009C0000A6000F019BB000010B58EB001A83421F8
:1009D0001AF07BFF43F6547041F20001C2F20000AE
:1009E000C5F20001002401602821C0E90144C0E9EA
:1009F0000344C0E90544C161082101624FF402715A
:100A000041624FF48C71816240F20D21C1624FF45A
:100A100090710163848680F8364008F0A9FB08B124
:100A2000FFF712FE01944FF4F070CDE902044FF489
:100A30008871049102220592FF22CDE906244FF429
:100A400080620892052209924FF04042CDE90A20C7
:100A500043F654700C91C2F2000001A90022ADF8D7
:100A600034408DF8364008F077FC08B1FFF7ECFD14
:100A70000EB010BD00BF00BF2DE9F04786B00027C3
:100A80000597CDE9037741F200010068C5F2000146
:100A900002978842019702D006B0BDE8F08744F281
:100AA000E04040F20048C5F60200C5F6020801AD7C
:100AB0004FF002094168032441F008014160416898
:100AC0004FF00E0A01F0080100910099016841F011
:100AD00001010160016801F00101009100990168C4
:100AE00041F002010160016801F0020100910099EA
:100AF000016841F010010160016801F010010091EE
:100B00000099016841F008010160016801F00801E5
:100B100000910099016841F00401016000682946D4
:100B200000F00400009000984FF41E700190A8F5AA
:100B30008060CDE902970494CDF814A003F05CFB2B
:100B4000CDE90149CDE903740920059040462946C5
:100B500003F052FB08F540664FF40060CDE901094F
:100B600030462946CDE90374CDF814A003F044FBC8
:100B70004FF470402946CDE901093046CDE90377AD
:100B8000CDF814A003F038FB4FF470602946CDE98E
:100B900001094046CDE90374CDF814A003F02CFB05
:100BA0004FF481602946CDE9010908F50060CDE9DF
:100BB0000374CDF814A003F01FFBC0202946CDE933
:100BC000010908F58060CDE90374CDF814A003F0A5
:100BD00013FB402007F0A0FB802007F09DFB58206E
:100BE0000121002200F0C8F9582000F0F5F906B004
:100BF000BDE8F08700BF00BF10B541F200010068FA
:100C0000C5F20001884218BF10BD44F2E440002440
:100C1000C5F60200C5F60204016821F00801016072
:100C20004FF41E71204603F0DBFB04F5806040F6B4
:100C3000037103F0D5FB04F580504FF4784103F0C5
:100C4000CFFB04F540604FF4816103F0C9FB04F56C
:100C50000060C02103F0C4FB5820BDE8104000F044
:100C6000CBB900000000000080B544F2700044F2EF
:100C70000041C2F20000C4F200010C2201604FF4F6
:100C8000E13141600021C0E902110161C0E90521A3
:100C9000C0E90711C0E909110FF04EF808B1FFF7DC
:100CA000D3FC44F270000021C2F2000011F038F8C9
:100CB00008B1FFF7C9FC44F270000021C2F2000045
:100CC00011F076F808B1FFF7BFFC44F27000C2F2F1
:100CD000000011F009F8002808BF80BDBDE8804081
:100CE000FFF7B2BC00BF00BF2DE9F04186B000267F
:100CF0000596CDE9036644F200410068C4F20001A4
:100D000002968842019602D006B0BDE8F08144F216
:100D1000E0400024C5F60200C5F6020401AD4FF024
:100D200002088168072741F400318160816801F47D
:100D3000003100910099016841F0010101600168F2
:100D400001F0010100910099016841F00801016082
:100D50000068294600F008000090009804200190E7
:100D60002046CDE902860496059703F045FA402017
:100D70002946CDE9010804F54060CDE903660597F1
:100D800003F03AFA26200321002200F0F5F826208D
:100D900000F022F906B0BDE8F08100BF00BF00BF3F
:100DA00010B544F200410068C4F20001884218BF47
:100DB00010BD44F2E8400024C5F60200C5F6020466
:100DC000016821F4003101600421204603F008FB92
:100DD00004F54060402103F003FB2620BDE81040ED
:100DE00000F00AB900000000704700BF00BF00BF5C
:100DF000FEE700BF00BF00BFFEE700BF00BF00BFAF
:100E0000FEE700BF00BF00BFFEE700BF00BF00BF9E
:100E1000704700BF00BF00BF44F27000C2F2000084
:100E200010F06ABC00BF00BF43F65470C2F200006D
:100E300008F026BA00BF00BF43F6E860C2F2000027
:100E400008F00AB800BF00BF44F20000C2F2000080
:100E50000BF012BE0000000081B044F2F44000220A
:100E6000C5F60200016841F00201016000680F212F
:100E700000F0020000906FF00100009B01B000F054
:100E80007BB8000000000000B0B58AB00F283ED843
:100E90000446762000222146002500F06DF87620D9
:100EA00000F09AF840F20000C2F20000046044F240
:100EB000F040C5F60200016841F48021016000683D
:100EC00001A900F480200290029802A801F0E4FB3E
:100ED00001F026FB4DF683614000C4F21B3144F65D
:100EE0000002A0FB010144F20000C2F200004FF03A
:100EF000FF33C4F20102026003EB9141C0E9011526
:100F000040F2E731C0E9031508F0B2FF10B101204B
:100F10000AB0B0BD44F20000C2F2000009F0DCF8F3
:100F20000AB0B0BD00BF00BF44F20000C2F2000032
:100F30000068C16821F00101C160704700BF00BFB7
:100F400044F20000C2F200000068C16841F00101F3
:100F5000C1607047000000004EF60C514FF6FF03D1
:100F6000CEF200010A681A4060F30A2242F0806063
:100F700040F0FD700860704770B54EF60C5C4FF0A5
:100F8000FF36CEF2000C00F16045DCF80030C3F310
:100F9000022E8EF00703042B28BF0423BEF10304A6
:100FA00006FA03F321EA030100F00F0338BF00241F
:100FB000043BB0F1FF3F634406FA04F003F10C0375
:100FC00001FA04F1C8BF05F5644322EA00000843B2
:100FD0000001187070BD00BF002848BF70474EF276
:100FE000001300F01F014009CEF20003012202FAB3
:100FF00001F143F820107047002848BF70474EF2B7
:10100000801300F01F014009CEF20003012202FA12
:1010100001F143F82010BFF34F8FBFF36F8F70477C
:1010200000F002F800BF00BF4EF60C500422CEF2D2
:101030000000C0F2FA52BFF34F8F016801F4E06183
:1010400011430160BFF34F8F00BF00BF00BF00BF5F
:10105000FAE700BF00BF00BF411E0020B0EB116FD8
:1010600001D0012070474EF21002F023CEF20002B0
:1010700051604EF62351CEF200010B7007219060B3
:101080001160704700BF00BF4EF62450CEF2000042
:10109000BFF35F8F016821F4803101600021016797
:1010A000704700BF00BF00BF4EF6245140F0010062
:1010B000CEF200010867086840F480300860BFF392
:1010C0004F8FBFF36F8F7047B0B502784EF69C5CC0
:1010D000CEF2000C43784CF8043CF2B14368CCF8F3
:1010E0000030037BC17A90F80AE0457B447A42EAFB
:1010F0000372837B42EA0161C27B41EACE41007AFE
:1011000041EA854141EA434141EA024141EA042181
:1011100041EA4000CCF80400B0BD0020CCF800004B
:10112000CCF80400B0BD00BF4EF60C50CEF200006B
:101130000068C0F30220704710B54EF6145400F05A
:101140000F0ECEF2000400F1604C7444B0F1FF3F8A
:10115000C8BF0CF5644401F007004FF0FF3E80F07B
:10116000070194F800C0042928BF042103384FEA7E
:101170001C1438BF00200EFA01F1C4400EFA00F032
:1011800024EA0101C043116000EA1C10186010BD80
:10119000002848BF70474EF2002300F01F014009AD
:1011A000CEF20003012202FA01F143F82010704749
:1011B00000280DD44EF200224109CEF2000200F0C8
:1011C0001F0052F8211021FA00F000F001007047D2
:1011D0000020704700BF00BF002848BF70474EF294
:1011E000802300F01F014009CEF20003012202FA21
:1011F00001F143F82010704700280DD44EF2003260
:101200004109CEF2000200F01F0052F8211021FA2D
:1012100000F000F0010070470020704700BF00BFE1
:101220004EF210010428CEF200010A6822F00402F6
:1012300008BF04320A60704700F002B800BF00BF68
:10124000704700BF00BF00BF0320704700000000D0
:1012500010B5C0B10446006A20B90020E061204604
:10126000FFF726FB02202062207970B1D4E9021238
:10127000204600F0F5FA00281CBF012010BD60795F
:1012800080B1206910E0012010BD206841F6B751FF
:10129000C0F2C1414161816821F01801816060792B
:1012A0000028EED14FF0FF302168D4E90523086112
:1012B000886820F0600010438860886820F0800013
:1012C0001843886001202062002010BD00BF00BFCD
:1012D000704700BF00BF00BFB0B5A8B10446006AA8
:1012E00002284FF002050DD0256200252068816894
:1012F00041F001018160416845602046FFF7F0FA46
:101300002562E5612846B0BD0120B0BD00BF00BF29
:10131000704700BF00BF00BFF0B502230362456AFB
:101320000023012D0FD0022D1BD0032D40F037815B
:10133000002A036800F03281551E02F0030C032DD1
:101340001FD200222EE0B3EB920F00F0A78093088B
:10135000D0F800E05D1E03F0030C032D38D200230B
:1013600055E00025B5EB520F00F0FB805308D0F894
:1013700000E05F1E03F0030C032F80F09B8000232E
:10138000C5E022F0030EA1F11004002254F8105F12
:101390001D6065681D600432A5681D609645E5689E
:1013A0001D60F3D1BCF1000F00F0F880BCF1010F1B
:1013B00051F822701F6000F0F18001EB8201BCF156
:1013C000020F4A681A6000F0E98089681960E5E058
:1013D00023F0030401F10F05002300BF55F80F6C43
:1013E00004339C4236BACEF8006055F80B6C36BA1E
:1013F000CEF8006055F8076C36BACEF8006055F8A4
:10140000036C05F1100536BACEF80060E6D1BCF1E8
:10141000000F41D09C0011F82370651CA61C0334FA
:10142000BCF1010F4D5D8E5D0C5D4FEA054545EA4F
:10143000076545EA06252C44CEF800402CD05C1CFC
:10144000BCF1020F4FEA840505F1010605F1020720
:1014500011F8244005F103058E5DCF5D4D5D4FEA27
:10146000064646EA046444EA072404EB0507CEF87E
:10147000007011D002339F007E1CBD1C11F8233078
:1014800003378E5D4D5DCF5D360446EA036343EA64
:1014900005233B44CEF8003022F0030302F00302A0
:1014A000032A65D0022A70D0012A76D10268C95C6D
:1014B000117072E04FF6FC7401F10E05C3F6FF7473
:1014C00004F180441C40002335F80E6C35F80C7C88
:1014D00004339C4247EA0646CEF8006035F80A6CB1
:1014E00035F8087C47EA0646CEF8006035F8066C09
:1014F00035F8047C47EA0646CEF8006035F8026C01
:1015000035F8107B47EA0646CEF80060DCD1BCF126
:10151000000F24D09C0031F823500234BCF1010F9D
:101520000C5B44EA0544CEF8004018D05C1CBCF1CA
:10153000020F4FEA840505F1020531F824404D5BA6
:1015400045EA0447CEF8007009D002339F00023705
:1015500031F82330CF5B47EA0343CEF8003022F066
:101560000105D20719D0036831F81510198015E06C
:1015700043F00102CF5C066843F002038A5C42EA52
:1015800007223280C95C317007E043F00102CB5C76
:10159000895C026841EA0321118003681B6801210C
:1015A00001621846F0BD00BFF0B502230362D0F817
:1015B00000E0436A012B4FF0000CDEF8085045F0C4
:1015C0000105CEF808500ED0022B18D0032B40F0A6
:1015D0003D81002A00F03881531E02F0030C032BDA
:1015E0001BD200222EE0BCEB920F00F0A9809308E2
:1015F0005D1E03F0030C032D3DD2002359E00023B0
:10160000B3EB520F00F0FF8053085F1E03F0030C92
:10161000032F80F0A0800023CBE022F00305A1F18E
:101620001004002254F8103FCEF800306368CEF862
:1016300000300432A368CEF800309542E368CEF85B
:101640000030EFD1BCF1000F00F0FE80BCF1010FC3
:1016500051F82230CEF8003000F0F68001EB820124
:10166000BCF1020F4A68CEF8002000F0ED808968D6
:10167000CEF80010E8E023F0030401F10F05002389
:1016800055F80F6C04339C4236BACEF8006055F81A
:101690000B6C36BACEF8006055F8076C36BACEF847
:1016A000006055F8036C05F1100536BACEF80060FD
:1016B000E6D1BCF1000F41D09C0011F82370651CED
:1016C000A61C0334BCF1010F4D5D8E5D0C5D4FEA2D
:1016D000054545EA076545EA06252C44CEF8004055
:1016E0002CD05C1CBCF1020F4FEA840505F1010609
:1016F00005F1020711F8244005F103058E5DCF5D69
:101700004D5D4FEA064646EA046444EA072404EBCA
:101710000507CEF8007011D002339F007E1CBD1C5F
:1017200011F8233003378E5D4D5DCF5D360446EAF8
:10173000036343EA05233B44CEF8003022F0030C58
:1017400002F00302032A65D0022A72D0012A79D15D
:1017500011F80C106AE04FF6FC7401F10E05C3F6A7
:10176000FF7404F180441C40002300BF35F80E6C68
:1017700035F80C7C04339C4247EA0646CEF80060FC
:1017800035F80A6C35F8087C47EA0646CEF8006062
:1017900035F8066C35F8047C47EA0646CEF800605A
:1017A00035F8026C35F8107B47EA0646CEF8006043
:1017B000DCD1BCF1000F24D09C0031F8235002345E
:1017C000BCF1010F0C5B44EA0544CEF8004018D090
:1017D0005C1CBCF1020F4FEA840505F1020531F8EB
:1017E00024404D5B45EA0447CEF8007009D002332F
:1017F0009F00023731F82330CF5B47EA0343CEF82E
:10180000003022F00103D2071ED031F81310AEF8D9
:10181000001019E04CF0010211F80C304CF00207F6
:101820008A5C42EA0322AEF80020C95D8EF80010FF
:1018300008E04CF0010211F80C30895C41EA032108
:10184000AEF80010D0F800E0DEF800C0012101621F
:101850006046F0BD00BF00BF006A70470000000096
:1018600080B54FF01B0C0CF1030E21FA0EF3DB07D1
:101870001ED10CF1020E21FA0EF3DB0701BF0CF1B1
:10188000010E0EF01F0321FA03F35FEAC3730FD1B9
:10189000BEF1000F0AD00CF01F03ACF1040C21FACA
:1018A00003F3DB07DFD00CF1040E01E04FF0FF3E45
:1018B0004FEAF20CBCF1030F06D8DFE80CF011027E
:1018C000070CBEF10F0F0BD9012080BDBEF1070F31
:1018D00006D9012080BDBEF1060F01D9012080BDCF
:1018E00000684161816821F0180111438160002086
:1018F00080BD00BF00BF00BF02460220106210681A
:10190000836823F060031943816000200121116284
:10191000704700BF00BF00BF02460220106210687F
:10192000836823F080031943816000200121116244
:1019300070470000000000002DE9F04142F200086D
:10194000C5F20028D8F8000000F00F0006280CD8D7
:10195000D8F80000072161F30300C8F80000D8F8A8
:10196000000000F00F00072831D144F20047C5F60F
:10197000020706F0A9F90446386840F00100386013
:101980003868400707D406F09FF9001B0228F7D9F2
:101990000320BDE8F081786849F2000140F0804002
:1019A00078600020386140F20800C0F2D031C2F205
:1019B000000040F20002C2F20002016040F20C009E
:1019C000C2F2000001601068FFF75EFA10B101205A
:1019D000BDE8F08106F078F9044641F2883600BF90
:1019E0003D6906F071F915F0380F054605D0281B42
:1019F000B042F5D90320BDE8F0814EF64551386874
:101A0000CFF6F671084038603C6806F05DF9A10336
:101A1000044605D5601B6428F6D90320BDE8F08193
:101A2000386820F0807038603D6806F04DF9A901F3
:101A3000054605D5281B02284FF00300F4D956E0CF
:101A4000386820F0806038603C6806F03DF921017C
:101A5000044605D5601B02284FF00300F4D946E088
:101A6000386820F0805038603868800007D506F06C
:101A70002BF9001B02284FF00300F5D937E040F2A4
:101A800000210020B861C0F20221F8613862B96219
:101A90000021C0F2FF11F96240F28021C0F2011171
:101AA00039637863B963F86339647864396821F419
:101AB0008021396038664FF0FF30B866D7F8D00023
:101AC00040F48030C7F8D000D8F8000000070DD5EA
:101AD000D8F80000072161F30300C8F80000D8F827
:101AE000000000F00F0007287FF471AF0020BDE870
:101AF000F08100BF00BF00BFF0B581B0002800F04A
:101B00003A810446007844F20046C007C5F6020652
:101B100012D0306900F03801B06A102905D01829B8
:101B20002BD100F00300022827D13068800303D5B1
:101B30006068002800F01F812078800740F18B80CA
:101B4000306910F03801B06A27D0182908BF5FEA61
:101B5000807022D0E0683168E0B321F019010843B9
:101B6000306006F0B1F80546306840071CD406F036
:101B7000ABF8401B0228F7D949E16068D8B3B0F54B
:101B8000A02F4FD0B0F5803F50D0306820F4803087
:101B90003060306820F480204BE03068400703D587
:101BA000E068002800F0E78006F0EAF841F203015F
:101BB000884208D820697168402821F47C3147D1D7
:101BC00041F4003046E07068216920F0FE4040EAB0
:101BD00001603FE021F00100306006F075F8054635
:101BE0003068400737D506F06FF8401B02284FF0E9
:101BF0000300F5D9E5E1306820F4803030603068CA
:101C000020F48020306006F05FF8054630688003DD
:101C10007FF592AF06F058F8401B64284FF00300A0
:101C2000F4D9CEE1306840F480203060306840F470
:101C30008030306006F048F8054600BF3068800309
:101C40003FF57AAF06F040F8401B6428F6D9DEE095
:101C500041EA003070602078C00651D5306900F04C
:101C60003801B06A082905D0182918D100F00300FE
:101C7000012814D13068C00502D5E06980287AD1E6
:101C800006F07EF841F2030188421CD8206A716890
:101C9000202821F0F84130D141F080402FE0E06968
:101CA0000028306817D040F08000306006F00CF853
:101CB000054600BF3068C005E2D406F005F8401BB9
:101CC0000228F7D9A3E0F068216A20F07C5040EAAE
:101CD0000160F06014E020F08000306005F0F4FF57
:101CE000054600BF3068C0050AD505F0EDFF401B72
:101CF00002284FF00300F5D963E141EA806070608B
:101D0000207800073AD4207880064AD4207840070B
:101D10005BD4656A65B3306900F03800182840F07C
:101D20009B80012DB16A306B25D001F00302A36ABC
:101D30009A4220D1C1F30511E26A91421BD10146BA
:101D4000226B6FF35F21013A914214D1C0F3462216
:101D5000616B01398A420ED1C0F30642A16B013991
:101D60008A4208D1C0F30660E16B0139884202D192
:101D7000002001B0F0BD012001B0F0BD6069002875
:101D8000706F35D040F00100706705F09DFF05468B
:101D9000706F8007B7D405F097FF401B0228F7D972
:101DA00035E0A0690028306843D040F480503060AE
:101DB00005F08AFF054600BF30688004A6D405F010
:101DC00083FF401B0228F7D921E0D6F8000440F435
:101DD0008070C6F8000405F077FF0546D6F80004C9
:101DE000C00517D405F070FF401B6428F6D90EE03B
:101DF00020F00100706705F067FF0546706F8007EF
:101E00007FF581AF05F060FF401B0228F6D9032063
:101E100001B0F0BDA068002840D0052858D00128A6
:101E20005AD0306F20F001003067306F20F004008E
:101E300055E020F48050306005F046FF054600BFB5
:101E4000306880047FF562AF05F03EFF401B02283A
:101E50004FF00300F4D9B4E0306820F080703060B7
:101E600005F032FF022D05460CD100BF306880011D
:101E700048D505F029FF401B02284FF00300F5D993
:101E80009FE000BF306880017FF572AF05F01CFF56
:101E9000401B02284FF00300F4D992E0306F20F08D
:101EA00001003067306F20F00400306705F00CFF50
:101EB000054641F2883700BF306F80077FF529AFB4
:101EC00005F002FF401BB8424FF00300F4D978E060
:101ED000306F40F004003067306F40F00100306731
:101EE00005F0F2FE054641F2883700BF306F8007EB
:101EF0003FF50FAF05F0E8FE401BB8424FF003007E
:101F0000F4D95EE004F12807B06A40F2F331884367
:101F10008ECF0843591E40EA02104FF47E426FF301
:101F20005F21B06202EB47204FF4FE0280B2E36B08
:101F30000844A16B02EB01414FF0FE4201F4FE01A7
:101F400002EB0362084402F0FE4108443063F06A89
:101F50004FF6F87120F00100F062706BA26C8843BC
:101F600040EAC2007063F06A216C20F00C00084364
:101F7000F062F06A616C20F002000843F062F06ADF
:101F800040F48030F062F06A40F40030F062F06AB1
:101F900040F48020F062F06A40F00100F0623068A6
:101FA00040F08070306005F08FFE0446306880019C
:101FB0003FF5DEAE05F088FE001B02284FF003005F
:101FC000F4D901B0F0BD00BF2DE9F04381B0002885
:101FD00000F0288142F200080446C5F20028894634
:101FE000D8F8000000F00F0088420ED2D8F80000A8
:101FF00020F00F0040EA0900C8F80000D8F80000FF
:1020000000F00F00484540F00D81206844F2184769
:102010004107C5F602070AD521693A6802F0700245
:10202000914204D93A6822F07002114339600107E5
:102030000AD561697A6802F07002914204D97A681F
:1020400022F0700211437960C1060AD5A1697A684D
:1020500002F4E062914204D97A6822F4E06211430A
:10206000796081060AD5E169BA6802F0700291428E
:1020700004D9BA6822F070021143B96010F002016D
:102080000AD0E2683B6803F00F039A4204D93B6828
:1020900023F00F031A433A60C20745D0386820F492
:1020A0007061D4E90102012841EA0201396009D0D6
:1020B00003280DD0022811D157F8181C890340F1CC
:1020C000B18010E057F8181CC90540F1AB800AE058
:1020D00057F8181C890140F1A58004E057F8181C36
:1020E000490740F19F8057F8081C21F00701084379
:1020F00047F8080C05F0E8FD064641F2883500BFB8
:1021000057F8080C616800F03800B0EBC10F08D038
:1021100005F0DAFD801BA842F2D9032001B0BDE82A
:10212000F083206800F0020151B1E1683A6802F0E2
:102130000F02914204D23A6822F00F021143396033
:10214000D8F8001001F00F0149450DD9D8F800105A
:1021500021F00F0141EA0901C8F80010D8F8001079
:1021600001F00F0149455DD141070AD521693A685F
:1021700002F07002914204D23A6822F070021143D8
:10218000396001070AD561697A6802F070029142EC
:1021900004D27A6822F0700211437960C1060AD530
:1021A000A1697A6802F4E062914204D27A6822F46A
:1021B000E0621143796080060AD5E069B96801F0F0
:1021C0007001884204D2B96821F070010843B860F8
:1021D00000F02EF8396842F2C0133A68C9F20303DE
:1021E000C1F3032102F00F02595C9A5C01F01F0158
:1021F00020FA01F102F01F0040F20C0221FA00F077
:10220000C2F20002106040F2000040F20802C2F286
:102210000000C2F200020068116001B0BDE8F043A6
:10222000FEF732BE012001B0BDE8F08300BF00BF61
:1022300044F23041C5F6020151F8200CC0F3C2004F
:10224000032812D002283ED0002841D151F8300C8A
:10225000800649F20000C0F2D03058BF704751F8F4
:10226000301CC1F3C101C840704751F8082C51F827
:10227000080CC0F3051C51F8040CBCF1000F4B68AE
:102280002BD0C3F3CC0300F00100584302F003024B
:10229000022A00EE100AB8EE400A2ED0012A1ED003
:1022A000EAB951F8300C80064BD408689FED382A03
:1022B0006FF35F2001EE100AB8EE411AA0EE021A89
:1022C0009FED360A26E047F64000C0F27D107047C9
:1022D00040F60010C0F23D007047002070470868CB
:1022E0009FED2B2A6FF35F2001EE100AB8EE411A22
:1022F000A0EE021A9FED280A0CE008689FED242A40
:102300006FF35F2001EE100AB8EE411AA0EE021A38
:102310009FED200AA1EE000A01EE10CAB8EE411AA4
:1023200080EE010A0868C0F34620013001EE100A71
:10233000B8EE411A80EE010ABCEEC00A10EE100A97
:10234000704751F8300C0A689FED111AB7EE002A59
:102350006FF35F22A0EE012AC0F3C10000EE102A45
:1023600049F20002C0F2D03222FA00F0B8EE400A80
:1023700001EE100A32EE000A02EE10CAB8EE411A5F
:10238000B8EE422A20EE010A80EE020ACAE700BF38
:102390000000003920BCBE4B0024744A0024744C59
:1023A00070B586B0002844F2E04640F200001446C2
:1023B0000D46C5F60206C5F602001DD0316800F5CF
:1023C000006041F004013160316801F004010191C5
:1023D00001994FF4007101910221029103210491AE
:1023E00000210391059101A901F006FF56F8D00CD8
:1023F000E40120F07E4019E0316841F001013160D4
:10240000316801F00101019101994FF4807101914E
:10241000022102910321049100210391059101A958
:1024200001F0EAFE56F8D00C20F0FE7044EA0501F7
:10243000084346F8D00C06B070BD00BF00BF00BF17
:1024400044F20040C5F60200016841F40021016039
:10245000704700BF00BF00BF44F20040C5F6020055
:10246000016821F400210160704700BF00BF00BF78
:1024700080B5FFF7DDFE44F2184142F2C013C5F605
:102480000201C9F203030A68096801F00F01C2F3EF
:102490000322595C9A5C02F01F0220FA02F201F05A
:1024A0001F0040F20C0122FA00F0C2F200010860A5
:1024B00040F20801C2F200010A6080BD00BF00BF07
:1024C00080B5FFF7B5FE44F2184C42F2C011C5F6D4
:1024D000020CC9F20301DCF80020DCF8003003F044
:1024E0000F03C2F30322CB5C8A5C02F01F02D040D0
:1024F00003F01F0240F20C0320FA02F2C2F20003C2
:102500001A6040F20803C2F200031860DCF804000D
:10251000C0F30210085C00F01F0022FA00F080BD3A
:1025200080B5FFF785FE44F2184C42F2C011C5F6A3
:10253000020CC9F20301DCF80020DCF8003003F0E3
:102540000F03C2F30322CB5C8A5C02F01F02D0406F
:1025500003F01F0240F20C0320FA02F2C2F2000361
:102560001A6040F20803C2F200031860DCF80400AD
:10257000C0F30220085C00F01F0022FA00F080BDCA
:10258000F0B581B0044644F20045C5F602053F208F
:1025900020602868400304D42868C00304D40020C5
:1025A00004E04FF4A02001E04FF480306060286820
:1025B00000F08000E06105F0E3FB41F204060C212D
:1025C000B0424FF0180038BF042138BF1A204FF036
:1025D0003F024FF0180738BF1F22695821FA00F058
:1025E00010402062286800F00100E06005F0C8FBA0
:1025F000B0424FF07F0038BF0C27696838BF3F20DA
:10260000F94008402061286F400705D4286FC007B3
:1026100005D10020A06004E00520A06001E00120B9
:10262000A060686F00F0010060612868C0F30030AE
:10263000A0612868C0014FF0020058BF012060620D
:10264000A86A00F00300A062A86AC0F30510E06267
:10265000286B6FF35F2001302063286BC0F30660A6
:102660000130E063286BC0F3462001306063286BC3
:10267000C0F306400130A063E86A00F00C0020645B
:10268000E86AC0F340006064686BC0F3CC00A064EB
:1026900001B0F0BD00BF00BF3F22026044F218420B
:1026A000C5F6020252F8083C03F0070343601368C2
:1026B00003F470638360136803F00F03C36013684F
:1026C00003F070030361536803F0700343615368C0
:1026D00003F4E0638361926802F07002C26142F227
:1026E0000000C5F20020006800F00F00086070478D
:1026F00010B544F26444C5F602042068400558BF92
:1027000010BD00F005F84FF48060606010BD00BFA0
:1027100070470000000000002DE9F0470446C07833
:1027200044F22C480007C5F6020841D5606E4FEA16
:10273000305103290AD8DFE801F0020E2B34D8F813
:10274000001041F40031C8F800102AE0012660783A
:10275000C00709D030E0201D022100F0CDFD064663
:10276000F0B16078C00727D13546374660788007DA
:102770003AD43E46607840074ED4B14660780007B0
:1027800000F164804F46E078800740F1518177E0A6
:1027900004F12400022100F03FFE06460028E0D1AB
:1027A000606ED8F8241021F440110843C8F82400C2
:1027B00000266078C007D7D0606D042800F2A280A0
:1027C0003546DFE800F003A6AB0A0A00D8F800009F
:1027D000354640F40030C8F80000002D2F4600F0C8
:1027E000A78060788007C4D5A06D4FEAB010042898
:1027F00000F2AD80DFE800F003B2B7090900D8F8B5
:10280000000040F40030C8F80000002D2E4600F013
:10281000B48060784007B0D5D4F8A4004FEA705077
:10282000042800F2B980DFE800F003BFC409090002
:10283000D8F8000040F40030C8F80000002DA94688
:1028400000F0C180607800077FF59CAFD4F8A80045
:102850004FEA3060042800F2C680DFE800F003CBC6
:10286000D0090900D8F8000040F40030C8F8000092
:10287000002D2F4600F0CD80E078800740F1D88011
:10288000A06C4FEA3010032819D8DFE800F0021FCF
:1028900029022E4665B36078C00600F1CE80374627
:1028A0006078800600F1E2803E466078400600F1E4
:1028B000F08037466078000640F1A481FDE00125F4
:1028C00001266078C00600F1B880E8E7D8F800007B
:1028D00040F40030C8F80000002D2E46DBD107E0A0
:1028E000201D022100F008FD0546002D2E46D2D104
:1028F000D8F82000A16C20F0300000250843C8F86B
:10290000200095E001250127607880073FF56CAF36
:102910002FE7201D002100F0EFFC04E004F124006B
:10292000002100F079FD0546002D2F467FF459AFB8
:10293000D8F82400616D20F0070000250843C8F88E
:1029400024003746607880077FF513AF4CE70125F8
:102950000126607840073FF55FAF0EE7201D00219C
:1029600000F0CAFC04E004F12400002100F054FD52
:102970000546002D2E467FF44CAFD8F82400A16DFB
:1029800020F4E07000250843C8F824003E46607833
:1029900040077FF5F2AE3FE701254FF0010960786F
:1029A00000073FF553AFEDE6201D002100F0A4FC29
:1029B00004E004F12400002100F02EFD0546002D66
:1029C000A9467FF43FAFD8F82C00D4F8A41020F427
:1029D000600000250843C8F82C00B1466078000765
:1029E0007FF5D0AE32E701250127E07880073FF57B
:1029F00047AF1DE0201D002100F07EFC04E004F143
:102A00002400002100F008FD0546002D2F467FF42C
:102A100033AFD8F82C00D4F8A81020F0E0600025DF
:102A20000843C8F82C004F46E07880073FF528AFF0
:102A30003E466078C0067FF532AFE06D4FEA303039
:102A4000042800F26780DFE800F0036B70090900DA
:102A5000D8F8000040F40030C8F80000002D2F46E0
:102A600000F06D80607880067FF51EAF206E4FEA23
:102A70003040052800F27280DFE800F00377810320
:102A80000303002D2E4600F08480607840067FF519
:102A900010AFD4F8AC004FEA3070052800F28880FF
:102AA000DFE800F0038D97030303002D2F4600F0AD
:102AB0009A806078000640F1A580E06E58B1B0F1D0
:102AC000005F0FD0B0F1805F1ED1D8F8000040F455
:102AD0000030C8F800002E4665B1E078C00700F06D
:102AE000C48093E0201D012100F006FC0546002D66
:102AF0002E46F2D1D8F82400E16E20F04050002597
:102B00000843C8F824007DE001250126E078C007CD
:102B10007CD1AAE00125012760788006A6D4C3E60F
:102B2000201D002100F0E8FB04E004F12400002156
:102B300000F072FC0546002D2F467FF493AFD8F8C5
:102B40002400E16D20F4E04000250843C8F824008B
:102B50003746607880067FF5A7AE87E70125012616
:102B6000607840063FF595AFA3E6201D012100F0F7
:102B7000C3FB0546002D2E467FF487AF09E004F124
:102B80002400012100F048FC0546002D2E467FF46C
:102B90007CAFD8F82400216E20F4E0200025084303
:102BA000C8F824003E46607840067FF582AE70E7A4
:102BB00001250127607800063FF57FAF22E0201D48
:102BC000012100F099FB0546002D2F467FF471AFDF
:102BD00009E004F12400012100F01EFC0546002D4F
:102BE0002F467FF466AFD8F82C00D4F8AC1020F054
:102BF000E04000250843C8F82C00374660780006FE
:102C00003FF55BAF3E46E078C0072ED0606C0328EE
:102C100009D8DFE800F0020F1902A946E5B1A07853
:102C2000400628D425E001254FF00109A078400690
:102C30001FD520E0D8F8000040F40030C8F80000AC
:102C4000002DA946EBD107E0201D022100F054FB26
:102C50000546002DA946E2D1D8F82000616C20F08D
:102C6000030000250843C8F82000B146A0784006BC
:102C700001D44F4617E0D8F8D40340F48070C8F868
:102C8000D40305F021F80646D8F8D403C00507D4CC
:102C900005F01AF8801B6428F6D90325032702E003
:102CA000002D2F4664D02078C00700F0B580A06FBB
:102CB0004FEAF000052800F28C80DFE800F0039076
:102CC0009A030303002D2E4600F09D802078800794
:102CD00000F1A78037462078400700F1B6803E46D5
:102CE0002078800600F1C68037462078400600F143
:102CF000D8803E462078000600F1EA8037462068FA
:102D0000010740F1FC80D4F88010B1F5805F0AD152
:102D100004F12400022100F07FFB002818BF0127E6
:102D20002068D4F88010D8F8282022F440521143AB
:102D3000C8F82810C10640F1E580D4F89410B1F528
:102D4000807F0AD104F12400022100F065FB0028F5
:102D500018BF01272068D4F89410D8F82C2022F44A
:102D600040721143C8F82C10000340F1F180CBE011
:102D7000D8F84410D4F8B000414011F4407F11D08D
:102D8000D8F84410D8F8442042F48032C8F84420DF
:102D9000D8F8442021F4407122F48032C8F844204D
:102DA000C8F84410B0F5807F40F08B8204F08CFFAF
:102DB000064641F2883A0325032700BFD8F84400AD
:102DC000800700F17C8204F07FFF801B5045F5D91D
:102DD00069E7012501262078800722D47AE7201DA3
:102DE000012100F089FA0546002D2E467FF46EAFD2
:102DF00009E004F12400012100F00EFB0546002D3E
:102E00002E467FF463AFD8F82800A16F20F0380079
:102E100000250843C8F828003E46207880077FF543
:102E200059AF606F052800F27481DFE810F00600EA
:102E300079018301060006000600002D2F4600F0F0
:102E40008381207840077FF54AAFD4F890000528A9
:102E500000F28981DFE810F006008E01980106007B
:102E600006000600002D2E4600F09881207880068E
:102E70007FF53AAFD4F88C004FEA3070052800F2A5
:102E80009D81DFE810F00600A201AC0106000600FB
:102E90000600002D2F4600F0AC81207840067FF51B
:102EA00028AFD4F898004FEAB020052800F2B1818D
:102EB000DFE810F00600B601C001060006000600BB
:102EC000002D2E4600F0C081207800067FF516AF59
:102ED000D4F89C004FEA7030052800F2C581DFE885
:102EE00010F00600CA01D401060006000600002DFD
:102EF0002F4600F0D481206801073FF504AFC106DA
:102F00003FF51BAF000323D5D4F8A000B0F5003F78
:102F10000ED0B0F5803F05D0A8BB201D002100F0E9
:102F2000EBF904E004F12400022100F075FA0546F3
:102F30002E461DB1A07840073ED50DE0D8F82C00F4
:102F4000D4F8A01020F4403000250843C8F82C0025
:102F50003E46A07840072FD5D4F88400B0F5401F36
:102F60000BD0B0F5001F14D0B0F5801F63D1D8F896
:102F7000000040F40030C8F800002F4695B1A0785A
:102F8000C0071DD15CE001260125A0784007E3D4ED
:102F900012E004F12400012100F03EFA0546002D64
:102FA0002F46ECD1D8F82800D4F8841020F4401033
:102FB00000250843C8F828003746A078C0073FD04E
:102FC000E06CB0F5803F1ED078BBD8F8000040F42C
:102FD0000030C8F800002E46EDB12068810033D4DF
:102FE00081033CD4C10250D4C10058D4810261D4C1
:102FF000410069D4B0F1FF3F77DD002E18BF0126F4
:103000003046BDE8F087201D022100F075F9054625
:10301000002D2E46E1D1D8F82000E16C20F480305C
:1030200000250843C8F820000AE001260125206891
:103030008100D5D508E001270125A078C007BFD1C0
:103040003E4620688100CBD504F12400022100F027
:10305000E3F9002818BF012620688103C2D5E16F7B
:103060006FF0010202EB3122022A0AD34FEA312229
:103070003AB1012A06D1D8F8002042F40032C8F84B
:103080000020DDB30126C102AED5D8F82410226F8E
:1030900021F000411143C8F82410C100A6D558F80A
:1030A0001C1CD4F8B42021F48041114348F81C1CA6
:1030B00081029DD5D8F82410A26E21F080711143B1
:1030C000C8F82410410095D558F81C1C21F4004183
:1030D00048F81C1CD4F8B81058F81C2C114348F8B8
:1030E0001C1CB0F1FF3F3FF788AFD8F82000216DDE
:1030F00020F040500843C8F820007EE7D8F8282088
:1031000022F440721143C8F82810C1027FF56CAF59
:10311000BBE701250127207840073FF596AEDEE5A5
:10312000201D012100F0E8F80546002D2F467FF410
:1031300088AE09E004F12400012100F06DF9054694
:10314000002D2F467FF47DAED8F82800616F20F067
:10315000070000250843C8F82800374620784007B4
:103160007FF5BDAD71E601260125207880063FF58B
:1031700081AEB9E5201D012100F0BEF80546002D05
:103180002E467FF473AE09E004F12400012100F023
:1031900043F90546002D2E467FF468AED8F82C0082
:1031A000D4F8901020F0070000250843C8F82C0040
:1031B0003E46207880067FF597AD5BE60127012526
:1031C000207840063FF56DAE93E5201D002100F00C
:1031D00093F80546002D2F467FF45FAE09E004F119
:1031E0002400022100F018F90546002D2F467FF437
:1031F00054AED8F82800D4F88C1020F0E040002518
:103200000843C8F828003746207840067FF571AD9E
:1032100047E601260125207800063FF559AE6DE509
:10322000201D002100F068F80546002D2E467FF491
:103230004BAE09E004F12400022100F0EDF8054650
:10324000002D2E467FF440AED8F82C00D4F898100C
:1032500020F4E05000250843C8F82C003E462078B2
:1032600000067FF54BAD33E60127012520680107F5
:103270007FF545AE47E5201D002100F03DF80546ED
:10328000002D2F467FF437AE09E004F1240002211F
:1032900000F0C2F80546002D2F467FF42CAED8F87A
:1032A0002C00D4F89C1020F4604000250843C8F896
:1032B0002C003746206801077FF521AE23E5D4F8BE
:1032C000B0004FF6CF7358F81C2CC0F2FF0300F487
:1032D000407122F47C5203EA10136FF31F30B1F5F2
:1032E000407F08BF1A43002548F81C2CD8F844102A
:1032F0000843C8F84400BCE4F0B581B044F22C4760
:10330000C5F6020757F8042C02F00302032A02D183
:10331000012001B0F0BD054657F82C0C0C4620F0FA
:10332000806047F82C0C04F0CFFC064657F82C0CB4
:10333000000105D504F0C8FC801B0228F6D964E022
:1033400057F8040CEE6895E80E0020F47C30012C50
:1033500040EA0130A2F101016FF35F214FF47E4298
:1033600002EB432247F8040C92B24FF0FE4302EB0B
:1033700001004FF4FE012A6901EB064101F4FE0150
:1033800003EB0262084402F0FE410844F86038682A
:10339000696920F0C00040EA010038603868A96916
:1033A00020F0200040EA0100386038684FF6F871DC
:1033B00020F0100038603869EA6920EA01004FF413
:1033C000001140EAC2003861386808BF4FF480112C
:1033D00040F01000002C386008BF4FF4002138681E
:1033E0000843386057F82C0C40F0806047F82C0CEC
:1033F00004F06AFC044600BF57F82C0C000107D407
:1034000004F062FC001B0328F6D3032001B0F0BDDA
:10341000002001B0F0BD00BFF0B581B044F22C47F0
:10342000C5F6020757F8042C02F00302032A02D162
:10343000012001B0F0BD054657F82C0C0C4620F0D9
:10344000805047F82C0C04F03FFC064657F82C0C33
:10345000800005D504F038FC801B0228F6D964E012
:1034600057F8040CEE6895E80E0020F07C70012CF3
:1034700040EA0150A2F101016FF35F214FF47E4257
:1034800002EB432247F8040C92B24FF0FE4302EBEA
:1034900001004FF4FE012A6901EB064101F4FE012F
:1034A00003EB0262084402F0FE4108447861386888
:1034B000696920F4406040EA010038603868A96911
:1034C00020F4007040EA0100386038684FF6F87167
:1034D00020F480703860B869EA6920EA01004FF092
:1034E000807140EAC200B861386808BF4FF400013B
:1034F00040F48070002C386008BF4FF480013868B9
:103500000843386057F82C0C40F0805047F82C0CDA
:1035100004F0DAFB044600BF57F82C0C800007D4F7
:1035200004F0D2FB001B0328F6D3032001B0F0BD4A
:10353000002001B0F0BD00BF6FF08061016044F277
:103540005041C5F6020151F8282CC2F305524262DF
:1035500051F8102C6FF35F220132826251F8102C67
:10356000C2F306620132426351F8102CC2F34622C4
:103570000132C26251F8102CC2F3064201320263DA
:1035800051F8242CC2F38122826351F8242CC2F317
:103590004022C26351F8282CC2F30532426051F830
:1035A000182C6FF35F220132826051F8182CC2F39D
:1035B00006620132426151F8182CC2F346220132F0
:1035C000C26051F8182CC2F306420132026151F870
:1035D000242CC2F38112826151F8242CC2F34012D0
:1035E000C2614A6802F0380282674A6802F0070244
:1035F00042678A6802F00702C0F890204A6802F425
:103600004052C0F880204A6802F0E042C0F88C20A6
:103610008A6802F4E052C0F898208A6802F4604296
:10362000C0F89C200A6802F0070242650A6802F4AA
:10363000E07282658A6802F46002C0F8A4208A6899
:1036400002F0E062C0F8A8200A6A02F44072C0F8F2
:10365000B0204A6802F44012C0F8842051F8042CCB
:1036600002F48032C2644A6802F44072C26751F8C0
:10367000402C02F48042C0F8B4208A6802F4403240
:10368000C0F8A0200A6802F0004202670A6802F04F
:10369000807282660A6802F4401242660A6802F486
:1036A000E042C2650A6802F4E02202668A6802F01B
:1036B000E042C0F8AC200A6802F04052C2664A6894
:1036C00002F44002C0F8882051F8042C02F00302F2
:1036D000426451F8042C02F03002826451F8042C48
:1036E00002F04052026551F8401C01F40041C0F85C
:1036F000B810704700BF00BF10B584B00146B0F5E8
:10370000805F4FF000002DDAB1F5806F5BDAB1F524
:10371000807F00F09780B1F5007F40F0328144F265
:103720004C41C5F602014868C0F38212042A00F237
:10373000188148F20000C0F2BB00DFE812F0E000A0
:10374000D300E60022010500086810F0405000F0A8
:103750001181B0F1005F00F00781B0F1805F00F0EF
:10376000EA80FEE0B1F5803F54DAB1F5805F00F009
:103770008A80B1F5804F40F0048144F24C44C5F694
:103780000204E068C0F30271052900F2F98049F2F1
:103790000000C0F2D030DFE811F00600F600FC00B7
:1037A000F400CE00E700FEF763FE54F82C1C42F252
:1037B000C012C9F20302C1F30211515C01F01F01F2
:1037C000C84004B010BD00F07B80B1F5006F40F040
:1037D000D88044F24C41C5F60201C868C0F30262C9
:1037E000042A00F2BE8048F20000C0F2BB00DFE80D
:1037F00002F086798CC80300086810F0405000F091
:10380000B980B0F1005F00F0AF80B0F1805F00F0F0
:103810009280A6E000F06C80B1F5002F40F0B180FE
:1038200044F24C41C5F60201C86800F44030B0F5DE
:10383000003F00F07680B0F5803F00F082800028E5
:1038400050D08EE044F24C41C5F60201486800F0C9
:103850000702042A00F2858048F20000C0F2BB0093
:10386000DFE802F04D40538F0300086810F040502D
:1038700000F08080B0F1005F00F07680B0F1805FF2
:1038800040F06F8057E044F24C41C5F602014868B1
:10389000C0F30232042A64D848F20000C0F2BB0030
:1038A000DFE802F02D20336F0300086810F040506D
:1038B00060D0B0F1005F57D0B0F1805F3BD050E0F6
:1038C00044F24C41C5F60201C868C0F34252042AD2
:1038D00047D848F20000C0F2BB00DFE802F0100356
:1038E0001652380001A800F01FF9019804B010BD6D
:1038F00044F24C40C5F602000068C0030BD401A896
:1039000000F04EF8029804B010BD01A800F0D0F904
:10391000019804B010BD01A800F006F9039804B0A6
:1039200010BD086810F0405024D0B0F1005F1BD0EB
:10393000B0F1805F15D140F60010C0F23D0004B038
:1039400010BD01A800F0B4F9039804B010BD0868D8
:1039500010F040500ED0B0F1005F05D0B0F1805FA4
:10396000E9D0002004B010BD47F64000C0F27D1041
:1039700004B010BD49F20000C0F2D03004B010BD58
:10398000002004B010BD01A800F0CEF8029804B0E9
:1039900010BD01A800F08CF9029804B010BD00BF62
:1039A00080B544F2304EC5F6020E5EF8083C5EF873
:1039B000081CC1F3051C5EF8041CBCF1000FDEF806
:1039C000042022D0C2F3CC0201F00101514303F0E4
:1039D0000303022B00EE101AB8EE400A29D0012B87
:1039E00018D0BBB95EF8301C89066CD4DEF8001024
:1039F0009FED482A6FF35F2101EE101AB8EE411ACD
:103A0000A0EE021A9FED460A21E00021C0E9001154
:103A1000816080BDDEF800109FED3E2A6FF35F21CC
:103A200001EE101AB8EE411AA0EE021A9FED3B0A01
:103A30000DE0DEF800109FED372A6FF35F2101EEF5
:103A4000101AB8EE411AA0EE021A9FED330AA1EE49
:103A5000000A01EE10CAB8EE411A80EE010ADEF843
:103A60000010B7EE002AC1F3462101EE101AB8EE9D
:103A7000411A31EE021A80EE011ABCEEC11A80ED35
:103A8000001ADEF80010C1F3064101EE101AB8EE7C
:103A9000411A31EE021A80EE011ABCEEC11A80ED15
:103AA000011ADEF80010C1F3066101EE101AB8EE3B
:103AB000411A31EE021A80EE010ABCEEC00A10EE85
:103AC000101A816080BD5EF8301CDEF800209FED8A
:103AD000111AB7EE002A6FF35F22A0EE012AC1F39C
:103AE000C10100EE102A49F20002C0F2D03222FADF
:103AF00001F1B8EE400A01EE101A32EE000A02EEB1
:103B000010CAB8EE411AB8EE422A20EE010A80EE41
:103B1000020AA4E70000003920BCBE4B0024744A0E
:103B20000024744C00BF00BF80B544F2384EC5F687
:103B3000020E5EF8103C5EF8101CC1F3053C5EF806
:103B40000C1CBCF1000FDEF8042023D0C1F30011DF
:103B500003F00303C2F3CC02022B02FB01F100EEDF
:103B6000101AB8EE400A29D0012B18D0BBB95EF864
:103B7000381C89066CD4DEF800109FED492A6FF3DB
:103B80005F2101EE101AB8EE411AA0EE021A9FED65
:103B9000470A21E00021C0E90011816080BDDEF804
:103BA00000109FED3F2A6FF35F2101EE101AB8EE6F
:103BB000411AA0EE021A9FED3C0A0DE0DEF800105B
:103BC0009FED372A6FF35F2101EE101AB8EE411A0C
:103BD000A0EE021A9FED330AA1EE000A01EE10CA10
:103BE000B8EE411A80EE010ADEF80010B7EE002AA6
:103BF000C1F3462101EE101AB8EE411A31EE021A55
:103C000080EE011ABCEEC11A80ED001ADEF8001039
:103C1000C1F3064101EE101AB8EE411A31EE021A54
:103C200080EE011ABCEEC11A80ED011ADEF8001018
:103C3000C1F3066101EE101AB8EE411A31EE021A14
:103C400080EE010ABCEEC00A10EE101A816080BD41
:103C50005EF8381CDEF800209FED111AB7EE002A3E
:103C60006FF35F22A0EE012AC1F3C10100EE102A1A
:103C700049F20002C0F2D03222FA01F1B8EE400A55
:103C800001EE101A32EE000A02EE10CAB8EE411A26
:103C9000B8EE422A20EE010A80EE020AA4E700BF35
:103CA0000000003920BCBE4B0024744A0024744C30
:103CB00080B544F2404EC5F6020E5EF8183C5EF840
:103CC000181CC1F3055C5EF8141CBCF1000FDEF893
:103CD000042023D0C1F3002103F00303C2F3CC027C
:103CE000022B02FB01F100EE101AB8EE400A29D0B7
:103CF000012B18D0BBB95EF8401C89066CD4DEF8E5
:103D000000109FED492A6FF35F2101EE101AB8EE03
:103D1000411AA0EE021A9FED470A21E00021C0E9F6
:103D20000011816080BDDEF800109FED3F2A6FF327
:103D30005F2101EE101AB8EE411AA0EE021A9FEDB3
:103D40003C0A0DE0DEF800109FED372A6FF35F218B
:103D500001EE101AB8EE411AA0EE021A9FED330AD6
:103D6000A1EE000A01EE10CAB8EE411A80EE010A77
:103D7000DEF80010B7EE002AC1F3462101EE101A5A
:103D8000B8EE411A31EE021A80EE011ABCEEC11AE9
:103D900080ED001ADEF80010C1F3064101EE101AA2
:103DA000B8EE411A31EE021A80EE011ABCEEC11AC9
:103DB00080ED011ADEF80010C1F3066101EE101A61
:103DC000B8EE411A31EE021A80EE010ABCEEC00ACA
:103DD00010EE101A816080BD5EF8401CDEF80020F5
:103DE0009FED111AB7EE002A6FF35F22A0EE012AB1
:103DF000C1F3C10100EE102A49F20002C0F2D03234
:103E000022FA01F1B8EE400A01EE101A32EE000A71
:103E100002EE10CAB8EE411AB8EE422A20EE010AAC
:103E200080EE020AA4E700BF0000003920BCBE4BB0
:103E30000024744A0024744C80B5FEF719FB44F248
:103E4000204142F2C012C5F60201C9F2030209681C
:103E5000C1F30211515C01F01F01C84080BD00BFD9
:103E600080B5FEF705FB44F2184142F2C012C5F6D8
:103E70000201C9F203020968C1F30211515C01F0A9
:103E80001F01C84080BD00BF80B5FEF7D1F944F2E4
:103E9000184142F2C013C5F60201C9F203030A68D1
:103EA000096801F00F01C2F30322595C9A5C01F02A
:103EB0001F0102F01F02D04040F20C02C2F20002C9
:103EC00020FA01F1116040F20801C2F2000108601D
:103ED00080BD00BF00BF00BF44F27040C5F60200C5
:103EE000016841F020010160704700BF00BF00BFC2
:103EF00044F26040C5F60200016921F02001016131
:103F0000016821F400710160704700BF00BF00BF6D
:103F100044F260404FF0B042C5F60200016941F042
:103F200020010161016841F4007101608020C5F643
:103F30000000016841F480210160106840F4802095
:103F40001060704700BF00BF44F21041C5F6020187
:103F50000A6822F0400210430860704700BF00BFAB
:103F600044F21041C5F602010A6822F080021043B3
:103F70000860704700BF00BF44F2A041C5F60201CF
:103F80000A6810430860704710B544F29441044633
:103F9000C5F602010A6842F002020A60086820F0D1
:103FA0000200086003F0ECFE41F203018842D4E90C
:103FB000000104D8B1F1405F01D1A16801E00143E3
:103FC000A06804F10C0308430ECB084348F20041FB
:103FD000C4F2000140EA02404860086820F47C50C6
:103FE00040EA03200860086840F06000086010BDE7
:103FF00048F20040C4F20000016841F08001016015
:10400000704700BF00BF00BF48F20841C4F2000182
:1040100051F8042C92B2026051F8082CC2F3052228
:1040200042600A68120C8260096801F40041C160B4
:10403000704700BF00BF00BF2DE9F04F81B048F2CC
:1040400008460446C4F2000603F03EFE611C4DD053
:1040500005464FF00808B4FA84F04FF00409470908
:104060004FF0020A4FF0010B07E000BF316809076B
:1040700048BFC6F8048000286DD103F025FE401B20
:10408000A0424FF0000088BF01203168C90740EA14
:1040900007000DD13168890710D43168490513D460
:1040A0003168C90516D431688905DFD519E000BF2C
:1040B0000230C6F804B031688907EED50430C6F87E
:1040C00004A031684905EBD52030C6F8049031686A
:1040D000C905E8D540F00800C6F8049031688905A4
:1040E000C4D540F01000C6F80490BFE708210422B0
:1040F0000223012705E000BF35682D0748BF716026
:1041000048BB3068C00705D100203568AD0706D42C
:1041100007E000BF022077603568AD0701D50430A5
:10412000736035686D0507D43568ED0509D43568C9
:10413000AD05E1D50BE000BF203072603568ED05BC
:10414000F5D540F0080072603568AD05D4D540F073
:1041500010007260D0E701B0BDE8F08F00BF00BF73
:1041600048F20C41C4F2000151F8040C51F80C2C37
:104170000240D3070DD193070FD4130711D4520770
:1041800058BF7047382202EA501004220A6000F03B
:104190001BB80120086000F00BB80220086000F096
:1041A0000BB80820086000F00BB800BF00BF00BFCC
:1041B000704700BF00BF00BF704700BF00BF00BF17
:1041C000704700BF00BF00BF704700BF00BF00BF07
:1041D00044F26440C5F602000168890558BF704783
:1041E0004FF40071416000F003B800BF00BF00BF92
:1041F00070470000000000002DE9F04F86B00F6806
:104200000290002F00F0E78002988C4600F12642D1
:104210000A2102F1FF7342F20042C5F602024FF09A
:10422000000990424FEAB32208BF0921092A4FF042
:10423000010238BF4FEAB32101264FF0000A4FF0C8
:1042400000080091CDF804C00EE000BFDCF800705B
:1042500008F1010837FA06F10AF1020A06F101062F
:1042600009F1040900F0B780701E02FA00FE17EA97
:104270000E01EBD0DCF804B00491BBF1120F00F298
:10428000A38002FA0BF717F0061F00F09D80029C36
:10429000032101FA0AF2A368DCF80C709343D143BE
:1042A00007FA0AF21A43A26062684FEA1B134FEA48
:1042B000480522EA0E0283401A4362604BF0100365
:1042C000E268122BDCF8083002EA010203FA05F377
:1042D000039142EA0302E26014D16FF0030109F096
:1042E0001C0701EA50020F212244B940D2F820E015
:1042F000DCF810302EEA0101BB40029C1943116228
:10430000DCF804B00BF003012268039BA9401A40BB
:104310005FEACB0341EA02012160DDF804C04FF0FF
:104320000102049C92D544F2F44240F2084EC5F6D4
:104330000202C5F6000E0F27116841F0020111605C
:10434000116801F00201059120F00301059A09F0BE
:104350000C024FF0B04051F80E309740BB43009F25
:1043600007FA02F21A4341F80E2040F2040EC5F695
:10437000000EDEF87C10DCF8042041EA0403D703C9
:1043800058BF21EA04039703CEF87C30DEF8801092
:1043900041EA040358BF21EA0403D702CEF8803073
:1043A000016841EA040358BF21EA040392024FF076
:1043B00001020360DEF8001041EA040358BF21EA5D
:1043C0000403CEF8003041E70321554601FA0AF70D
:1043D000029CF94372E706B0BDE8F08F00BF00BF52
:1043E0002DE9F04F002908BFBDE8F08F00F126420B
:1043F00042F2004302F1FF77C5F602030A25984214
:104400004FF0000308BF0925B3EBB72F74D04FEA74
:10441000B72700247E1E082E4FF0010638BF3D4608
:1044200000272BE00322036802FA04F96FF003026D
:1044300002EA580543EA09030544036007F01C0338
:104440000F2202FA03FE2B6A23EA0E032B62C368D3
:104450005D4623EA0903C360436823EA0C03436013
:10446000836823EA0902826031FA06F206F1010646
:1044700007F1040704F1020400F0A680A6F1010888
:10448000012202FA08FC1CEA010AEDD040F20842BF
:104490004FEA9809C5F6000207F00C0352F829B05C
:1044A0000F2202FA03FE0BEA0E0205FA03F3AB46F3
:1044B0009A42B7D104234FF0B045C5F60003DA6F36
:1044C00022EA0A02DA67D3F8802022EA0A02C3F855
:1044D00080202A6822EA0A022A601A6822EA0A026E
:1044E0001A6040F20843C5F6000353F8292022EA77
:1044F0000E0243F8292095E70025002401264FF0FD
:104500000F0C27E00322D0F800E002FA04F36FF06A
:10451000030202EA57074EEA03020744026005F06D
:104520001C020CFA02FE3A6A22EA0E023A62C268E1
:104530009A43C260426822EA0B02426082689A4350
:10454000826031FA06F206F1010604F1020405F177
:10455000040539D0771E012202FA07FB1BEA010885
:10456000EFD040F208424FEA970EC5F6000205F080
:104570000C030CFA03F952F82EA01AEA090FC1D164
:1045800004224FF0B04AC5F60002D36F23EA0803B5
:10459000D367D2F8803023EA0803C2F88030DAF813
:1045A000003023EA0803CAF80030136823EA08033E
:1045B000136040F20842C5F6000252F82E3023EA9A
:1045C000090342F82E309DE7BDE8F08F00BF00BF21
:1045D0000069084018BF0120704700BF00BF00BF3E
:1045E000002A08BF09048161704700BF00BF00BFF7
:1045F00042690A408A4208BF09048161704700BFCE
:1046000081B04FF480320092009A0A430092009ADF
:10461000C261C1610099C161C1690091C069012194
:1046200021EA104001B070478821C5F600010A68F0
:10463000024208BF7047086000F002B800BF00BF28
:104640007047000000000000F0B581B0044603F0A0
:104650003BFB002C00F00F8140F26F4705462068BD
:10466000C4F20207B84215DC9F21C4F2020188425D
:104670002BDC5721C4F20201884251DC1021C4F224
:10468000020188427BD02821C4F20201884276D000
:1046900040216FE045F22F41C5F60201884227DC38
:1046A00040F2B741C4F20201884245DC40F2704159
:1046B000C4F20201884262D040F28841C4F2020191
:1046C00088425CD040F2A04154E040F22741C4F25D
:1046D0000201884240DCA021C4F2020188424ED08F
:1046E000B821C4F20201884249D040F2104141E0B1
:1046F00045F26B41C5F60201884200F3BF8045F2E6
:104700003041C5F60201884200F0CB8045F24441B9
:10471000C5F60201884200F0C48045F25841BBE072
:104720005821C4F20201884229D07021C4F202014A
:10473000884224D088211DE040F2B841C4F2020131
:1047400088421CD045F20841C5F60201884200F0BB
:10475000A88045F21C419FE040F22841C4F20201CA
:1047600088420CD040F24041C4F20201884206D097
:1047700040F25841C4F20201884240F08682002192
:1047800061630221A163016821F0010101600168F8
:10479000C90709D003F098FA401B052800F267808A
:1047A00020680168C907F5D148F23F0204F1080604
:1047B0000168CFF6106211406CCE1143A269194313
:1047C000E3692943256A0E43616A1643042943EAD3
:1047D000060343EA050303D1D4E90B6533432B43B6
:1047E00041F20006C5F600463668B6F1005F1DD3FB
:1047F0006668A6F12905292D18D8DFE805F01515FA
:104800001515151517171717171717171717171740
:104810001717171715151515171717171515171734
:10482000171717171515151543F48013036004297E
:10483000436923F0070341EA030140F0E380D4E930
:104840000A53002B41EA050100F0DC80B2F5005F5D
:1048500000F0C080002A40F0C980022D00F0C9801D
:10486000012D00F0BD80002D00F0C380CAE02020A3
:10487000A0650320A063012001B0F0BD45F26C41AA
:10488000C5F6020188420CD045F28041C5F602010E
:10489000884206D045F29441C5F60201884240F0B4
:1048A000F481002161630221A1630168A268A2F181
:1048B0008003E668B3FA83F3402A4FEA53134FEAC2
:1048C00083336FF3101108BF1023226941EAD60128
:1048D00066691943A36941EAD201E26941EAD60156
:1048E000266A41EAD30141EAD20141EA161140F8B1
:1048F0000819C0B24CF6CD41CCF6CC41A0FB010169
:104900006FF0030000EA91002066204600F0C0F935
:10491000216E012201F01F0102FA01F141602068BD
:10492000B84240F37E8045F22F41C5F6020188422D
:1049300016DC40F2B741C4F20201884227DC40F2A3
:104940007041C4F20201884200F0B38040F2884115
:10495000C4F20201884200F0AC8040F2A041A3E022
:1049600045F26B41C5F60201884221DC45F2304137
:10497000C5F60201884200F09C8045F24441C5F62C
:104980000201884200F0958045F258411FE040F254
:10499000B841C4F20201884200F08B8045F2084120
:1049A000C5F60201884200F0848045F21C410EE009
:1049B00045F26C41C5F60201884200F07A8045F26A
:1049C0009441C5F60201884273D045F28041C5F694
:1049D00002016BE0032D15D8DFE805F00E0B0E0287
:1049E000A3F1C072B2FA82F2520904E0032D03D39C
:1049F00008D1C3F300622AB14020A0650120A06362
:104A000001B0F0BD4161204600F042F9216E3F2225
:104A100001F01F0102FA01F181602068B8423FF7FE
:104A200082AF9F21C4F20201884210DC5721C4F2F8
:104A3000020188421EDC1021C4F20201884238D0F3
:104A40002821C4F20201884233D040212CE040F2F8
:104A50002741C4F20201884218DCA021C4F20201FD
:104A6000884226D0B821C4F20201884221D040F207
:104A7000104119E05821C4F20201884219D0702176
:104A8000C4F20201884214D088210DE040F228418E
:104A9000C4F2020188420CD040F24041C4F202014B
:104AA000884206D040F25841C4F20201884240F0E8
:104AB000E68045F2574C45F6FC0EC5F6020CC5F6ED
:104AC000020E604512DC45F22F41C5F60201884214
:104AD0001FDC45F20841C5F60201884232D045F29A
:104AE0001C41C5F6020188422CD080E045F27F418E
:104AF000C5F60201884219DC45F25841C5F60201AB
:104B000088421FD045F26C41C5F60201884219D097
:104B10006DE045F23041C5F60201884212D045F2FF
:104B20004441C5F6020188420CD060E045F2944150
:104B3000C5F60201884205D045F28041C5F6020162
:104B4000884254D16FF007014CF6CD4251FA80F102
:104B5000CCF6CC42A1FB0212AEF1FC05AEF17C0614
:104B60001309A26803F01F01802A4FF0010205EB30
:104B70008305656602FA01F2A666E26602D10021AB
:104B8000616000E06168CBB2013907292B60726077
:104B900015D85E1E082E17D260450EF1440217DCB0
:104BA00045F22F41C5F60201884241DC45F2084139
:104BB000C5F60201884258D045F21C4149E0002068
:104BC000C4E91C00A0675AE0D4E91C02A16F53E0BD
:104BD00045F27F41C5F60201884232DC45F2584178
:104BE000C5F60201884240D045F26C4131E06FF0D9
:104BF0000F014AF6AB2251FA80F1CAF6AA22A1FBB4
:104C0000021240F20F43C4F2020308251109984230
:104C100003F1AA060B4688BF05EB121340F6000508
:104C2000B042C4F2020505F1800628BF0B4698E7A2
:104C300045F23041C5F60201884216D045F24441A2
:104C400007E045F28041C5F6020188420DD045F2E9
:104C50009441C5F60201884207D040F60000C4F234
:104C6000020000F1FC0E00F5A07201210EEB8300A2
:104C7000B14020676267A167002303605160002094
:104C8000A0650121A16301B0F0BD4020F0E500BFA7
:104C900040F20F42D0F800C0C4F20202944510DC8A
:104CA0006F22C4F20202944520DC3F22C4F20202C9
:104CB000944536DC1022C4F20202944554D02822D6
:104CC0004EE040F26F42C4F2020294451ADC40F218
:104CD0003F42C4F2020294452ADC40F21042C4F280
:104CE0000202944540D040F2284239E09F22C4F2AB
:104CF0000202944525DC7022C4F20202944533D0AE
:104D000088222DE040F29F42C4F2020294451FDC4B
:104D100040F27042C4F20202944525D040F288422B
:104D20001EE04022C4F2020294451DD0582217E032
:104D300040F24042C4F20202944515D040F258427B
:104D40000EE0A022C4F2020294450DD0B82207E082
:104D500040F2B842C4F20202944505D040F2A042AB
:104D6000C4F2020294451BD16FF00F024AF6AB2346
:104D700052FA8CF2CAF6AA23A2FB033143F6AC53D3
:104D8000C9F203035F2AC1F302115B5C40F2FF31F9
:104D90002CEA0101036688BF0431C16508467047EB
:104DA0002CF0FF01C1650846704700BF00BF00BF7F
:104DB00070B518B3016840F26F420446C4F20202B3
:104DC0000868914220F0010008604FF0010017DCF4
:104DD0009F22C4F2020291422DDC5722C4F2020249
:104DE000914250DC1022C4F20202914279D0282272
:104DF000C4F20202914274D040226DE0012070BDE5
:104E000045F22F42C5F60202914227DC40F2B7423A
:104E1000C4F20202914242DC40F27042C4F2020249
:104E200091425ED040F28842C4F20202914258D0D0
:104E300040F2A04250E040F22742C4F20202914206
:104E40003CDCA022C4F2020291424AD0B822C4F251
:104E50000202914245D040F210423DE045F26B42E1
:104E6000C5F6020291424FDC45F23042C5F602021D
:104E700091425CD045F24442C5F60202914256D0BE
:104E800045F258424EE05822C4F20202914228D024
:104E90007022C4F20202914223D088221CE040F228
:104EA000B842C4F2020291421BD045F20842C5F654
:104EB000020291423BD045F21C4233E040F22842CC
:104EC000C4F2020291420CD040F24042C4F202020B
:104ED000914206D040F25842C4F20202914240F0A0
:104EE00007810020086048608860C8600861212050
:104EF00048612046FFF7CCFE216E3F2201F01F01E2
:104F000002FA01F1816022E045F26C42C5F602022C
:104F100091420CD045F28042C5F60202914206D081
:104F200045F29442C5F60202914240F0E180002031
:104F3000086048608860C86008612046FFF7A8FEE6
:104F4000216E012201F01F0102FA01F1416045F2D8
:104F5000574C2268C5F6020C45F6FC0E6245C5F6B4
:104F6000020E12DC45F22F40C5F6020082421FDC21
:104F700045F20840C5F60200824233D045F21C409B
:104F8000C5F6020082422DD0B3E045F27F40C5F65F
:104F90000200824219DC45F25840C5F60200824206
:104FA00020D045F26C40C5F6020082421AD0A0E043
:104FB00045F23040C5F60200824213D045F244402B
:104FC000C5F6020082420DD093E045F29440C5F64A
:104FD0000200824206D045F28040C5F602008242BD
:104FE00040F087806FF007004CF6CD4150FA82F018
:104FF000CCF6CC41A0FB0101AEF1FC03AEF17C0587
:10500000090903EB810001F01F0660660120A56617
:1050100000FA06F6E666002043F821006E60636839
:10502000591E072958D862450EF1440C12DC45F28E
:105030002F45C5F60205AA421FDC45F20845C5F614
:105040000205AA423AD045F21C45C5F60205AA421D
:1050500034D02BE045F27F45C5F60205AA4219DCA3
:1050600045F25845C5F60205AA4227D045F26C45DF
:10507000C5F60205AA4221D018E045F23045C5F632
:105080000205AA421AD045F24445C5F60205AA42D5
:1050900014D00BE045F28045C5F60205AA420DD0BA
:1050A00045F29445C5F60205AA4207D040F6000233
:1050B000C4F2020202F1FC0E02F5A07C0EEB8302A8
:1050C00022670122C4F874C002FA01F1A16700222C
:1050D0004EF82320CCF80410C4E91C00A067C4E9F2
:1050E0001000C4E91200C4E91400A065A063606365
:1050F00070BD6FF00F004AF6AB2150FA82F0CAF68D
:10510000AA21A0FB010340F20F41C4F202010825CD
:1051100018098A4201F1AA06014688BF05EB13115E
:1051200040F60003B242C4F2020303F1800528BF37
:10513000014666E700BF00BF10B5B0B30446406B40
:10514000012801D1022010BD01206063A06B01285D
:1051500026D10220A0630020A065D4F800C0DCF8AE
:10516000000020F00100CCF80000204600F078F8A4
:1051700040F20F412068C4F20201884217DC6F211F
:10518000C4F20201884227DC3F21C4F202018842B6
:105190003DDC1021C4F2020188425AD0282155E09A
:1051A000002060634FF40060A065012010BD40F254
:1051B0006F41C4F2020188421ADC40F23F41C4F25E
:1051C000020188422ADC40F21041C4F20201884206
:1051D0003FD040F2284139E09F21C4F202018842C9
:1051E00025DC7021C4F20201884232D088212DE0F2
:1051F00040F29F41C4F2020188421FDC40F270413C
:10520000C4F20201884224D040F288411EE04021CD
:10521000C4F2020188421CD0582117E040F24041FC
:10522000C4F20201884214D040F258410EE0A0219D
:10523000C4F2020188420CD0B82107E040F2B84124
:10524000C4F20201884204D040F2A041C4F202013B
:105250008842016841F001010160002010BD00BFDB
:1052600070B540F26F44D0F800C0C4F20204D0F828
:105270005CE0A44519DC9F25C4F20205AC4531DC95
:105280005725C4F20205AC4556DC1025C4F20205D0
:10529000AC4500F092802825C4F20205AC4500F030
:1052A0008C804025C4F2020584E045F22F45C5F606
:1052B0000205AC452BDC40F2B745C4F20205AC4513
:1052C00048DC40F27045C4F20205AC4575D040F2AE
:1052D0008845C4F20205AC456FD040F2A045C4F247
:1052E000020567E040F22745C4F20205AC4540DC08
:1052F000A025C4F20205AC455FD0B825C4F2020572
:10530000AC455AD040F21045C4F2020552E045F2D5
:105310006B45C5F60205AC453CDC45F23045C5F6AB
:105320000205AC4549D045F24445C5F60205AC45F9
:1053300043D045F258453BE05825C4F20205AC4540
:105340003BD07025C4F20205AC4536D08825C4F2A6
:1053500002052FE040F2B845C4F20205AC452CD05E
:1053600045F20845C5F60205AC4526D045F21C4578
:105370001EE040F22845C4F20205AC451DD040F2C3
:105380004045C4F20205AC4517D040F25845C4F27E
:1053900002050FE045F26C45C5F60205AC450CD0A0
:1053A00045F29445C5F60205AC4506D045F2804568
:1053B000C5F60205AC4540F0D180856E066F002E23
:1053C000C66E6E601CBFD0E91D566E60A44515DC2C
:1053D0009F24C4F20204A4452BDC5724C4F2020427
:1053E000A4454EDC1024C4F20204A44576D028243F
:1053F000C4F20204A44571D040246BE045F22F446E
:10540000C5F60204A44527DC40F2B744C4F2020406
:10541000A44542DC40F27044C4F20204A4455DD0CD
:1054200040F28844C4F20204A44557D040F2A0449C
:1054300050E040F22744C4F20204A4453CDCA0241E
:10544000C4F20204A44549D0B824C4F20204A4451D
:1054500044D040F210443DE045F26B44C5F60204EE
:10546000A44553DC45F23044C5F60204A4455FD0A0
:1054700045F24444C5F60204A44559D045F25844C7
:1054800052E05824C4F20204A44527D07024C4F288
:105490000204A44522D088241CE040F2B844C4F29F
:1054A0000204A4451AD045F20844C5F60204A445F6
:1054B0003ED045F21C4437E040F22844C4F20204D6
:1054C000A4450BD040F24044C4F20204A44505D0E8
:1054D00040F25844C4F20204A4453FD184683F25F9
:1054E000006E402C00F01F0005FA00F0CEF8080016
:1054F000DCF8000020F48020CCF80000CCF8043068
:1055000023D0CCF80810CCF80C2070BD45F26C44C8
:10551000C5F60204A4450BD045F28044C5F602044A
:10552000A44505D045F29444C5F60204A44515D11E
:10553000046E0125806804F01F04402805FA04F475
:10554000CEF80440CCF8043004D1CCF80820CCF8D4
:105550000C1070BDCCF80810CCF80C2070BD00BF4A
:10556000B0B5B8B30546406B012801D10220B0BDEB
:1055700001206863A86B012827D10220A8630020BE
:10558000A8652868046824F0010404602846FFF731
:1055900067FE40F20F422868C4F2020240F26F41F7
:1055A0009042C4F2020117DC6F23C4F20203984256
:1055B00023DC3F23C4F20203984239DC1023C4F2F7
:1055C0000203984258D0282351E0002068634FF42A
:1055D0000060A8650120B0BD88421ADC40F23F435C
:1055E000C4F2020398422ADC40F21043C4F20203E0
:1055F000984241D040F2284339E09F23C4F202038D
:10560000984225DC7023C4F20203984234D08823E8
:105610002DE040F29F43C4F2020398421FDC40F2A7
:105620007043C4F20203984226D040F288431EE041
:105630004023C4F2020398421ED0582317E040F2E0
:105640004043C4F20203984216D040F258430EE0A1
:10565000A023C4F2020398420ED0B82307E040F220
:10566000B843C4F20203984206D040F2A043C4F209
:105670000203984240F0238103680B2464F344033F
:1056800003606B6C1BB1036843F00803036088423E
:1056900019DC9F23C4F20203984231DC5723C4F281
:1056A0000203984256DC1023C4F20203984200F031
:1056B00091802823C4F20203984200F08B8040239B
:1056C000C4F2020384E045F22F43C5F60203984278
:1056D0002BDC40F2B743C4F20203984248DC40F2AC
:1056E0007043C4F20203984274D040F28843C4F27B
:1056F000020398426ED040F2A043C4F2020367E076
:1057000040F22743C4F20203984240DCA023C4F2D3
:10571000020398425ED0B823C4F20203984259D0E3
:1057200040F21043C4F2020352E045F26B43C5F667
:10573000020398423CDC45F23043C5F6020398422E
:1057400048D045F24443C5F60203984242D045F2A0
:1057500058433BE05823C4F2020398423AD07023E6
:10576000C4F20203984235D08823C4F202032FE02A
:1057700040F2B843C4F2020398422BD045F20843EA
:10578000C5F60203984225D045F21C431EE040F2C4
:105790002843C4F2020398421CD040F24043C4F2B2
:1057A0000203984216D040F25843C4F202030FE0BD
:1057B00045F26C43C5F6020398420BD045F2944380
:1057C000C5F60203984205D045F28043C5F60203B0
:1057D00098426ED16B6E1C68E40303D51C6844F4D8
:1057E00080741C602B6F1BB11D6845F480751D60B3
:1057F000904210DC6F21C4F2020188421CDC3F2180
:10580000C4F20201884232DC1021C4F20201884253
:105810004FD028214AE088421ADC40F23F41C4F2CE
:10582000020188422ADC40F21041C4F2020188429F
:105830003FD040F2284139E09F21C4F20201884262
:1058400025DC7021C4F20201884232D088212DE08B
:1058500040F29F41C4F2020188421FDC40F27041D5
:10586000C4F20201884224D040F288411EE0402167
:10587000C4F2020188421CD0582117E040F2404196
:10588000C4F20201884214D040F258410EE0A02137
:10589000C4F2020188420CD0B82107E040F2B841BE
:1058A000C4F20201884204D040F2A041C4F20201D5
:1058B0008842016841F0010101600020B0BD036829
:1058C000052464F3430303606B6C002B3FF4DFAEED
:1058D000036843F00403D9E62DE9F041044602F0E1
:1058E000F3F9FCB10546A06B02281ED140F20F4728
:1058F0002668C4F2020740F26F48BE42C4F20208B2
:105900001ADC6F20C4F20200864226DC3F20C4F27B
:10591000020086423CDC1020C4F2020086425BD0CA
:10592000282054E00120BDE8F0818020A0650020FF
:1059300060630120BDE8F08146451ADC40F23F403B
:10594000C4F2020086422ADC40F21040C4F2020097
:10595000864241D040F2284039E09F20C4F2020044
:10596000864225DC7020C4F20200864234D08820B2
:105970002DE040F29F40C4F2020086421FDC40F25C
:105980007040C4F20200864226D040F288401EE0F9
:105990004020C4F2020086421ED0582017E040F298
:1059A0004040C4F20200864216D040F258400EE059
:1059B000A020C4F2020086420ED0B82007E040F2D8
:1059C000B840C4F20200864206D040F2A040C4F2C1
:1059D0000200864240F086813146306820F01E0089
:1059E00041F8140B6FF080000A68464500EA020097
:1059F000086019DC9F20C4F20200864231DC572087
:105A0000C4F20200864256DC1020C4F20200864234
:105A100000F091802820C4F20200864200F08B80C2
:105A20004020C4F2020084E045F22F40C5F6020097
:105A300086422BDC40F2B740C4F20200864248DCCA
:105A400040F27040C4F20200864274D040F28840B6
:105A5000C4F2020086426ED040F2A040C4F20200BE
:105A600067E040F22740C4F20200864240DCA020FA
:105A7000C4F2020086425ED0B820C4F20200864220
:105A800059D040F21040C4F2020052E045F26B409F
:105A9000C5F6020086423CDC45F23040C5F6020005
:105AA000864248D045F24440C5F60200864242D0C4
:105AB00045F258403BE05820C4F2020086423AD0FA
:105AC0007020C4F20200864235D08820C4F2020061
:105AD0002FE040F2B840C4F2020086422BD045F2DB
