:0200000490006A
:1000000088B20020A503009099100090A1100090E4
:10001000A9100090B1100090B910009000000000ED
:10002000000000000000000000000000916D029040
:10003000C11000900000000069700290D970029019
:10004000BF030090BF030090BF030090BF03009068
:10005000BF030090BF030090BF030090BF03009058
:10006000BF030090BF030090BF030090BF03009048
:10007000BF030090BF030090BF030090BF03009038
:10008000BF030090BF030090BF030090BF03009028
:10009000BF030090BF030090BF030090BF03009018
:1000A000BF030090BF030090BF030090BF03009008
:1000B000BF030090BF030090BF030090BF030090F8
:1000C000BF030090BF030090BF030090BF030090E8
:1000D000BF030090BF030090C9100090BF030090C1
:1000E000BF030090BF03009000000000BF0300901A
:1000F000BF030090BF030090BF030090BF030090B8
:10010000BF030090BF030090BF030090BF030090A7
:10011000BF030090BF030090BF030090BF03009097
:10012000BF030090BF030090BF030090BF03009087
:10013000BF030090BF030090BF030090BF03009077
:1001400000000000000000000000000000000000AF
:10015000BF030090BF030090BF030090BF03009057
:10016000BF030090BF030090BF030090BF03009047
:10017000BF030090BF030090BF030090BF03009037
:10018000BF030090BF030090BF030090BF03009027
:10019000BF030090BF030090BF030090BF03009017
:1001A000D9100090BF030090E9100090BF030090A9
:1001B000BF030090BF030090BF030090BF030090F7
:1001C000BF030090BF030090BF030090BF030090E7
:1001D000BF030090BF030090BF030090BF030090D7
:1001E000BF030090BF030090BF030090BF030090C7
:1001F000BF030090BF030090BF030090BF030090B7
:10020000BF030090BF030090BF030090BF030090A6
:10021000BF030090BF030090F9100090BF0300904F
:10022000BF030090BF030090BF03009000000000D8
:10023000BF030090BF03009000000000BF030090C8
:10024000BF030090BF030090BF030090BF03009066
:10025000BF030090BF030090BF030090BF03009056
:10026000BF030090BF030090BF030090BF03009046
:10027000BF030090BF030090BF0300900000000088
:10028000BF030090BF030090BF0300900000000078
:1002900000000000BF03009000F002F800F073F8C7
:1002A0000AA090E8000C82448344AAF10107DA45D1
:1002B00001D100F068F8AFF2090EBAE80F0013F0B0
:1002C000010F18BFFB1A43F001031847EC56070053
:1002D0001C5707000A444FF0000C10F8013B13F0C4
:1002E000070408BF10F8014B1D1108BF10F8015B8F
:1002F000641E05D010F8016B641E01F8016BF9D182
:1003000013F0080F1EBF10F8014BAD1C0C1B09D1D8
:100310006D1E58BF01F801CBFAD505E014F8016B4A
:1003200001F8016B6D1EF9D59142D6D370470000DC
:10033000103A24BF78C878C1FAD8520724BF30C811
:1003400030C144BF04680C607047000000230024E3
:1003500000250026103A28BF78C1FBD8520728BFD5
:1003600030C148BF0B6070471FB53FF00AFB9DE8E6
:10037000030027F0E5FE27F0B3FD1FBD10B50020F8
:1003800027F014FF10BD27F052FF1146FFF7ECFFD6
:1003900000F02AF827F08AFF03B4FFF7EFFF03BC51
:1003A00027F0A8FE0948804709480047FEE7FEE716
:1003B000FEE7FEE7FEE7FEE7FEE7FEE7FEE7FEE715
:1003C00004480549054A064B70470000B1B9019041
:1003D000990200908882002088B200208892002034
:1003E000889200200000000080B586B000200590B3
:1003F0004EF60850CEF200004FF01041016000F0C0
:100400002FF800F049F80BF0FFFF049000F088F897
:1004100000F0D2F900F0B0FB00F0E6FA00F038FB93
:1004200000F056FD1CF04CFC43F65470C2F2000084
:1004300040F24841C2F20001012219F031FB039061
:1004400027F066FA029026F0AFFE019023F000FF3D
:10045000009000F051FA23F093FFFFE7FEE700BFA2
:10046000BFF34F8FBFF36F8F4EF65070CEF2000088
:1004700000210160BFF34F8FBFF36F8F4EF6145012
:10048000CEF20000016841F400310160BFF34F8FEC
:10049000BFF36F8F704700BF83B04EF68450CEF22B
:1004A000000000210160BFF34F8F4EF68050CEF266
:1004B0000000006802900298C0F34E300190FFE700
:1004C0000298C0F3C9000090FFE7019800998907DE
:1004D00060F34D114EF66070CEF200000160FFE750
:1004E0000098411E00910028EFD1FFE7FFE7019837
:1004F000411E01910028E3D1FFE7BFF34F8F4EF675
:100500001450CEF20000016841F480310160BFF365
:100510004F8FBFF36F8F03B0704700BF00BF00BFA6
:1005200080B5CCB039A84C2127F0AFFC0020389022
:10053000379036903590349033903290319002A8B5
:10054000BC2127F0A2FC02200BF066FAFFE7002096
:10055000019044F61800C5F60200016841F44041DC
:100560000160006800F44040019040F22C40C5F664
:100570000000016841F001010160006800F0010025
:1005800001900198FFE7FFE744F61800C5F6020066
:10059000006800F40050B0F5005F01D0FFE7F3E71A
:1005A00044F22840C5F602000168022262F301010C
:1005B0000160012039904FF480303A90429243928A
:1005C00005204490C02045904692479248920820CA
:1005D000499000204A904B9039A801F0F9FC00287E
:1005E00003D0FFE700F03CF8FFE73F203190032005
:1005F000329000203390082034904020359036907F
:100600004FF480613791389031A8042102F01CFA30
:10061000002803D0FFE700F023F8FFE70220C2F232
:100620000020029005200B90A0200C9002200D903D
:100630000E9035200F904FF4006010900020119024
:10064000129014901F9002A803F01AF8002803D00B
:10065000FFE700F005F8FFE74CB080BD00BF00BF2A
:10066000704700BF00BF00BF80B582B00190019805
:1006700043F65471C2F20001884240F08780FFE7E0
:1006800040F2E110C2F200000078002814D1FFE728
:1006900040F2E110C2F20000007840F24841C2F29C
:1006A0000001085C012807D0FFE740F2E110C2F228
:1006B00000000021017057E040F2E110C2F200009A
:1006C0000078012814D1FFE740F2E110C2F20000E7
:1006D000007840F24841C2F20001085CFF2807D0D0
:1006E000FFE740F2E110C2F20000002101703AE0A1
:1006F00040F2E110C2F200000078022814D1FFE7B6
:1007000040F2E110C2F20000007840F24841C2F22B
:100710000001085CFF2807D0FFE740F2E110C2F2B9
:100720000000002101701DE040F2E110C2F2000063
:100730000078162808DCFFE740F2E110C2F2000062
:100740000178013101700CE040F2E110C2F20000CA
:100750000021017040F25F40C2F2000001210170EF
:10076000FFE7FFE7FFE7FFE740F2E110C2F200001A
:10077000007840F24841C2F20001014443F654704F
:10078000C2F20000012219F08BF9FFE702B080BD30
:1007900080B582B001900198006844F60001C4F26F
:1007A0000101884203D1FFE70BF00EFFFFE702B023
:1007B00080BD00000000000080B592B000201190C4
:1007C00010900F900E900D90FFE744F2E040C5F6B8
:1007D0000200016841F010010160006800F01000A3
:1007E0000C900C98FFE7FFE744F2E040C5F60200EA
:1007F000016841F080010160006800F080000B900A
:100800000B98FFE7FFE744F2E040C5F602000168FD
:1008100041F004010160006800F004000A900A98A9
:10082000FFE7FFE744F2E040C5F60200016841F04F
:1008300001010160006800F0010009900998FFE7DC
:10084000FFE744F2E040C5F60200016841F0020112
:100850000160006800F0020008900898FFE7FFE7D9
:1008600044F2E040C5F60200016841F00801016071
:10087000006800F0080007900798FFE740F60000C6
:10088000C5F60200082101220690059205F060FEDF
:100890000020C5F6020080210022049003910292FC
:1008A00005F056FE30210698029A05F051FE02200E
:1008B0000D9002980E900F900DA90698019105F0E9
:1008C00013FB38200D9005980E9002990F9103228A
:1008D000109206980199009205F006FB03980D907E
:1008E00005990E910F91009A10920498019905F0C4
:1008F000FBFA12B080BD000080B582B040F66910EE
:10090000C9F2000042F27402C9F20402002101910E
:1009100023F0DEFE43F6A051C2F20001086040F66B
:100920008110C9F2000042F29802C9F20402019952
:1009300023F0CEFE43F6E471C2F20001086040F6F7
:10094000C910C9F2000042F2BC02C9F204020199C6
:1009500023F0BEFE43F6E871C2F20001086002B067
:1009600080BD00BF00BF00BF80B582B00190FFE72F
:100970001CF0AAF9012024F0FBFB0090F8E700BF6F
:1009800080B582B00190FFE740F25F40C2F2000004
:100990000078012812D1FFE740F24840C2F200007F
:1009A000B0F8150040F26041C2F20001086040F268
:1009B0005F40C2F2000000210170FFE7012024F037
:1009C000D7FBE1E700BF00BF80B584B00390FFE72D
:1009D00026F04AFD01210290084624F0C9FB01904F
:1009E000F6E700000000000080B543F6A450C2F214
:1009F000000044F60041C5F60201016000210171CA
:100A00004171416181610121416200F0DDFE0028F8
:100A100003D0FFE7FFF724FEFFE780BD00BF00BF64
:100A200082B001900198006844F60041C5F60201C9
:100A3000884210D1FFE7FFE744F2E040C5F602002C
:100A4000016841F400210160006800F4002000907A
:100A50000098FFE7FFE702B0704700BF00BF00BF8C
:100A600081B000900098006844F60041C5F602018C
:100A7000884209D1FFE744F2E040C5F60200016870
:100A800021F400210160FFE701B070470000000081
:100A900080B543F6CC50C2F2000041F20001C5F22D
:100AA000002101600021416002228260C1608161F9
:100AB000C16141648264C164016541658165C1654C
:100AC0000CF04AFA002803D0FFE7FFF7C9FDFFE763
:100AD00043F6CC50C2F2000001210DF049FA002883
:100AE00003D0FFE7FFF7BCFDFFE780BD00BF00BFFD
:100AF00080B584B003900398006841F20001C5F20C
:100B00000021884219D1FFE7FFE744F2D440C5F63F
:100B10000200016841F010010160006800F010005F
:100B200002900298FFE75A2001210022019000F074
:100B3000ABFB019800F024FCFFE704B080BD00BFD0
:100B400080B582B001900198006841F20001C5F2C1
:100B5000002188420CD1FFE744F2D440C5F60200E0
:100B6000016821F0100101605A2000F029FCFFE724
:100B700002B080BD0000000080B58EB001A8342115
:100B800027F083F943F63860C2F2000041F2000119
:100B9000C5F200010160002141608160C160016116
:100BA000416181612822C261082202624FF402720F
:100BB00042624FF48C72826240F20D22C2624FF4A4
:100BC0009072026380F8341080F8351080F8361087
:100BD0000DF0B2FB002803D0FFE7FFF741FDFFE770
:100BE000002001904FF4F071029103904FF488724D
:100BF000049202230593FF23069307904FF480632A
:100C00000893052309934FF040430A930B910C92EC
:100C10008DF834008DF835008DF8360043F63861D4
:100C2000C2F2000101AA009008461146009A0DF098
:100C300007FD002803D0FFE7FFF712FDFFE70EB026
:100C400080BD00BF00BF00BF80B594B013900020EE
:100C50001290119010900F900E901398006841F22E
:100C60000001C5F20001884240F0ED80FFE7FFE798
:100C700044F2E440C5F60200016841F00801016059
:100C8000006800F008000D900D98FFE7FFE744F2C0
:100C9000E040C5F60200016841F001010160006812
:100CA00000F001000C900C98FFE7FFE744F2E040F1
:100CB000C5F60200016841F002010160006800F021
:100CC00002000B900B98FFE7FFE744F2E040C5F607
:100CD0000200016841F010010160006800F010009E
:100CE0000A900A98FFE7FFE744F2E040C5F60200E9
:100CF000016841F008010160006800F008000990F7
:100D00000998FFE7FFE744F2E040C5F602000168FA
:100D100041F004010160006800F0040008900898A8
:100D2000FFE74FF41E700E9002200F9000211091EB
:100D3000032211920E23129340F2000CC5F6020C0E
:100D40000DF1380E079060460691714605920493A6
:100D5000CDF80CE005F0C8F805980E9007990F91B2
:100D6000069A109211900923129340F20043C5F69F
:100D7000020318460399029305F0B6F84FF4006099
:100D80000E9007980F9006991091059A1192049B66
:100D9000129341F2000CC5F6020C60460399CDF89F
:100DA00004C005F0A1F84FF470400E9007980F9022
:100DB000069910911191049A12920198039905F0E5
:100DC00093F84FF470600E9007980F900699109169
:100DD000059A1192049B12930298039905F084F8E6
:100DE0004FF481600E9007980F9006991091059A24
:100DF0001192049B129340F60040C5F6020003993D
:100E000005F072F8C0200E9007980F900699109187
:100E1000059A1192049B129340F60000C5F6020059
:100E2000039905F061F840200CF05EF880200CF08A
:100E30005BF8582001210090069A00F025FA0098EE
:100E400000F09EFAFFE714B080BD00BF00BF00BFF6
:100E500080B582B001900198006841F20001C5F2AE
:100E60000001884232D1FFE744F2E440C5F60200B7
:100E7000016821F0080101600020C5F602004FF46E
:100E80001E7105F01DFA40F20040C5F6020040F662
:100E9000037105F015FA41F20000C5F602004FF4A7
:100EA000784105F00DFA40F60040C5F602004FF417
:100EB000816105F005FA40F60000C5F60200C02188
:100EC00005F0FEF9582000F07BFAFFE702B080BD84
:100ED00080B543F65470C2F2000044F20041C4F2FF
:100EE000000101604FF4E131416000218160C16087
:100EF00001610C2242618161C161016241628162D2
:100F000017F002FB002803D0FFE7FFF7A9FBFFE77C
:100F100043F65470C2F2000000211AF0C9FC002808
:100F200003D0FFE7FFF79CFBFFE743F65470C2F2E4
:100F3000000000211AF0FCFC002803D0FFE7FFF7B7
:100F40008FFBFFE743F65470C2F200001AF078FC02
:100F5000002803D0FFE7FFF783FBFFE780BD00BF5A
:100F600080B58EB00D9000200C900B900A900990E7
:100F700008900D98006844F20041C4F200018842D4
:100F80005ED1FFE7FFE744F2E840C5F602000168E2
:100F900041F400310160006800F4003007900798C8
:100FA000FFE7FFE744F2E040C5F60200016841F0C8
:100FB00001010160006800F0010006900698FFE75B
:100FC000FFE744F2E040C5F60200016841F0080185
:100FD0000160006800F0080005900598FFE7042014
:100FE00008900220099000210A910B9107220C928F
:100FF0000023C5F602030DF1200C0490184603915E
:1010000061460292CDF804C004F06EFF40200890C3
:101010000498099003990A910B91029A0C9240F658
:101020000040C5F60200019904F05EFF262003216E
:101030000090039A00F028F9009800F0A1F9FFE76A
:101040000EB080BD00BF00BF80B582B00190019896
:10105000006844F20041C4F20001884219D1FFE760
:1010600044F2E840C5F60200016821F40031016055
:101070000020C5F60200042105F022F940F60040E8
:10108000C5F60200402105F01BF9262000F098F972
:10109000FFE702B080BD0000704700BF00BF00BF87
:1010A000FFE7FEE700BF00BFFFE7FEE700BF00BFAE
:1010B000FFE7FEE700BF00BFFFE7FEE700BF00BF9E
:1010C000704700BF00BF00BF80B543F65470C2F246
:1010D000000019F03DFE80BD80B543F63860C2F2D5
:1010E00000000DF0F5F980BD80B543F6CC50C2F29A
:1010F00000000CF031FE80BD80B543F6E460C2F222
:10110000000012F0C5FD80BD80B582B0FFE744F25B
:10111000F440C5F60200016841F002010160006878
:1011200000F0020001900198FFE76FF001000F212D
:10113000002200F0A9F802B080BD0000000000000D
:1011400080B590B00E900E980F2810D8FFE70E993A
:1011500076200022019000F097F8019800F010F935
:101160000E9840F2A401C2F20001086002E00120E2
:101170000F9045E0FFE744F2F040C5F60200016839
:1011800041F480210160006800F480200290029800
:10119000FFE706A803A902F013FA02F0E5F8400001
:1011A000059005984DF68361C4F21B31A0FB010147
:1011B0004FF0FF3202EB9141049143F6E461C2F239
:1011C000000144F60002C4F201020A6040F2E73274
:1011D000CA60049A4A6000220A618A600090084648
:1011E0000EF00AFB002808D1FFE743F6E460C2F2E4
:1011F00000000EF0BDFC0F9002E001200F90FFE711
:101200000F9810B080BD00BF43F6E460C2F200004A
:101210000068C16821F00101C160704700BF00BFD4
:1012200043F6E460C2F200000068C16841F00101C9
:10123000C16070470000000080B582B00190019845
:1012400000F002F802B080BD83B00290029800F076
:10125000070000904EF60C50CEF20000016801919C
:1012600001994FF6FF02114001910199009A41EA5C
:1012700002210022C0F2FA5211430191019901604A
:1012800003B0704700BF00BF80B586B005900491E1
:10129000039200F015F8029005980299049A039BB6
:1012A0000190084611461A4600F032F80199009064
:1012B0000846009900F00CF806B080BD00BF00BFE2
:1012C0004EF60C50CEF200000068C0F302207047CA
:1012D00082B0019000910198002809D4FFE700989E
:1012E000000101994EF20042CEF2000288540AE059
:1012F00000980001019901F00F014EF61452CEF250
:1013000000028854FFE702B0704700BF00BF00BF73
:1013100088B0079006910592079800F007000490A6
:101320000498C0F10700052803D3FFE704200190CB
:1013300004E00498C0F107000190FFE701980390D2
:1013400004980430062803D8FFE70020009003E04B
:10135000049803380090FFE70098029006980399DC
:10136000012202FA01F10139084002998840059BE7
:1013700002FA01F101391940084308B0704700BF73
:1013800080B582B00190019800F002F802B080BDF3
:1013900081B00090009800280ED4FFE7009800F07C
:1013A0001F01012202FA01F140094EF20012CEF2B1
:1013B000000242F82010FFE701B0704700BF00BFF5
:1013C00080B582B00190019800F002F802B080BDB3
:1013D00081B000900098002812D4FFE7009800F038
:1013E0001F01012202FA01F140094EF28012CEF2F1
:1013F000000242F82010BFF34F8FBFF36F8FFFE75B
:1014000001B0704700BF00BF00F002F800BF00BF8E
:10141000BFF34F8F4EF60C50CEF20000016801F47E
:10142000E0610422C0F2FA5211430160BFF34F8F12
:10143000FFE700BFFDE700BF80B582B001900198D3
:1014400000F002F802B080BD80B582B00090009834
:101450000138B0F1807F03D3FFE70120019019E04C
:10146000009801384EF21401CEF2000108604FF0EE
:10147000FF300F21FFF72CFF4EF21800CEF20000D4
:10148000002101604EF21000CEF20000072202603F
:101490000191FFE7019802B080BD00BF00BF00BF0F
:1014A000BFF35F8F4EF62450CEF20000016821F4A6
:1014B000803101604EF69450CEF2000000210160B0
:1014C000704700BF00BF00BF81B00090009840F09F
:1014D00001004EF69451CEF2000108604EF6245001
:1014E000CEF20000016841F480310160BFF34F8FFC
:1014F000BFF36F8F01B0704780B581B00090009846
:1015000040784EF69851CEF20001086000980078BD
:1015100000282BD0FFE7009840684EF69C51CEF291
:10152000000108600098017B0907C27A41EA026164
:101530000278037A90F809C090F80AE041EACE41B7
:1015400090F80DE041EA8E4190F80EE041EA4E41FC
:10155000C07B41EA004040EA0C2040EA43001043CF
:101560004EF6A051CEF2000108600BE04EF69C5002
:10157000CEF20000002101604EF6A050CEF2000035
:101580000160FFE701B080BD80B5FFF799FE80BD27
:1015900080B584B00390029101920093039800F00B
:1015A00043F80299019A009B00F002F804B080BD54
:1015B00089B00890079106920593079800F00700FC
:1015C00004900498C0F10700052803D3FFE7042026
:1015D000019004E00498C0F107000190FFE7019832
:1015E000039004980430062803D8FFE700200090F9
:1015F00003E0049803380090FFE7009802900898F1
:101600000299C8400399012202FA01F10139084008
:10161000069908600898029902FA01F10139084018
:101620000599086009B0704782B0009000980028C2
:1016300009D4FFE700984EF20041CEF20001405C71
:10164000000901900AE0009800F00F004EF61451D6
:10165000CEF20001405C00090190FFE7019802B062
:10166000704700BF00BF00BF80B582B001900198F5
:1016700000F002F802B080BD81B000900098002810
:101680000ED4FFE7009800F01F01012202FA01F1D9
:1016900040094EF20022CEF2000242F82010FFE78D
:1016A00001B0704700BF00BF80B582B001900198C3
:1016B00000F002F802B080BD82B0009000980028CF
:1016C00010D4FFE7009840094EF20021CEF200014D
:1016D00051F82000009901F01F01C84000F00100FE
:1016E000019002E000200190FFE7019802B07047EE
:1016F00080B582B00190019800F002F802B080BD80
:1017000081B00090009800280ED4FFE7009800F008
:101710001F01012202FA01F140094EF28022CEF2AD
:10172000000242F82010FFE701B0704700BF00BF81
:1017300080B582B00190019800F002F802B080BD3F
:1017400082B000900098002810D4FFE7009840096C
:101750004EF20031CEF2000151F82000009901F064
:101760001F01C84000F00100019002E0002001903C
:10177000FFE7019802B0704781B0009000980428FC
:1017800009D1FFE74EF21000CEF20000016841F0EF
:101790000401016008E04EF21000CEF20000016882
:1017A00021F004010160FFE701B0704700BF00BFF6
:1017B00080B500F001F880BD704700BF00BF00BFDA
:1017C000032070470000000080B582B000900098B0
:1017D000002803D1FFE70120019059E00098006A3A
:1017E000002807D1FFE700980021C1610098FFF7AA
:1017F00017F9FFE70098022101620098007900289C
:1018000010D1FFE70098006841F6B751C0F2C1411E
:10181000416100980068806820F01800009909680C
:1018200088600BE000988168C26800F0B1F9002878
:1018300003D0FFE7012001902AE0FFE700984079FC
:10184000002806D1FFE7009800684FF0FF310161E2
:1018500004E00098016800690861FFE700980068EB
:10186000806820F0600000990A6849690843906028
:1018700000980068806820F0800000990A688969F3
:101880000843906000980121016200200190FFE769
:10189000019802B080BD00BF81B0009001B07047D8
:1018A00080B584B002900298002803D1FFE70120A0
:1018B000039025E00298006A022803D1FFE7022086
:1018C00003901DE00298022101620298006881687D
:1018D00041F0010181600298006841680022426085
:1018E000029801910092FFF7BBF8029800990162FB
:1018F000FFE702980021C161FFE700200390FFE7A6
:10190000039804B080BD00BF81B0009001B0704763
:1019100080B586B00590049103920020019005984F
:10192000022101620598406A0128009021D0FFE75A
:101930000098022824D0FFE70098032827D1FFE76A
:1019400000200290FFE70298039988420CD2FFE73B
:101950000498029950F82100059909680860FFE78A
:10196000029801300290EEE7059800680068019047
:101970000EE005980499039A00F012F8019007E030
:1019800005980499039A00F07BF8019000E0FFE7C6
:10199000059801210162019806B080BD00BF00BF1B
:1019A00086B005900491039200200290FFE7029810
:1019B0000399B0EB910F0DD2FFE70498029950F80C
:1019C000210000BA059909680860FFE70298013014
:1019D0000290ECE79DF80C008007002849D0FFE753
:1019E000039800F00300012808D1FFE7049802994A
:1019F00010F82100059909680870FFE7039800F0C6
:101A00000300022813D1FFE70498029900EB81023A
:101A100010F82100517841EA0020ADF80600059841
:101A200000680090BDF8060000990880FFE7039861
:101A300000F0030003281BD1FFE70498029900EB94
:101A4000810210F82100517841EA0020ADF806002B
:101A5000059800680090BDF8060000990880049879
:101A6000029900EB81008078059909680870FFE70A
:101A7000FFE705980068006806B0704700BF00BF28
:101A800085B004900391029200200190FFE7019835
:101A90000299B0EB510F11D2FFE70398019900EBC7
:101AA000810230F82100518841EA00400499096818
:101AB0000860FFE7019801300190E8E79DF8080011
:101AC000C00700280AD0FFE7049800680090039838
:101AD000019930F8210000990880FFE70498006818
:101AE000006805B0704700BF80B586B005900491CE
:101AF0000392002001900598022101620598006878
:101B0000816841F0010181600598406A01280090D8
:101B100021D0FFE70098022824D0FFE7009803288F
:101B200027D1FFE700200290FFE70298039988423F
:101B30000CD2FFE70498029950F821000599096832
:101B40000860FFE7029801300290EEE70598006810
:101B5000006801900EE005980499039AFFF720FFB2
:101B6000019007E005980499039AFFF789FF019017
:101B700000E0FFE7059801210162019806B080BDF1
:101B800081B000900098006A01B07047000000002A
:101B900087B0069005910492002003901F200290C8
:101BA000FFE70298411E02910021002801910AD00E
:101BB000FFE70598029901F01F01C840012121EAC1
:101BC00000000190FFE70198C007002801D0FFE75F
:101BD000E7E704981828009028D80099DFE801F07A
:101BE00025262626262626261D262626262626269F
:101BF00015262626262626260D000298072803D31A
:101C0000FFE701200390FFE713E00298082803D3C1
:101C1000FFE701200390FFE70BE00298102803D3B1
:101C2000FFE701200390FFE703E002E001200390BB
:101C3000FFE7039800280FD1FFE705980699096888
:101C4000486106980068806820F0180004990843ED
:101C5000069909688860FFE7039807B0704700BFDE
:101C600082B0019000910198022101620198006800
:101C7000806820F060000099084301990968886035
:101C8000019801210162002002B0704700BF00BF2F
:101C900082B00190009101980221016201980068D0
:101CA000806820F0800000990843019909688860E5
:101CB000019801210162002002B07047000000007D
:101CC00080B582B042F20000C5F20020006800F04A
:101CD0000F00062813D8FFE742F20000C5F20020EB
:101CE0000168072262F303010160006800F00F0041
:101CF000072803D0FFE70120019065E1FFE70AF024
:101D000073FC009044F20040C5F60200016841F007
:101D100001010160FFE744F20040C5F602000068DF
:101D2000400700280BD4FFE70AF05EFC0099401A38
:101D3000032803D3FFE70320019045E1EBE744F2DA
:101D40000440C5F60200016841F08041016044F2A0
:101D50001040C5F602000021016040F28800C2F286
:101D6000000049F20001C0F2D031016040F28C0065
:101D7000C2F20000016040F2A400C2F2000000685C
:101D8000FFF7DEF9002803D0FFE7012001901BE1F7
:101D90000AF02AFC0090FFE744F21040C5F602006A
:101DA000006810F0380F0DD0FFE70AF01DFC009915
:101DB000401A41F28931884203D3FFE703200190A2
:101DC00002E1E9E70AF010FC009044F20040C5F699
:101DD000020001684EF64552CFF6F67211400160DE
:101DE000FFE744F20040C5F60200006880030028C7
:101DF0000BD5FFE70AF0F8FB0099401A652803D3DA
:101E0000FFE703200190DFE0EBE70AF0EDFB009035
:101E100044F20040C5F60200016821F080710160C3
:101E2000FFE744F20040C5F6020000688001002888
:101E30000BD5FFE70AF0D8FB0099401A032803D31B
:101E4000FFE703200190BFE0EBE70AF0CDFB009035
:101E500044F20040C5F60200016821F08061016093
:101E6000FFE744F20040C5F60200006800010028C8
:101E70000BD5FFE70AF0B8FB0099401A032803D3FB
:101E8000FFE7032001909FE0EBE70AF0ADFB009035
:101E900044F20040C5F60200016821F08051016063
:101EA000FFE744F20040C5F6020000688000002809
:101EB0000BD5FFE70AF098FB0099401A032803D3DB
:101EC000FFE7032001907FE0EBE744F21840C5F6FE
:101ED00002000021016044F21C40C5F602000160CE
:101EE00044F22040C5F60200016044F22840C5F6E5
:101EF000020040F20022C0F20222026044F22C40B2
:101F0000C5F602000022C0F2FF12026044F2304027
:101F1000C5F6020040F28022C0F20112026044F2D3
:101F20003440C5F60200016044F23840C5F60200B4
:101F3000026044F23C40C5F60200016044F24040B9
:101F4000C5F60200026044F24440C5F6020001609A
:101F500044F20040C5F60200026822F480220260CA
:101F600044F26040C5F60200016044F26840C5F6E4
:101F700002004FF0FF31016044F2D040C5F602008C
:101F8000016841F48031016042F20000C5F2002096
:101F9000006800F00F00082813D3FFE742F20000AA
:101FA000C5F200200168072262F3030101600068A6
:101FB00000F00F00072803D0FFE70120019003E0A5
:101FC000FFE700200190FFE7019802B080BD00BF4D
:101FD00080B58CB00A900A98002804D1FFE7012050
:101FE0000B9000F02EBD0A980078C007002800F082
:101FF000B980FFE744F21040C5F60200006800F027
:102000003800069044F22840C5F6020000680590AA
:10201000069810280AD0FFE7069818281CD1FFE779
:10202000059800F00300022816D1FFE744F20040B3
:10203000C5F60200006800F400300021B1EB504FFB
:1020400009D0FFE70A984068002804D1FFE7012083
:102050000B9000F0F6BC84E0FFE70A984068B0F50A
:10206000803F09D1FFE744F20040C5F60200016855
:1020700041F48031016033E00A98406800280DD1B6
:10208000FFE744F20040C5F60200016821F4803108
:102090000160016821F48021016020E00A98406815
:1020A000B0F5A02F0DD1FFE744F20040C5F60200C5
:1020B000016841F480210160016841F480310160D0
:1020C0000CE044F20040C5F60200016821F48031C2
:1020D0000160016821F480210160FFE7FFE7FFE76D
:1020E000FFE70A98406800281DD0FFE70AF07CFA55
:1020F0000990FFE744F20040C5F60200006800F4D2
:1021000000300021B1EB504F0CD1FFE70AF06CFA20
:102110000999401A652804D3FFE703200B9000F0CB
:1021200090BCE7E71CE00AF05FFA0990FFE744F291
:102130000040C5F60200006800F400300021B1EB59
:10214000504F0CD0FFE70AF04FFA0999401A652862
:1021500004D3FFE703200B9000F073BCE7E7FFE731
:10216000FFE7FFE70A9800788007002840F1EC803D
:10217000FFE744F21040C5F60200006800F03800A6
:10218000049044F22840C5F60200006803900498C9
:1021900000280AD0FFE70498182850D1FFE79DF8DF
:1021A0000C00800700284AD1FFE744F20040C5F642
:1021B0000200006800F004000021B1EB900F09D08C
:1021C000FFE70A98C068002804D1FFE701200B90C0
:1021D00000F037BCFFE70AF08FFA41F203018842B2
:1021E0001DD8FFE70A98006940280AD1FFE744F2AA
:1021F0000440C5F602000168202262F3113101603B
:102200000CE044F20440C5F60200016821F47C3180
:102210000A9A126941EA02310160FFE70CE044F2D8
:102220000440C5F60200016821F0FE410A9A1269D5
:1022300041EA02610160FFE7FFE7FFE783E00A98F8
:10224000C06800285AD0FFE744F20040C5F60200FB
:10225000016821F019010A9AD268114301600AF05D
:10226000C3F90990FFE744F20040C5F60200006898
:1022700000F004000021B1EB900F0BD1FFE70AF052
:10228000B3F90999401A032803D3FFE703200B9001
:10229000D7E3E8E7FFE70AF02FFA41F203018842AB
:1022A0001DD8FFE70A98006940280AD1FFE744F2E9
:1022B0000440C5F602000168202262F3113101607A
:1022C0000CE044F20440C5F60200016821F47C31C0
:1022D0000A9A126941EA02310160FFE70CE044F218
:1022E0000440C5F60200016821F0FE410A9A126915
:1022F00041EA02610160FFE7FFE723E044F20040AA
:10230000C5F60200016821F0010101600AF06CF9D4
:102310000990FFE744F20040C5F60200006800F0B3
:1023200004000021B1EB900F0BD0FFE70AF05CF93D
:102330000999401A032803D3FFE703200B9080E399
:10234000E8E7FFE7FFE7FFE70A980078C006002804
:1023500040F1E880FFE744F21040C5F60200006853
:1023600000F03800029044F22840C5F602000068F0
:102370000190029808280AD0FFE7029818284FD148
:10238000FFE7019800F00300012849D1FFE744F27C
:102390000040C5F60200006800F480700021B1EB37
:1023A000102F08D0FFE70A98C069802803D0FFE704
:1023B00001200B9045E3FFE70AF09EF941F203018B
:1023C00088421DD8FFE70A98006A20280AD1FFE753
:1023D00044F20440C5F602000168102262F39E61D7
:1023E00001600CE044F20440C5F60200016821F0EF
:1023F000F8410A9A126A41EA82610160FFE70CE043
:1024000044F20C40C5F60200016821F07C510A9AA2
:10241000126A41EA02610160FFE7FFE7FFE780E03F
:102420000A98C069002857D0FFE744F20040C5F67B
:102430000200016841F0800101600AF0D5F80990BE
:10244000FFE744F20040C5F60200006800F4807027
:102450000021B1EB102F0BD1FFE70AF0C5F8099965
:10246000401A032803D3FFE703200B90E9E2E8E7D3
:10247000FFE70AF041F941F2030188421DD8FFE766
:102480000A98006A20280AD1FFE744F20440C5F602
:1024900002000168102262F39E6101600CE044F2C8
:1024A0000440C5F60200016821F0F8410A9A126A58
:1024B00041EA82610160FFE70CE044F20C40C5F69E
:1024C0000200016821F07C510A9A126A41EA026115
:1024D0000160FFE7FFE723E044F20040C5F6020099
:1024E000016821F0800101600AF07EF80990FFE7A1
:1024F00044F20040C5F60200006800F4807000213C
:10250000B1EB102F0BD0FFE70AF06EF80999401AD3
:10251000032803D3FFE703200B9092E2E8E7FFE7ED
:10252000FFE7FFE70A980078000700284ED5FFE78D
:102530000A984069002824D0FFE744F27440C5F6A9
:102540000200016841F0010101600AF04DF80990B4
:10255000FFE744F27440C5F60200006800F0020094
:102560000021B1EB500F0BD1FFE70AF03DF80999BC
:10257000401A032803D3FFE703200B9061E2E8E74A
:1025800023E044F27440C5F60200016821F0010125
:1025900001600AF029F80990FFE744F27440C5F69B
:1025A0000200006800F002000021B1EB500F0BD0D8
:1025B000FFE70AF019F80999401A032803D3FFE747
:1025C00003200B903DE2E8E7FFE7FFE70A98007879
:1025D000800600284ED5FFE70A988069002824D09D
:1025E000FFE744F20040C5F60200016841F4805163
:1025F000016009F0F9FF0990FFE744F20040C5F6D9
:102600000200006800F400500021B1EB503F0BD1F4
:10261000FFE709F0E9FF0999401A032803D3FFE710
:1026200003200B900DE2E8E723E044F20040C5F6FA
:102630000200016821F48051016009F0D5FF099082
:10264000FFE744F20040C5F60200006800F40050C5
:102650000021B1EB503F0BD0FFE709F0C5FF09990E
:10266000401A032803D3FFE703200B90E9E1E8E7D2
:10267000FFE7FFE70A9800784007002840F1A680AE
:10268000FFE744F60000C5F60200016841F48071DE
:10269000016009F0A9FF0990FFE744F60000C5F6C4
:1026A00002000068C00500280BD4FFE709F09CFF7A
:1026B0000999401A652803D3FFE703200B90C0E176
:1026C000EBE7FFE70A988068012809D1FFE744F2A9
:1026D0007040C5F60200016841F00101016032E07E
:1026E0000A98806800280DD1FFE744F27040C5F6D3
:1026F0000200016821F001010160016821F004017C
:1027000001601FE00A98806805280DD1FFE744F2B8
:102710007040C5F60200016841F0040101600168E3
:1027200041F0010101600CE044F27040C5F6020086
:10273000016821F001010160016821F004010160DC
:10274000FFE7FFE7FFE7FFE70A98806800281ED051
:10275000FFE709F049FF0990FFE744F27040C5F632
:102760000200006800F002000021B1EB500F0DD113
:10277000FFE709F039FF0999401A41F2893188428F
:1027800003D3FFE703200B905BE1E6E71DE009F0D0
:102790002BFF0990FFE744F27040C5F60200006885
:1027A00000F002000021B1EB500F0DD0FFE709F05F
:1027B0001BFF0999401A41F28931884203D3FFE790
:1027C00003200B903DE1E6E7FFE7FFE70A98406A48
:1027D000002800F03381FFE744F21040C5F6020004
:1027E000006800F03800182800F0DB80FFE70A9846
:1027F000406A022840F0B080FFE744F20040C5F68E
:102800000200016821F08071016009F0EDFE09907D
:10281000FFE744F20040C5F60200006800F00070D7
:102820000021B1EB506F0BD0FFE709F0DDFE0999F5
:10283000401A032803D3FFE703200B9001E1E8E7E8
:10284000FFE744F22840C5F60200016840F2F33287
:1028500091430A9A936AD26A43EA021211430160D1
:102860000A98016B426B836BC06B01396FF35F2178
:102870004FF6006CCFF6FF7C0CEB422292B2114473
:102880000022CFF6FF7202EB034202F4FE02114473
:102890004FF07F4202EB006000F0FE40084444F23B
:1028A0003041C5F602010860FFE744F22C40C5F64E
:1028B0000200016821F00101016044F23441C5F6D3
:1028C00002010A684FF6F8739A430A9B9B6C42EA2E
:1028D000C3020A60016821F00C010A9A126C1143CC
:1028E0000160016821F002010A9A526C11430160F3
:1028F000016841F480310160016841F400310160F8
:10290000016841F480210160016841F0010101602A
:1029100044F20040C5F60200016841F08071016098
:1029200009F062FE0990FFE744F20040C5F602009C
:10293000006800F000700021B1EB506F0BD1FFE791
:1029400009F052FE0999401A032803D3FFE7032038
:102950000B9076E0E8E723E044F20040C5F6020081
:10296000016821F08071016009F03EFE0990FFE7E7
:1029700044F20040C5F60200006800F0007000213B
:10298000B1EB506F0BD0FFE709F02EFE0999401A0A
:10299000032803D3FFE703200B9052E0E8E7FFE7AB
:1029A0004BE044F22840C5F602000068089044F26B
:1029B0003040C5F60200006807900A98406A012876
:1029C00037D0FFE7089800F003000A99896A884227
:1029D0002FD1FFE7089800F47C700A99C96AB1EB1F
:1029E000101F26D1FFE707986FF35F200A99096B44
:1029F000013988421DD1FFE7BDF81C000A99496BD7
:102A00000139B1EB502F14D1FFE7079800F4FE0015
:102A10000A99896B0139B1EB104F0AD1FFE707988A
:102A200000F0FE400A99C96B0139B1EB106F03D079
:102A3000FFE701200B9004E0FFE7FFE700200B9089
:102A4000FFE70B980CB080BD80B586B00490039171
:102A50000498002803D1FFE70120059032E2039893
:102A600042F20001C5F20021096801F00F0188421D
:102A700015D9FFE742F20000C5F20020016821F0FD
:102A80000F01039A11430160006800F00F000399E1
:102A9000884203D0FFE70120059013E2FFE7049886
:102AA00000784007002819D5FFE70498006944F230
:102AB0001841C5F60201096801F0700188420CD97D
:102AC000FFE744F21840C5F60200016821F07001EA
:102AD000049A126911430160FFE7FFE70498007848
:102AE0000007002819D5FFE70498406944F21C410B
:102AF000C5F60201096801F0700188420CD9FFE7B0
:102B000044F21C40C5F60200016821F07001049AED
:102B1000526911430160FFE7FFE704980078C0069F
:102B2000002819D5FFE70498806944F21C41C5F6D6
:102B30000201096801F4E06188420CD9FFE744F220
:102B40001C40C5F60200016821F4E061049A926914
:102B500011430160FFE7FFE7049800788006002832
:102B600019D5FFE70498C06944F22041C5F6020177
:102B7000096801F0700188420CD9FFE744F2204057
:102B8000C5F60200016821F07001049AD269114370
:102B90000160FFE7FFE7049800788007002819D557
:102BA000FFE70498C06844F21841C5F602010968BD
:102BB00001F00F0188420CD9FFE744F21840C5F636
:102BC0000200016821F00F01049AD26811430160EC
:102BD000FFE7FFE704980078C007002800F087802F
:102BE000FFE744F21840C5F60200016821F4706165
:102BF000049A92681143016004984068022810D139
:102C0000FFE744F20040C5F60200006800F400301F
:102C10000021B1EB504F03D1FFE70120059051E1B6
:102C20003BE004984068032810D1FFE744F20040DD
:102C3000C5F60200006800F000700021B1EB506F93
:102C400003D1FFE7012005903CE125E004984068AE
:102C5000012810D1FFE744F20040C5F602000068E9
:102C600000F480700021B1EB102F03D1FFE70120A9
:102C7000059027E10FE044F20040C5F6020000682D
:102C800000F004000021B1EB900F03D1FFE7012019
:102C9000059017E1FFE7FFE7FFE744F21040C5F6B4
:102CA0000200016821F00701049A52681143016093
:102CB00009F09AFC0190FFE744F21040C5F60200CB
:102CC000006800F0380004994968B0EBC10F0DD0DE
:102CD000FFE709F089FC0199401A41F289318842E5
:102CE00003D3FFE703200590ECE0E5E7FFE7049856
:102CF00000788007002819D5FFE70498C06844F2DF
:102D00001841C5F60201096801F00F0188420CD292
:102D1000FFE744F21840C5F60200016821F00F01F8
:102D2000049AD26811430160FFE7FFE7039842F27B
:102D30000001C5F20021096801F00F01884215D297
:102D4000FFE742F20000C5F20020016821F00F0108
:102D5000039A11430160006800F00F000399884254
:102D600003D0FFE701200590ACE0FFE7049800786E
:102D70004007002819D5FFE70498006944F218417C
:102D8000C5F60201096801F0700188420CD2FFE724
:102D900044F21840C5F60200016821F07001049A5F
:102DA000126911430160FFE7FFE70498007800070C
:102DB000002819D5FFE70498406944F21C41C5F684
:102DC0000201096801F0700188420CD2FFE744F269
:102DD0001C40C5F60200016821F07001049A526996
:102DE00011430160FFE7FFE704980078C006002860
:102DF00019D5FFE70498806944F21C41C5F6020129
:102E0000096801F4E06188420CD2FFE744F21C40FB
:102E1000C5F60200016821F4E061049A9269114349
:102E20000160FFE7FFE7049800788006002819D5C5
:102E3000FFE70498C06944F22041C5F60201096821
:102E400001F0700188420CD2FFE744F22040C5F641
:102E50000200016821F07001049AD26911430160F7
:102E6000FFE7FFE700F034F844F21841C5F602012D
:102E70000A68C2F3032240F28403C9F204039A5C95
:102E800002F01F02D04000900098096801F00F0185
:102E9000595C01F01F01C84040F28C01C2F20001F0
:102EA0000860009840F28801C2F20001086040F218
:102EB000A400C2F200000068FEF742F902900298F6
:102EC0000590FFE7059806B080BD00BF00BF00BFBA
:102ED0008AB044F21040C5F60200006800F03800E5
:102EE00001461828019100F26C810199DFE811F088
:102EF00019006901690169016901690169016901D3
:102F00003B006901690169016901690169016901A0
:102F1000410069016901690169016901690169018A
:102F2000470044F20040C5F60200006800F02000AF
:102F30000021B1EB501F0FD0FFE744F20040C5F66F
:102F400002000068C0F3C10049F20001C0F2D031B4
:102F500021FA00F0029005E049F20000C0F2D03002
:102F60000290FFE733E140F60010C0F23D0002900E
:102F70002DE147F64000C0F27D10029027E144F2B7
:102F80002840C5F60200016801F0030108910068BD
:102F9000C0F30510079044F22C40C5F6020000680B
:102FA00000F001000690069844F23441C5F6020193
:102FB000096889B2C908484300EE100AB8EE400A11
:102FC0008DED040A0798002800F0F780FFE70898C5
:102FD0000028009009D0FFE7009801286AD0FFE799
:102FE0000098022800F08A80ACE044F20040C5F668
:102FF0000200006800F020000021B1EB501F34D027
:10300000FFE744F20040C5F602000068C0F3C100CB
:1030100049F20001C0F2D03121FA00F005909DED97
:10302000050AB8EE400A9DED071AB8EE411A80EE87
:10303000010A44F23040C5F6020000686FF35F20D9
:1030400001EE100AB8EE411A9DED042A9FED623A96
:1030500082EE032A31EE021AB7EE002A31EE021A8E
:1030600020EE010A8DED030A23E09DED070AB8EE7C
:10307000400A9FED5B1A81EE000A44F23040C5F62B
:10308000020000686FF35F2001EE100AB8EE411AEB
:103090009DED042A9FED503A82EE032A31EE021A8A
:1030A000B7EE002A31EE021A20EE010A8DED030A76
:1030B000FFE76BE09DED070AB8EE400A9FED471A67
:1030C00081EE000A44F23040C5F6020000686FF35A
:1030D0005F2001EE100AB8EE411A9DED042A9FED23
:1030E0003E3A82EE032A31EE021AB7EE002A31EEA2
:1030F000021A20EE010A8DED030A47E09DED070A52
:10310000B8EE400A9FED331A81EE000A44F23040D7
:10311000C5F6020000686FF35F2001EE100AB8EEFA
:10312000411A9DED042A9FED2C3A82EE032A31EEDE
:10313000021AB7EE002A31EE021A20EE010A8DEDD6
:10314000030A23E09DED070AB8EE400A9FED231A1B
:1031500081EE000A44F23040C5F6020000686FF3C9
:103160005F2001EE100AB8EE411A9DED042A9FED92
:103170001A3A82EE032A31EE021AB7EE002A31EE35
:10318000021A20EE010A8DED030AFFE744F23040F7
:10319000C5F60200006880B2012101EB50200990C1
:1031A0009DED030A9DED091AB8EE411A80EE010A61
:1031B000BCEEC00A8DED020A02E000200290FFE79B
:1031C00005E040F60010C0F23D000290FFE70298D3
:1031D0000AB0704720BCBE4B000000460024744A71
:1031E0000024744C00BF00BF80B58AB009900891DC
:1031F0000792099800282CD1FFE7FFE744F2E0404E
:10320000C5F60200016841F001010160006800F0AC
:10321000010001900198FFE74FF4807002900220B6
:103220000390032005900020049006900020C5F62E
:10323000020002A902F058FE44F21040C5F6020056
:10324000016821F0FE71089A079B1A43114301603F
:103250002DE0FFE744F2E040C5F60200016841F0CE
:1032600004010160006800F0040000900098FFE78E
:103270004FF400700290022003900320059000207C
:103280000490069040F60000C5F6020002A902F084
:103290002BFE44F21040C5F60200016821F07E4189
:1032A000089A079B42EAC31211430160FFE70AB084
:1032B00080BD00BF00BF00BF44F20040C5F6020061
:1032C000016841F400210160704700BF00BF00BFEA
:1032D00044F20040C5F60200016821F400210160BB
:1032E000704700BF00BF00BF80B582B0FFF7F0FDA0
:1032F00044F21841C5F602010A68C2F3032240F203
:103300008403C9F204039A5C02F01F02D0400190CA
:103310000198096801F00F01595C01F01F01C840D4
:1033200040F28C01C2F200010860019840F288026C
:10333000C2F200021060086802B080BD00BF00BF8A
:1033400080B5FFF7D1FF44F21C41C5F602010968C0
:10335000C1F3021140F28402C9F20402515C01F08F
:103360001F01C84080BD00BF80B5FFF7BDFF44F21C
:103370001C41C5F602010968C1F3022140F2840232
:10338000C9F20402515C01F01F01C84080BD00BFBA
:1033900080B582B0019001983F21016044F2004065
:1033A000C5F6020000684003002805D5FFE7019834
:1033B0004FF4A021416012E044F20040C5F6020043
:1033C0000068C003002805D5FFE701984FF480315D
:1033D000416003E0019800214160FFE7FFE744F20C
:1033E0000040C5F6020000680006002804D5FFE78B
:1033F00001988021C16103E001980021C161FFE7CC
:1034000009F07AF941F2030188420AD8FFE744F251
:103410000440C5F602000068C0F3846001990862A8
:1034200009E044F20C40C5F602000068C0F30560F4
:1034300001990862FFE744F20040C5F60200006807
:10344000C007002804D0FFE701980121C16003E014
:1034500001980021C160FFE709F04EF941F2030134
:1034600088420AD8FFE744F20440C5F6020000682B
:10347000C0F305300199086109E044F20440C5F643
:1034800002000068C0F3066001990861FFE744F29A
:103490007040C5F6020000684007002804D5FFE729
:1034A00001980521816011E044F27040C5F60200E8
:1034B0000068C007002804D0FFE70198012181605F
:1034C00003E0019800218160FFE7FFE744F27440C8
:1034D000C5F602000068C007002804D0FFE7019885
:1034E0000121416103E0019800214161FFE744F2BD
:1034F0000040C5F602000068C004002804D5FFE7BC
:1035000001980121816103E0019800218161FFE7B9
:1035100044F20040C5F602000068C001002804D54E
:10352000FFE701980221416203E001980121416215
:10353000FFE744F22840C5F60200016801F00301EC
:10354000019A91620068C0F305100199C86244F2C3
:103550003040C5F6020001686FF35F210131019A26
:103560001163016801F0FE41012202EB1161019B30
:10357000D963016889B202EB5121019B596300684C
:1035800000F4FE0002EB10400199886344F22C40E5
:10359000C5F60200016801F00C01019A116400688F
:1035A000C0F340000199486444F23440C5F602007B
:1035B000006880B2C0080199886402B080BD00BF75
:1035C00082B00190009101983F21016044F21040C7
:1035D000C5F60200006800F007000199486044F257
:1035E0001840C5F60200016801F47061019A91600B
:1035F000016801F00F01019AD160006800F07000CD
:103600000199086144F21C40C5F60200016801F00E
:103610007001019A5161006800F4E06001998861CD
:1036200044F22040C5F60200006800F070000199E5
:10363000C86142F20000C5F20020006800F00F00EF
:103640000099086002B0704780B544F26440C5F646
:1036500002000068400500280AD5FFE700F00CF8DA
:1036600044F26840C5F602004FF480610160FFE754
:1036700080BD00BF00BF00BF704700000000000019
:1036800080B59CB01A900020179016901A98C078B8
:103690000007002844D5FFE71A98406E00281590CF
:1036A0000FD0FFE71598B0F5801F13D0FFE71598EE
:1036B000B0F5001F15D0FFE71598B0F5401F17D0E3
:1036C00017E044F22C40C5F60200016841F40031D5
:1036D000016011E01A980430022100F021FF1790D8
:1036E0000AE01A982430022100F0FAFF179003E054
:1036F00002E001201790FFE7179800280CD1FFE7A0
:1037000044F25040C5F60200016821F440111A9AB3
:10371000526E1143016002E017981690FFE7FFE731
:103720001A984078C00700283BD0FFE71A98406DF0
:10373000042814901ED81499DFE801F0030C131A22
:103740001B0044F22C40C5F60200016841F4003130
:10375000016012E01A980430002100F0E1FE179099
:103760000BE01A982430002100F0BAFF179004E013
:1037700003E002E001201790FFE7179800280CD122
:10378000FFE744F25040C5F60200016821F007014E
:103790001A9A526D1143016002E017981690FFE7E4
:1037A000FFE71A9840788007002847D5FFE71A9866
:1037B000806D0028139011D0FFE71398402816D091
:1037C000FFE71398802819D0FFE71398C0281CD072
:1037D000FFE71398B0F5807F18D018E044F22C4032
:1037E000C5F60200016841F40031016012E01A9848
:1037F0000430002100F094FE17900BE01A9824305A
:10380000002100F06DFF179004E003E002E00120CA
:103810001790FFE7179800280CD1FFE744F25040BB
:10382000C5F60200016821F4E0711A9A926D114305
:10383000016002E017981690FFE7FFE71A984078BA
:10384000400700284CD5FFE71A98D0F8A4000028BC
:10385000129014D0FFE71298B0F5001F18D0FFE7C0
:103860001298B0F5800F1AD0FFE71298B0F5C00F8C
:103870001CD0FFE71298B0F5000F18D018E044F202
:103880002C40C5F60200016841F40031016012E0ED
:103890001A980430002100F043FE17900BE01A98AC
:1038A0002430002100F01CFF179004E003E002E048
:1038B00001201790FFE7179800280DD1FFE744F289
:1038C0005840C5F60200016821F460011A9AD2F846
:1038D000A4201143016002E017981690FFE7FFE76C
:1038E0001A984078000700284CD5FFE71A98D0F8BE
:1038F000A8000028119014D0FFE71198B0F1807F44
:1039000018D0FFE71198B0F1007F1AD0FFE71198A7
:10391000B0F1407F1CD0FFE71198B0F1806F18D054
:1039200018E044F22C40C5F60200016841F4003171
:10393000016012E01A980430002100F0F1FD1790A8
:103940000BE01A982430002100F0CAFE179004E022
:1039500003E002E001201790FFE7179800280DD13F
:10396000FFE744F25840C5F60200016821F0E0612B
:103970001A9AD2F8A8201143016002E01798169015
:10398000FFE7FFE71A98C078800700283BD5FFE7DC
:103990001A98806C002810901DD0FFE7109810280E
:1039A00008D0FFE7109820280DD0FFE710983028A6
:1039B00010D011E044F22C40C5F60200016841F439
:1039C000003101600BE01A980430022100F0A8FDDC
:1039D000179004E003E002E001201790FFE717983A
:1039E00000280CD1FFE744F24C40C5F60200016804
:1039F00021F030011A9A926C1143016002E017988D
:103A00001690FFE7FFE71A984078C00600284AD5CD
:103A1000FFE71A98C06D00280F9014D0FFE70F98A9
:103A2000B0F5805F18D0FFE70F98B0F5005F1AD0AF
:103A3000FFE70F98B0F5405F1CD0FFE70F98B0F597
:103A4000804F18D018E044F22C40C5F602000168FF
:103A500041F40031016012E01A980430002100F0B6
:103A60005FFD17900BE01A982430002100F038FE1B
:103A7000179004E003E002E001201790FFE7179899
:103A800000280CD1FFE744F25040C5F6020001685F
:103A900021F4E0411A9AD26D1143016002E01798B7
:103AA0001690FFE7FFE71A9840788006002848D56F
:103AB000FFE71A98006E00280E9019D0FFE70E98C5
:103AC000B0F5803F15D0FFE70E98B0F5003F17D056
:103AD000FFE70E98B0F5403F19D0FFE70E98B0F51C
:103AE000802F15D0FFE70E98B0F5A02F11D011E070
:103AF00013E01A980430012100F012FD17900CE039
:103B00001A982430012100F0EBFD179005E004E045
:103B100003E002E001201790FFE7179800280CD17E
:103B2000FFE744F25040C5F60200016821F4E021AD
:103B30001A9A126E1143016002E017981690FFE77F
:103B4000FFE71A984078400600284AD5FFE71A9800
:103B5000D0F8AC0000280D9019D0FFE70D98B0F117
:103B6000805F15D0FFE70D98B0F1005F17D0FFE739
:103B70000D98B0F1405F19D0FFE70D98B0F1804F7C
:103B800015D0FFE70D98B0F1A04F11D011E013E070
:103B90001A980430012100F0C3FC17900CE01A9829
:103BA0002430012100F09CFD179005E004E003E0C3
:103BB00002E001201790FFE7179800280DD1FFE7DA
:103BC00044F25840C5F60200016821F0E0411A9A1B
:103BD000D2F8AC201143016002E017981690FFE77D
:103BE000FFE71A9840780006002838D5FFE71A98B2
:103BF000C06E00280C901AD0FFE70C98B0F1805FDF
:103C000005D0FFE70C98B0F1005F09D010E044F256
:103C10002C40C5F60200016841F4003101600AE061
:103C20001A980430012100F07BFC179003E002E0B9
:103C300001201790FFE7179800280CD1FFE744F206
:103C40005040C5F60200016821F040511A9AD26E28
:103C50001143016002E017981690FFE7FFE71A98FA
:103C6000C078C007002833D0FFE71A98406C0328BB
:103C70000B9016D80B99DFE801F013020B1244F2F7
:103C80002C40C5F60200016841F4003101600BE0F0
:103C90001A980430022100F043FC179004E003E07E
:103CA00002E001201790FFE7179800280CD1FFE7EA
:103CB00044F24C40C5F60200016821F003011A9A53
:103CC000526C1143016002E017981690FFE7FFE77E
:103CD0001A9880784006002840F1AF80FFE744F64C
:103CE0000000C5F60200016841F48071016008F02F
:103CF0007BFC1890FFE744F60000C5F60200006860
:103D0000C00500280BD4FFE708F06EFC1899401A94
:103D1000652803D3FFE70320179000E0EBE717982F
:103D2000002840F08680FFE744F27040C5F60200AC
:103D3000006800F440701A99D1F8B01001F4407195
:103D4000884213D0FFE744F27040C5F602000168D4
:103D500021F440711991016841F4803101600168DA
:103D600021F48031016019990160FFE71A98D0F8B9
:103D7000B000B0F5807F1ED1FFE708F035FC189049
:103D8000FFE744F27040C5F60200006800F0020050
:103D90000021B1EB500F0DD1FFE708F025FC189979
:103DA000401A41F28931884203D3FFE7032017907C
:103DB00000E0E6E7FFE71798002836D1FFE7FFE7C6
:103DC0001A98D0F8B00000F44070B0F5407F14D1DC
:103DD000FFE744F21040C5F60200016821F47C516F
:103DE0001A9AD2F8B0204FF6F043C0F6FF731A408B
:103DF00041EA12110A46016009E044F21040C5F69A
:103E00000200016821F47C510A460160FFE71A981C
:103E1000D0F8B0006FF31F3044F27041C5F60201D4
:103E20000A6810430860FFE702E017981690FFE762
:103E300002E017981690FFE7FFE71A980078C0078E
:103E4000002800F04780FFE71A98806F28280A9022
:103E500029D80A99DFE801F01527272727272727E0
:103E600016272727272727271D27272727272727FD
:103E700024272727272727272527272727272727D7
:103E8000260013E01A980430012100F049FB179036
:103E90000CE01A982430012100F022FC179005E074
:103EA00004E003E002E001201790FFE717980028E4
:103EB0000CD1FFE744F25440C5F60200016821F03E
:103EC00038011A9A926F1143016002E01798169018
:103ED000FFE7FFE71A9800788007002834D5FFE74E
:103EE0001A98406F0528099017D80999DFE801F062
:103EF00003040B12131413E01A980430012100F08C
:103F00000FFB17900CE01A982430012100F0E8FB19
:103F1000179005E004E003E002E001201790FFE7BE
:103F2000179800280CD1FFE744F25440C5F6020070
:103F3000016821F007011A9A526F1143016002E0F3
:103F400017981690FFE7FFE71A98007840070028B7
:103F500036D5FFE71A98D0F890000528089017D8B2
:103F60000899DFE801F003040B12131413E01A9808
:103F70000430012100F0D4FA17900CE01A98243094
:103F8000012100F0ADFB179005E004E003E002E042
:103F900001201790FFE7179800280DD1FFE744F2A2
:103FA0005840C5F60200016821F007011A9AD2F8BC
:103FB00090201143016002E017981690FFE7FFE799
:103FC0001A980078800600284AD5FFE71A98D0F89A
:103FD0008C000028079019D0FFE70798B0F1805FA8
:103FE00015D0FFE70798B0F1005F17D0FFE70798FB
:103FF000B0F1405F19D0FFE70798B0F1804F15D0BE
:10400000FFE70798B0F1A04F11D011E013E01A9824
:104010000430002100F084FA17900CE01A98243044
:10402000022100F05DFB179005E004E003E002E0F0
:1040300001201790FFE7179800280DD1FFE744F201
:104040005440C5F60200016821F0E0411A9AD2F806
:104050008C201143016002E017981690FFE7FFE7FC
:104060001A980078400600284AD5FFE71A98D0F839
:1040700098000028069019D0FFE70698B0F5806FE9
:1040800015D0FFE70698B0F5006F17D0FFE7069848
:10409000B0F5406F19D0FFE70698B0F5805F15D0F6
:1040A000FFE70698B0F5A05F11D011E013E01A9871
:1040B0000430002100F034FA17900CE01A982430F4
:1040C000022100F00DFB179005E004E003E002E0A0
:1040D00001201790FFE7179800280DD1FFE744F261
:1040E0005840C5F60200016821F4E0511A9AD2F84E
:1040F00098201143016002E017981690FFE7FFE750
:104100001A980078000600284AD5FFE71A98D0F8D8
:104110009C000028059019D0FFE70598B0F5005FD6
:1041200015D0FFE70598B0F5804F17D0FFE7059849
:10413000B0F5C04F19D0FFE70598B0F5004F15D086
:10414000FFE70598B0F5204F11D011E013E01A9861
:104150000430002100F0E4F917900CE01A982430A4
:10416000022100F0BDFA179005E004E003E002E050
:1041700001201790FFE7179800280DD1FFE744F2C0
:104180005840C5F60200016821F460411A9AD2F83D
:104190009C201143016002E017981690FFE7FFE7AB
:1041A0001A9800780007002820D5FFE71A98D0F861
:1041B0008000B0F5805F0CD1FFE71A98243002210F
:1041C00000F08EFA002803D0FFE701201690FFE7E9
:1041D000FFE744F25440C5F60200016821F4405163
:1041E0001A9AD2F8802011430160FFE71A980078EC
:1041F000C006002820D5FFE71A98D0F89400B0F543
:10420000807F0CD1FFE71A982430022100F068FA71
:10421000002803D0FFE701201690FFE7FFE744F2F4
:104220005840C5F60200016821F440711A9AD2F88C
:10423000942011430160FFE71A9880780007002856
:1042400038D5FFE71A98D0F8A000002804900AD0CB
:10425000FFE70498B0F5803F0CD0FFE70498B0F575
:10426000003F0ED00EE01A980430002100F058F9FB
:1042700017900AE01A982430022100F031FA1790C2
:1042800003E002E001201790FFE7179800280DD106
:10429000FFE744F25840C5F60200016821F44031BE
:1042A0001A9AD2F8A0201143016002E017981690E4
:1042B000FFE7FFE71A988078400700283BD5FFE723
:1042C0001A98D0F88400B0F5801F03900AD0FFE759
:1042D0000398B0F5001F0ED0FFE70398B0F5401F1C
:1042E00010D010E044F22C40C5F60200016841F401
:1042F000003101600AE01A982430012100F0F0F941
:10430000179003E002E001201790FFE717980028BC
:104310000DD1FFE744F25440C5F60200016821F4D4
:1043200040111A9AD2F884201143016002E01798D4
:104330001690FFE7FFE71A988078C007002832D070
:10434000FFE71A98C06C0028029005D0FFE702989A
:10435000B0F5803F09D00FE044F22C40C5F60200D2
:10436000016841F40031016009E01A98043002212B
:1043700000F0D6F8179002E001201790FFE7179899
:1043800000280CD1FFE744F24C40C5F6020001685A
:1043900021F480311A9AD26C1143016002E017981F
:1043A0001690FFE7FFE71A98C078800600280CD522
:1043B000FFE71A982430022100F092F9002803D078
:1043C000FFE701201690FFE7FFE71A988078800743
:1043D000002838D5FFE71A98C06F002801901AD03E
:1043E000FFE70198B0F5807F0AD0FFE70198B0F5AC
:1043F000007F0ED0FFE70198B0F5407F0AD00BE0B8
:1044000044F22C40C5F60200016841F4003101601D
:1044100005E004E003E002E001201790FFE71798B1
:1044200000280CD1FFE744F25440C5F602000168B1
:1044300021F440711A9AD26F1143016002E017987B
:104440001690FFE7FFE71A988078C00600280CD581
:10445000FFE744F25040C5F60200016821F0004138
:104460001A9A126F11430160FFE71A98C078C006CC
:1044700000280DD5FFE744F21040C5F602000168A0
:1044800021F480411A9AD2F8B42011430160FFE769
:104490001A988078800600280CD5FFE744F2504037
:1044A000C5F60200016821F080711A9A926E1143DC
:1044B0000160FFE71A98C0784006002811D5FFE791
:1044C000FFE744F21040C5F60200016821F4004104
:1044D00001601A99D1F8B810026811430160FFE732
:1044E000FFE71A98C078000600280CD5FFE744F2D1
:1044F0004C40C5F60200016821F040511A9A126D35
:1045000011430160FFE71698002803D1FFE7002060
:104510001B9002E001201B90FFE71B981CB080BDA0
:1045200080B586B0049003910020019044F22840A9
:10453000C5F60200006800F00300032803D1FFE77E
:1045400001200590C6E044F20040C5F60200016873
:1045500021F08061016008F047F80290FFE744F223
:104560000040C5F60200006800F000600021B1EBD9
:10457000D06F0BD0FFE708F037F80299401A0328F4
:1045800003D3FFE703200590A4E0E8E7FFE744F248
:104590002840C5F60200016821F47C31049A1268B3
:1045A00041EA02310160049841688268C368006989
:1045B00001396FF35F214FF6006CCFF6FF7C0CEBF7
:1045C000422292B211440022CFF6FF7202EB034264
:1045D00002F4FE0211444FF07F4202EB006000F053
:1045E000FE40084444F23841C5F602010860FFE786
:1045F00044F22C40C5F60200016821F0C001049A83
:10460000526911430160016821F02001049A926906
:1046100011430160016821F01001016044F23C4146
:10462000C5F602010A684FF6F8739A43049BDB69EA
:1046300042EAC3020A60016841F010010160039878
:10464000002809D1FFE744F22C40C5F602000168BA
:1046500041F40021016016E00398012809D1FFE729
:1046600044F22C40C5F60200016841F4801101605B
:1046700008E044F22C40C5F60200016841F4001144
:104680000160FFE7FFE744F20040C5F60200016861
:1046900041F08061016007F0A7FF0290FFE744F25C
:1046A0000040C5F60200006800F000600021B1EB98
:1046B000D06F0BD1FFE707F097FF0299401A03284C
:1046C00003D3FFE70320059004E0E8E7FFE7019844
:1046D0000590FFE7059806B080BD00BF00BF00BF92
:1046E00080B586B0049003910020019044F22840E8
:1046F000C5F60200006800F00300032803D1FFE7BD
:1047000001200590C6E044F20040C5F602000168B1
:1047100021F08051016007F067FF0290FFE744F24B
:104720000040C5F60200006800F000500021B1EB27
:10473000507F0BD0FFE707F057FF0299401A03287C
:1047400003D3FFE703200590A4E0E8E7FFE744F286
:104750002840C5F60200016821F07C71049A1268B5
:1047600041EA02510160049841688268C3680069A7
:1047700001396FF35F214FF6006CCFF6FF7C0CEB35
:10478000422292B211440022CFF6FF7202EB0342A2
:1047900002F4FE0211444FF07F4202EB006000F091
:1047A000FE40084444F24041C5F602010860FFE7BC
:1047B00044F22C40C5F60200016821F44061049ADD
:1047C000526911430160016821F40071049A9269F1
:1047D00011430160016821F48071016044F2444199
:1047E000C5F602010A684FF6F8739A43049BDB6929
:1047F00042EAC3020A60016841F4807101600398D3
:10480000002809D1FFE744F22C40C5F602000168F8
:1048100041F48001016016E00398012809D1FFE707
:1048200044F22C40C5F60200016841F40001016029
:1048300008E044F22C40C5F60200016841F08071A6
:104840000160FFE7FFE744F20040C5F6020001689F
:1048500041F08051016007F0C7FE0290FFE744F28B
:104860000040C5F60200006800F000500021B1EBE6
:10487000507F0BD1FFE707F0B7FE0299401A0328DB
:1048800003D3FFE70320059004E0E8E7FFE7019882
:104890000590FFE7059806B080BD00BF00BF00BFD0
:1048A00010B581B0009000984FF2F711CCF6FF11CF
:1048B00001600098016841F00801016000980168FA
:1048C00041F4007101600098016841F48061016069
:1048D0000098016841F4006101600098016841F0AE
:1048E000007101600098016841F0805101600098FA
:1048F000016841F00051016044F22840C5F6020011
:104900000168C1F30551009A516244F24041C5F675
:1049100002010A686FF35F220132009B9A620A6803
:1049200002F0FE42012303EB1262DDF800C0CCF876
:1049300034200A6892B203EB5222DDF800C0CCF8B2
:104940002C20096801F4FE0103EB1141009A116368
:1049500044F22C41C5F602010A68C2F38122DDF857
:1049600000C0CCF838200A68C2F34022DDF800C04D
:10497000CCF83C200068C0F30530009A506044F247
:104980003840C5F6020002686FF35F220132DDF89D
:1049900000C0CCF80820026802F0FE4203EB12626D
:1049A000DDF800C0CCF81420026892B203EB52226A
:1049B000DDF800C0CCF80C20006800F4FE0003EB2A
:1049C0001040009A10610868C0B28009009A906196
:1049D0000868C0F340100099C86144F25440C5F61D
:1049E0000200016801F03801009A9167016801F046
:1049F0000701009A516744F25841C5F602010A685E
:104A000002F00702009BC3F89020026802F44052B3
:104A1000009BC3F88020026802F0E042009BC3F8CC
:104A20008C200A6802F4E052009BC3F898200A68C0
:104A300002F46042009BC3F89C2044F25042C5F649
:104A40000202136803F00703DDF800C0CCF854300D
:104A5000136803F4E073DDF800C0CCF858300B683D
:104A600003F46003DDF800C0CCF8A4300B6803F059
:104A7000E063DDF800C0CCF8A83044F27043C5F61E
:104A800002031B6803F44073DDF800C0CCF8B030BB
:104A9000036803F44013DDF800C0CCF8843044F21E
:104AA0004C43C5F60203D3F800C00CF4803CDDF89B
:104AB00000E0CEF84CC0D0F800C00CF4407CDDF82B
:104AC00000E0CEF87CC044F2104CC5F6020CDCF8D5
:104AD00000E00EF4804E009CC4F8B4E0D1F800E091
:104AE0000EF4403E009CC4F8A0E0D2F800E00EF0C6
:104AF000004E009CC4F870E0D2F800E00EF0807E1A
:104B0000009CC4F868E0D2F800E00EF4401E009C5F
:104B1000C4F864E0D2F800E00EF4E04E009CC4F863
:104B20005CE0D2F800E00EF4E02E009CC4F860E0F7
:104B3000096801F0E041DDF800E0CEF8AC10116842
:104B400001F04051009AD166006800F440000099DD
:104B5000C1F88800186800F00300009948641868DC
:104B600000F0300000998864186800F04050009907
:104B70000865DCF800000004002805D4FFE7009871
:104B80000021C0F8B81005E000984FF40041C0F8CB
:104B9000B810FFE701B010BD80B596B0159015981C
:104BA000B0F5807F5CD1FFE744F25040C5F60200CB
:104BB000006800F007000A900A98042807904BD874
:104BC0000799DFE801F003090F43150012A800F070
:104BD000E3FA13980B9042E00FA800F035FC0F9811
:104BE0000B903CE00CA800F087FD0C980B9036E091
:104BF00044F24C40C5F60200006800F040500990B5
:104C00000998002806D1FFE749F20000C0F2D03031
:104C10000B901AE00998B0F1805F06D1FFE740F6EB
:104C20000010C0F23D000B900EE00998B0F1005F5B
:104C300006D1FFE747F64000C0F27D100B9002E07E
:104C400000200B90FFE7FFE7FFE708E048F20000D5
:104C5000C0F2BB000B9002E000200B90FFE798E24F
:104C60001598B0F5007F68D1FFE744F25040C5F6D3
:104C70000200006800F4E0700A900A98002806908C
:104C800011D0FFE70698402813D0FFE70698802848
:104C900015D0FFE70698C02845D0FFE70698B0F585
:104CA000807F12D045E012A800F076FA13980B909E
:104CB00042E00FA800F0C8FB0F980B903CE00CA856
:104CC00000F01AFD0C980B9036E044F24C40C5F60B
:104CD0000200006800F0405009900998002806D1B1
:104CE000FFE749F20000C0F2D0300B901AE00998BB
:104CF000B0F1805F06D1FFE740F60010C0F23D0042
:104D00000B900EE00998B0F1005F06D1FFE747F67F
:104D10004000C0F27D100B9002E000200B90FFE7F6
:104D2000FFE7FFE708E048F20000C0F2BB000B908D
:104D300002E000200B90FFE72AE21598B0F5806FA3
:104D40006BD1FFE744F25840C5F60200006800F45A
:104D500060000A900A980028059014D0FFE7059893
:104D6000B0F5001F15D0FFE70598B0F5800F16D0FD
:104D7000FFE70598B0F5C00F45D0FFE70598B0F5FF
:104D8000000F12D045E012A800F006FA13980B901D
:104D900042E00FA800F058FB0F980B903CE00CA8E5
:104DA00000F0AAFC0C980B9036E044F24C40C5F69B
:104DB0000200006800F0405009900998002806D1D0
:104DC000FFE749F20000C0F2D0300B901AE00998DA
:104DD000B0F1805F06D1FFE740F60010C0F23D0061
:104DE0000B900EE00998B0F1005F06D1FFE747F69F
:104DF0004000C0F27D100B9002E000200B90FFE716
:104E0000FFE7FFE708E048F20000C0F2BB000B90AC
:104E100002E000200B90FFE7B9E11598B0F5006FB4
:104E20006BD1FFE744F25840C5F60200006800F07D
:104E3000E0600A900A980028049014D0FFE70498D4
:104E4000B0F1807F15D0FFE70498B0F1007F16D055
:104E5000FFE70498B0F1407F45D0FFE70498B0F138
:104E6000806F12D045E012A800F096F913980B90CD
:104E700042E00FA800F0E8FA0F980B903CE00CA875
:104E800000F03AFC0C980B9036E044F24C40C5F62A
:104E90000200006800F0405009900998002806D1EF
:104EA000FFE749F20000C0F2D0300B901AE00998F9
:104EB000B0F1805F06D1FFE740F60010C0F23D0080
:104EC0000B900EE00998B0F1005F06D1FFE747F6BE
:104ED0004000C0F27D100B9002E000200B90FFE735
:104EE000FFE7FFE708E048F20000C0F2BB000B90CC
:104EF00002E000200B90FFE748E11598B0F5805FD5
:104F00006BD1FFE744F25040C5F60200006800F4A0
:104F1000E040089008980028039014D0FFE7039819
:104F2000B0F5805F15D0FFE70398B0F5005F16D0AD
:104F3000FFE70398B0F5405F45D0FFE70398B0F571
:104F4000804F12D045E012A800F026F913980B907C
:104F500042E00FA800F078FA0F980B903CE00CA804
:104F600000F0CAFB0C980B9036E044F24C40C5F6BA
:104F70000200006800F0405009900998002806D10E
:104F8000FFE749F20000C0F2D0300B901AE0099818
:104F9000B0F1805F06D1FFE740F60010C0F23D009F
:104FA0000B900EE00998B0F1005F06D1FFE747F6DD
:104FB0004000C0F27D100B9002E000200B90FFE754
:104FC000FFE7FFE708E048F20000C0F2BB000B90EB
:104FD00002E000200B90FFE7D7E01598B0F5002F16
:104FE00055D1FFE744F25840C5F60200006800F4CE
:104FF000403008900898002802900AD0FFE70298F5
:10500000B0F5803F0BD0FFE70298B0F5003F0CD021
:1050100039E00FA800F018FA0F980B9036E00CA8B2
:1050200000F06AFB0E980B9030E044F24C40C5F65D
:105030000200006800F0405009900998002806D14D
:10504000FFE749F20000C0F2D0300B901AE0099857
:10505000B0F1805F06D1FFE740F60010C0F23D00DE
:105060000B900EE00998B0F1005F06D1FFE747F61C
:105070004000C0F27D100B9002E000200B90FFE793
:10508000FFE7FFE702E000200B90FFE77CE01598C8
:10509000B0F5803F22D1FFE744F24C40C5F6020054
:1050A000006800F48030089008980028019005D02E
:1050B000FFE70198B0F5803F06D00BE012A800F0A2
:1050C0006BF813980B9008E00FA800F0BDF9119849
:1050D0000B9002E000200B90FFE754E01598B0F52C
:1050E000804F4CD1FFE744F25840C5F602000068FB
:1050F00000F0E040089008980028009019D0FFE7E1
:105100000098B0F1805F18D0FFE70098B0F1005F21
:1051100019D0FFE70098B0F1405F1AD0FFE7009880
:10512000B0F1804F1BD0FFE70098B0F1A04F1CD02A
:1051300021E000F039FC0B9020E00FA800F084F98A
:1051400010980B901AE00CA800F0D6FA0D980B906E
:1051500014E049F20000C0F2D0300B900EE040F6AF
:105160000010C0F23D000B9008E047F64000C0F28E
:105170007D100B9002E000200B90FFE702E0002082
:105180000B90FFE7FFE7FFE7FFE7FFE7FFE7FFE73A
:10519000FFE70B9816B080BD88B0079044F2284016
:1051A000C5F60200016801F0030106910068C0F332
:1051B0000510059044F22C40C5F60200006800F08E
:1051C00001000490049844F23441C5F602010968D4
:1051D00089B2C908484300EE100AB8EE400A8DEDC6
:1051E000020A0598002800F01D81FFE706980028B4
:1051F000009009D0FFE7009801286AD0FFE70098E7
:10520000022800F08A80ACE044F20040C5F60200BB
:10521000006800F020000021B1EB501F34D0FFE700
:1052200044F20040C5F602000068C0F3C10049F234
:105230000001C0F2D03121FA00F003909DED030A85
:10524000B8EE400A9DED051AB8EE411A80EE010A4B
:1052500044F23040C5F6020000686FF35F2001EEB3
:10526000100AB8EE411A9DED022A9FED743A82EEC3
:10527000032A31EE021AB7EE002A31EE021A20EEAE
:10528000010A8DED010A23E09DED050AB8EE400A02
:105290009FED6C1A81EE000A44F23040C5F6020020
:1052A00000686FF35F2001EE100AB8EE411A9DED21
:1052B000022A9FED623A82EE032A31EE021AB7EE1D
:1052C000002A31EE021A20EE010A8DED010AFFE7F5
:1052D0006BE09DED050AB8EE400A9FED591A81EE8C
:1052E000000A44F23040C5F6020000686FF35F2008
:1052F00001EE100AB8EE411A9DED022A9FED4F3AD9
:1053000082EE032A31EE021AB7EE002A31EE021ABB
:1053100020EE010A8DED010A47E09DED050AB8EE89
:10532000400A9FED451A81EE000A44F23040C5F66E
:10533000020000686FF35F2001EE100AB8EE411A18
:105340009DED022A9FED3D3A82EE032A31EE021ACC
:10535000B7EE002A31EE021A20EE010A8DED010AA5
:1053600023E09DED050AB8EE400A9FED351A81EE67
:10537000000A44F23040C5F6020000686FF35F2077
:1053800001EE100AB8EE411A9DED022A9FED2B3A6C
:1053900082EE032A31EE021AB7EE002A31EE021A2B
:1053A00020EE010A8DED010AFFE79DED010A44F2AE
:1053B0003040C5F60200016889B2490A01EE101AB0
:1053C000B8EE411AB7EE002A31EE021A80EE010A59
:1053D0000799BCEEC00A81ED000A9DED010A016843
:1053E000C1F3064101EE101AB8EE411A31EE021A6D
:1053F00080EE010A0799BCEEC00A81ED010A9DED1D
:10540000010A0068C0F3066001EE100AB8EE411A06
:1054100031EE021A80EE010A0798BCEEC00A80ED58
:10542000020A07E007980021016007984160079889
:105430008160FFE708B0704720BCBE4B000000460B
:105440000024744A0024744C88B0079044F2284029
:10545000C5F60200016801F0030106910068C0F37F
:105460000530059044F22C40C5F602000068C0F3F8
:1054700000100490049844F23C41C5F6020109680A
:1054800089B2C908484300EE100AB8EE400A8DED13
:10549000020A0598002800F01D81FFE70698002801
:1054A000009009D0FFE7009801286AD0FFE7009834
:1054B000022800F08A80ACE044F20040C5F6020009
:1054C000006800F020000021B1EB501F34D0FFE74E
:1054D00044F20040C5F602000068C0F3C10049F282
:1054E0000001C0F2D03121FA00F003909DED030AD3
:1054F000B8EE400A9DED051AB8EE411A80EE010A99
:1055000044F23840C5F6020000686FF35F2001EEF8
:10551000100AB8EE411A9DED022A9FED743A82EE10
:10552000032A31EE021AB7EE002A31EE021A20EEFB
:10553000010A8DED010A23E09DED050AB8EE400A4F
:105540009FED6C1A81EE000A44F23840C5F6020065
:1055500000686FF35F2001EE100AB8EE411A9DED6E
:10556000022A9FED623A82EE032A31EE021AB7EE6A
:10557000002A31EE021A20EE010A8DED010AFFE742
:105580006BE09DED050AB8EE400A9FED591A81EED9
:10559000000A44F23840C5F6020000686FF35F204D
:1055A00001EE100AB8EE411A9DED022A9FED4F3A26
:1055B00082EE032A31EE021AB7EE002A31EE021A09
:1055C00020EE010A8DED010A47E09DED050AB8EED7
:1055D000400A9FED451A81EE000A44F23840C5F6B4
:1055E000020000686FF35F2001EE100AB8EE411A66
:1055F0009DED022A9FED3D3A82EE032A31EE021A1A
:10560000B7EE002A31EE021A20EE010A8DED010AF2
:1056100023E09DED050AB8EE400A9FED351A81EEB4
:10562000000A44F23840C5F6020000686FF35F20BC
:1056300001EE100AB8EE411A9DED022A9FED2B3AB9
:1056400082EE032A31EE021AB7EE002A31EE021A78
:1056500020EE010A8DED010AFFE79DED010A44F2FB
:105660003840C5F60200016889B2490A01EE101AF5
:10567000B8EE411AB7EE002A31EE021A80EE010AA6
:105680000799BCEEC00A81ED000A9DED010A016890
:10569000C1F3064101EE101AB8EE411A31EE021ABA
:1056A00080EE010A0799BCEEC00A81ED010A9DED6A
:1056B000010A0068C0F3066001EE100AB8EE411A54
:1056C00031EE021A80EE010A0798BCEEC00A80EDA6
:1056D000020A07E0079800210160079841600798D7
:1056E0008160FFE708B0704720BCBE4B0000004659
:1056F0000024744A0024744C88B0079044F2284077
:10570000C5F60200016801F0030106910068C0F3CC
:105710000550059044F22C40C5F602000068C0F325
:1057200000200490049844F24441C5F6020109683F
:1057300089B2C908484300EE100AB8EE400A8DED60
:10574000020A0598002800F01D81FFE7069800284E
:10575000009009D0FFE7009801286AD0FFE7009881
:10576000022800F08A80ACE044F20040C5F6020056
:10577000006800F020000021B1EB501F34D0FFE79B
:1057800044F20040C5F602000068C0F3C10049F2CF
:105790000001C0F2D03121FA00F003909DED030A20
:1057A000B8EE400A9DED051AB8EE411A80EE010AE6
:1057B00044F24040C5F6020000686FF35F2001EE3E
:1057C000100AB8EE411A9DED022A9FED743A82EE5E
:1057D000032A31EE021AB7EE002A31EE021A20EE49
:1057E000010A8DED010A23E09DED050AB8EE400A9D
:1057F0009FED6C1A81EE000A44F24040C5F60200AB
:1058000000686FF35F2001EE100AB8EE411A9DEDBB
:10581000022A9FED623A82EE032A31EE021AB7EEB7
:10582000002A31EE021A20EE010A8DED010AFFE78F
:105830006BE09DED050AB8EE400A9FED591A81EE26
:10584000000A44F24040C5F6020000686FF35F2092
:1058500001EE100AB8EE411A9DED022A9FED4F3A73
:1058600082EE032A31EE021AB7EE002A31EE021A56
:1058700020EE010A8DED010A47E09DED050AB8EE24
:10588000400A9FED451A81EE000A44F24040C5F6F9
:10589000020000686FF35F2001EE100AB8EE411AB3
:1058A0009DED022A9FED3D3A82EE032A31EE021A67
:1058B000B7EE002A31EE021A20EE010A8DED010A40
:1058C00023E09DED050AB8EE400A9FED351A81EE02
:1058D000000A44F24040C5F6020000686FF35F2002
:1058E00001EE100AB8EE411A9DED022A9FED2B3A07
:1058F00082EE032A31EE021AB7EE002A31EE021AC6
:1059000020EE010A8DED010AFFE79DED010A44F248
:105910004040C5F60200016889B2490A01EE101A3A
:10592000B8EE411AB7EE002A31EE021A80EE010AF3
:105930000799BCEEC00A81ED000A9DED010A0168DD
:10594000C1F3064101EE101AB8EE411A31EE021A07
:1059500080EE010A0799BCEEC00A81ED010A9DEDB7
:10596000010A0068C0F3066001EE100AB8EE411AA1
:1059700031EE021A80EE010A0798BCEEC00A80EDF3
:10598000020A07E007980021016007984160079824
:105990008160FFE708B0704720BCBE4B00000046A6
:1059A0000024744A0024744C80B5FDF79DFC44F239
:1059B0002041C5F602010968C1F3021140F28402D8
:1059C000C9F20402515C01F01F01C84080BD00BF54
:1059D00080B5FDF789FC44F21841C5F6020109685B
:1059E000C1F3021140F28402C9F20402515C01F0D9
:1059F0001F01C84080BD00BF80B582B0FDF768FAC6
:105A000044F21841C5F602010A68C2F3032240F2CB
:105A10008403C9F204039A5C02F01F02D040019093
:105A20000198096801F00F01595C01F01F01C8409D
:105A300040F28C01C2F200010860019840F2880136
:105A4000C2F200010860019802B080BD00BF00BF33
:105A500044F27040C5F60200016841F02001016087
:105A6000704700BF00BF00BF44F27040C5F602009F
:105A7000016821F02001016044F26040C5F6020097
:105A8000016821F400710160704700BF00BF00BFD2
:105A900044F27040C5F60200016841F02001016047
:105AA00044F26040C5F60200016841F400710160F3
:105AB0008020C5F60000016841F4802101604FF0AC
:105AC000B040016841F480210160704700BF00BF11
:105AD00081B0009044F21040C5F60200016821F048
